:04000000A7EF00F076
:10000800FACF0AF0FBCF0BF0E9CF0CF0EACF0DF0F6
:10001800E1CF0EF0E2CF0FF0D9CF10F0DACF11F028
:10002800F3CF12F0F4CF13F0F6CF14F0F7CF15F0AA
:10003800F8CF16F0F5CF17F00A0E186EF2B4F2AA40
:100048005FD0010E2D24016E000E2E20026E000ED0
:100058002F20036E000E3020046E000E056EE10E98
:10006800066EF50E076E050E086E34EC0BF001C037
:100078002DF002C02EF003C02FF004C030F0345031
:10008800D8A40DD012D00BD03B1E3B50D8B402D010
:10009800848E02D0849E00D095EC0CF000D0180617
:1000A8001828D8B402D0F0D700D02DC001F02EC047
:1000B80002F02FC003F030C004F01E0E056E000ED3
:1000C800066E000E076E000E086E34EC0BF0015041
:1000D800021003100410D8A408D03C1E3C50D8B419
:1000E80002D0849A02D0848A00D0CCEC09F078EC53
:1000F8000CF0000E026E4E0E016EC9EC0CF000D032
:10010800A4AA04D01DCF37F0386A00D017C0F5FF75
:1001180016C0F8FF15C0F7FF14C0F6FF13C0F4FFB0
:1001280012C0F3FF11C0DAFF10C0D9FF0FC0E2FF01
:100138000EC0E1FF0DC0EAFF0CC0E9FF0BC0FBFFDA
:0A0148000AC0FAFF110082EF0DF06B
:10100000003F065B4F666D7D077F6F777C395E79A9
:10101000710068C06CF000016D6B6E6B000167358C
:1010200000016C3701E36D8100016C510001736FA9
:1010300000017351D8A40AD0000E0001666F000EA3
:101040000001676F000E0001686F12006BC06CF04A
:1010500000016D6B6E6B00016A3500016C3701E3B6
:101060006D8100016C510001746F00017451D8A4AE
:101070000AD0000E0001666F000E0001676F000EBF
:101080000001686F1200000E0001706F000E000179
:10109000716F000E0001726F00017451890F000121
:1010A000735F68C074F000016B510001741B800E07
:1010B000000174170001678FFF0E00016617FF0E15
:1010C00000016717000E0001681700016A8FFF0E0C
:1010D00000016917FF0E00016A17000E00016B176F
:1010E000180E00016F6F00D00001D8907037713773
:1010F0007237000169510001665D00016A5100010B
:10110000675900016B5100016859D8A00ED0000149
:1011100069510001665F00016A510001675B0001CF
:101120006B510001685B000170810001D890663747
:101130006737683700016F2FD7D700D070C019F01C
:1011400071C01AF072C01BF073C01CF074C01DF0A7
:101150004DEC0AF019C066F01AC067F01BC068F0C9
:101160001200120026C02AF02B6A2C6A25342A3677
:1011700001E32B802A500001606F00016051D8A468
:1011800007D0000E246E000E256E000E266E120093
:1011900029C02AF02B6A2C6A28342A3601E32B80D6
:1011A0002A500001656F00016551D8A407D0000ED8
:1011B000246E000E256E000E266E12000001655191
:1011C0007B0F0001602726C065F029500001651BD8
:1011D000800E00016517258E288EFF0E2716FF0E44
:1011E0002816000E2916000E0001616F000E000186
:1011F000626F000E0001636F070E0001646F00D084
:1012000024A00AD027500001612728500001622342
:1012100029500001632300D0D89026322532243291
:10122000D8902736283629360001642FE9D700D018
:10123000090E0001646F00D024A00AD027500001DD
:10124000612728500001622329500001632300D048
:10125000D8902632253224320001D890633362338D
:1012600061330001642FE8D700D061C019F062C07B
:101270001AF063C01BF060C01CF065C01DF04DEC9F
:101280000AF019C024F01AC025F01BC026F0120085
:10129000120020C019F021C01AF0000E1C6E0A0EB8
:1012A0001B6EF7EC0BF0010E1924F66E100E1A20CF
:1012B000F76E0800F5CF1EF0030E54EC0DF020C0C1
:1012C00019F021C01AF0000E1C6E0A0E1B6EA2EC63
:1012D0000BF019C020F01AC021F020C019F021C075
:1012E0001AF0000E1C6E0A0E1B6EF7EC0BF0010ECE
:1012F0001924F66E100E1A20F76E0800F5CF1EF0B6
:10130000020E54EC0DF020C019F021C01AF0000EAE
:101310001C6E0A0E1B6EA2EC0BF019C020F01AC056
:1013200021F020C019F021C01AF0000E1C6E0A0E28
:101330001B6EF7EC0BF0010E1924F66E100E1A203E
:10134000F76E0800F5CF1EF0010E54EC0DF020C032
:1013500019F021C01AF0000E1C6E0A0E1B6EA2ECD2
:101360000BF019C020F01AC021F020C019F021C0E4
:101370001AF0000E1C6E0A0E1B6EF7EC0BF0010E3D
:101380001924F66E100E1A20F76E0800F5CF1EF025
:10139000000E54EC0DF01200E1EC0CF03EA002D077
:1013A000442A00D03EA202D0452A00D03EA402D05A
:1013B000462A00D03EA602D0472A00D03EA802D03E
:1013C000482A00D03E50D8A40BD0000E446E000E28
:1013D000456E000E466E000E476E000E486E1200FF
:1013E000050E446002D0000E06D03C0E446002D0D0
:1013F000010E01D0030E3F6E00D0050E456002D0F5
:10140000000E06D03C0E456002D0010E01D0030E46
:10141000406E00D0050E466002D0000E06D03C0E95
:10142000466002D0010E01D0030E416E00D0050EC1
:10143000476002D0000E06D03C0E476002D0010E7D
:1014400001D0030E426E00D0050E486002D0000E9F
:1014500006D03C0E486002D0010E01D0030E436E50
:1014600000D0000E436E3F50D8B402D0438000D06D
:101470004050D8B402D0438200D04150D8B402D0FA
:10148000438400D04250D8B402D0438600D04350A9
:10149000D8B412004388120012001C50D8B405D0F2
:1014A00019501A101B10D8A40ED0000E196E000E81
:1014B0001A6E000E1B6E120006D01C2AD8901B322A
:1014C0001A32193200D0000E19141E6E000E1A14B2
:1014D0001F6EFE0E1B14206E1E501F102010D8B45D
:1014E0000ED0EBD70CD01C2A010E1926000E1A22A2
:1014F000000E1B22D8901B321A32193200D0000E77
:1015000019141E6E000E1A141F6EFF0E1B14206E8F
:101510001E501F102010D8B408D0E5D706D01C06E6
:10152000D89019361A361B3600D01ABE04D0020ED7
:101530001C60F5D700D01CB002D01A9E00D0D89005
:101540001C321C501B121D50D8B402D01B8E00D070
:1015500019C019F01AC01AF01BC01BF012001200BB
:101560001B6E000E0F01216F000E0F01226F1BA0DA
:1015700003D00F01218900D01BA205D00F01218DBE
:101580000F01228D00D01BA403D00F01218F00D0AA
:101590001BA603D00F01228903D00F01228B00D09C
:1015A0001BA803D00F01218503D00F01219500D086
:1015B0001BAA03D00F01228700D01BAC02D0A38A44
:1015C00002D0A39A00D01BAE02D0A38801D0A3986A
:1015D00019C01EFF1A500F011F6F0F01218B0F0141
:1015E000228F1200066E0628D8B42FD03E50D8A401
:1015F00029D0FF0E016EFF0E026E0650036E046AC4
:1016000001500326025004223F0E0324D96E000E1F
:101610000420DA6EDF50056EFF0E016EFF0E026EC3
:101620000650036E046A01500326025004223F0E46
:101630000324D96E000E0420DA6E000EDF6E055012
:10164000120003D0040E120000D00628D8A4120005
:101650003E50D8A406D043C005F0000E436E05509E
:101660001200040E12001200055006100710081098
:10167000D8B429D0010E096E07D0D89005360636A9
:1016800007360836092A00D008BE02D0F6D700D0A7
:101690000550015C06500258075003580850045882
:1016A000D8A009D00550015E0650025A0750035ACF
:1016B0000850045A00D0D89008320732063205325A
:1016C000092EE6D700D001C001F002C002F003C02D
:1016D00003F004C004F01200C6EC0DF000D0B4EC2E
:1016E0000DF00009D8A4FBD7120E276E830E286ECA
:1016F000400E296EA5EC0DF019C021F01AC022F0A1
:10170000F8EC0CF021C024F022C025F023C026F014
:10171000B2EC08F024C066F025C067F026C068F07F
:10172000F00E0001696F7F0E00016A6F450E000127
:101730006B6F09EC08F066C031F067C032F068C02A
:1017400033F01200000E1F6E000E1E6E1B501C1098
:10175000D8B421D0010E1D6E05D0D8901B361C3692
:101760001D2A00D01CBE02D0F8D700D0D8901E365B
:101770001F361B50195C1C501A58D8A006D01B509D
:10178000195E1C501A5A1E8000D0D8901C321B3291
:101790001D2EECD700D01EC019F01FC01AF0120089
:1017A0001D6E000EC26E000EC16E000EC06E19508E
:1017B0007C0BC26E1AC0C1FF1DC01BF0D8901B3637
:1017C000D8901B36380E1B161DC01CF01C3A0F0E8D
:1017D0001C16070E1C161D50800B1C101B10C06E13
:1017E00019AE03D09E9C9D8CF28CC28012001B50BF
:1017F0001C10D8B41DD0010E1D6E05D0D8901B361C
:101800001C361D2A00D01CBE02D0F8D700D01B50B9
:10181000195C1C501A58D8A005D01B50195E1C50DA
:101820001A5A00D0D8901C321B321D2EF0D700D08F
:1018300019C019F01AC01AF012003550D8B403D0EC
:101840006CEC0BF000D03650D8B41200000E366E9F
:1018500000D074EC0DF019501A10D8A4FAD786965F
:1018600039C01CFF00D074EC0DF019501A10D8A428
:10187000FAD78686120012001B6E010E1C6E17D05E
:101880008296010E8FEC0DF01C501B140009D8B489
:1018900002D0828802D0829800D0010E8FEC0DF029
:1018A0008286010E8FEC0DF0D8901C3600D01C50B3
:1018B000D8A4E6D71200000E0001756F000E0001DB
:1018C000766F000E0001776FBBEC0DF0C1EC0DF0F0
:1018D0001EEC0DF00BEC0DF09CEC0DF065EC0DF03A
:1018E00000D01DEC0CF0ADEC0DF0FBD7A7EF00F035
:1018F000040EF2EC0AF0E806D8A403D0394A3A2ADA
:1019000000D0010EF2EC0AF0E806D8A403D0010ED4
:10191000366E00D0020EF2EC0AF0E806D8A41200EF
:101920003906D8A03A0612001200010E036E0350C9
:10193000D8B4120001D01200200E026E0250D8B4AA
:101940000DD001D00BD0020E016E0150D8B404D0DE
:1019500001D002D00106F9D70206F0D70306E7D777
:10196000120003D019681A6800D019C01BF01AC001
:101970001CF01B1E1C1E1B4A1C2AFF0E1B24196E6A
:10198000FF0E1C201A6E1A50D76E19C0D6FFF294A3
:10199000120003D00168026800D001C003F002C049
:1019A00004F0031E041E034A042AFF0E0324016EE2
:1019B000FF0E0420026E0250D76E01C0D6FFF294D3
:1019C0001200000E3E6E84B602D03E8000D084B479
:1019D00002D03E8200D083BC02D03E8400D084B8C6
:1019E00002D03E8600D083BE12003E881200120054
:1019F00021C019F022C01AF01B6A8E0E1C6E000E58
:101A00001D6E4DEC0AF019C021F01AC022F01BC067
:101A100023F0120012009496949830EC0DF042ECF2
:101A20000DF0440E3CEC0CF030EC0DF042EC0DF0FF
:101A30008F0E3CEC0CF030EC0DF01200D59CD59ADA
:101A4000D598D596D584D582D580000E1A6E010E14
:101A5000196EB1EC0CF0D58EF28AD09EF28E120087
:101A60008296010E8FEC0DF08298010E8FEC0DF036
:101A70008286010E8FEC0DF08288010E8FEC0DF046
:101A8000829612008296010E8FEC0DF08288010E74
:101A90008FEC0DF08286010E8FEC0DF08298010E16
:101AA0008FEC0DF0829612001F6E040E1F60120064
:101AB00042EC0DF01F50C00F3CEC0CF01E503CEC03
:101AC0000CF030EC0DF012001200000E1A6E0C0E2D
:101AD000196E6C0EB0EC0AF09882989498968686EF
:101AE000F10E0F01231712000F0121B305D0000ED4
:101AF0001A6E010E196E1200000E1A6E000E196E8B
:101B00001200120000EE2DF01B0EEE6AE806FDE159
:101B1000000EF86E100EF76E00015BEF0CF0196E00
:101B2000000E1A6E02D004D01A2A090E1A64FCD7CD
:101B3000192EF6D7120012009B0E196E300E1A6E77
:101B4000830ED0EC0BF09D9C1200C4501B6EC35052
:101B5000196E1BC01AF01200120039C020F03AC0F2
:101B600021F049EC09F01200C2A202D0010E1200CD
:101B7000000E120012001F0E9616848A848C848E2A
:101B800012001E0E9612C00E95121200C282120092
:020000040020DA
:08000000FFFFFFFFFFFFFFFF00
:020000040030CA
:0E0000001D037F7F018991FFFFC0FFE0FF40DD
:00000001FF
