:0400000068EF00F0B5
:10000800FACF0AF0FBCF0BF0E9CF0CF0EACF0DF0F6
:10001800E1CF0EF0E2CF0FF0D9CF10F0DACF11F028
:10002800F3CF12F0F4CF13F0F6CF14F0F7CF15F0AA
:10003800F8CF16F0F5CF17F0F2B4F2AA28D0849AC8
:100048006AEC00F0000E026E4E0E016E3EEC01F0FE
:10005800010E1D24016E000E1E20026E000E1F20D0
:10006800036E000E2020046E000E056ECA0E066E8A
:100078009A0E076E3B0E086ED3EC00F001C01DF01F
:1000880002C01EF003C01FF004C020F000D017C04B
:10009800F5FF16C0F8FF15C0F7FF14C0F6FF13C030
:1000A800F4FF12C0F3FF11C0DAFF10C0D9FF0FC070
:1000B800E2FF0EC0E1FF0DC0EAFF0CC0E9FF0BC074
:1000C800FBFF0AC0FAFF110073EF01F00BEC01F01F
:1000D80023A002D0292A00D023A202D02A2A00D0A5
:1000E80023A402D02B2A00D023A602D02C2A00D089
:1000F8002350D8A409D0000E296E000E2A6E000ED7
:100108002B6E000E2C6E1200050E296002D0000E18
:1001180006D0320E296002D0010E01D0030E246EE3
:1001280000D0050E2A6002D0000E06D0320E2A60DA
:1001380002D0010E01D0030E256E00D0050E2B60F3
:1001480002D0000E06D0320E2B6002D0010E01D074
:10015800030E266E00D0050E2C6002D0000E06D0CD
:10016800320E2C6002D0010E01D0030E276E00D093
:10017800000E286E2450D8B402D0288000D0255014
:10018800D8B402D0288200D02650D8B402D028840F
:1001980000D02750D8B4120028861200120005504B
:1001A800061007100810D8B429D0010E096E07D020
:1001B800D8900536063607360836092A00D008BE14
:1001C80002D0F6D700D00550015C065002580750FF
:1001D800035808500458D8A009D00550015E0650AD
:1001E800025A0750035A0850045A00D0D8900832CF
:1001F800073206320532092EE6D700D001C001F0D9
:1002080002C002F003C003F004C004F01200000EA4
:10021800236E82B402D0238002D0239000D082B60D
:1002280002D0238202D0239200D082B802D0238445
:1002380002D0239400D082BA02D0238612002396DB
:100248001200120003D01868196800D018C01AF0FC
:1002580019C01BF01A1E1B1E1A4A1B2AFF0E1A244D
:10026800186EFF0E1B20196E1950D76E18C0D6FFD6
:10027800F294120003D00168026800D001C003F0B4
:1002880002C004F0031E041E034A042AFF0E0324BE
:10029800016EFF0E0420026E0250D76E01C0D6FF19
:1002A800F2941200D59CD59AD598D596D584D58246
:1002B800D580000E196E010E186E26EC01F0D58E51
:1002C800F28AD09EF28E1200000E1C6E7CEC01F0B9
:1002D80085EC01F056EC01F0FFD768EF00F000EE76
:1002E8001DF0100EEE6AE806FDE1000168EF01F06E
:1002F800C30E9616010E976E848484868488848A39
:0803080012003C0E94121200D9
:020000040020DA
:08000000FFFFFFFFFFFFFFFF00
:020000040030CA
:0E0000001D037F7F018991FFFFC0FFE0FF40DD
:00000001FF
