:040000007FEF00F09E
:10000800FACF0AF0FBCF0BF0E9CF0CF0EACF0DF0F6
:10001800E1CF0EF0E2CF0FF0D9CF10F0DACF11F028
:10002800F3CF12F0F4CF13F0F6CF14F0F7CF15F0AA
:10003800F8CF16F0F5CF17F00A0E186EF2B4F2AA40
:100048003DD0010E3024016E000E3120026E000EEC
:100058003220036E000E3320046E000E056EE10E92
:10006800066EF50E076E050E086E34EC0CF001C036
:1000780030F002C031F003C032F004C033F0375022
:10008800D8A40DD012D00BD03A1E3A50D8B402D012
:10009800848E02D0849E00D02AEC0DF000D0180681
:1000A8001828D8B402D0F0D700D097EC0AF0000E88
:1000B800026E4E0E016E5EEC0DF000D017C0F5FF1B
:1000C80016C0F8FF15C0F7FF14C0F6FF13C0F4FF01
:1000D80012C0F3FF11C0DAFF10C0D9FF0FC0E2FF52
:1000E8000EC0E1FF0DC0EAFF0CC0E9FF0BC0FBFF2B
:0A00F8000AC0FAFF11000DEF0EF030
:10100000003F065B4F666D7D077F6F777C395E79A9
:10101000710072C024F073C025F074C026F0000E79
:10102000276EC80E286E420E296E7FEC09F024C090
:1010300072F025C073F026C074F072C019F073C04E
:101040001AF074C01BF016EC0AF019C028F01AC090
:1010500029F0000E2B6E0A0E2A6E7BEC0BF0010EAF
:101060002824F66E100E2920F76E0800F5CF2EF01A
:10107000030EFCEC0DF072C066F073C067F074C034
:1010800068F0000E0001696F200E00016A6F410ECA
:1010900000016B6FDCEC08F066C072F067C073F0A3
:1010A00068C074F072C019F073C01AF074C01BF0FD
:1010B00016EC0AF019C028F01AC029F0000E2B6EA9
:1010C0000A0E2A6E7BEC0BF0010E2824F66E100E31
:1010D0002920F76E0800F5CF2EF0020EFCEC0DF083
:1010E00072C066F073C067F074C068F0000E000153
:1010F000696F200E00016A6F410E00016B6FDCEC1E
:1011000008F066C072F067C073F068C074F072C017
:1011100019F073C01AF074C01BF016EC0AF019C075
:1011200028F01AC029F0000E2B6E0A0E2A6E7BECF6
:101130000BF0010E2824F66E100E2920F76E080021
:10114000F55080092E6E010EFCEC0DF072C066F0B9
:1011500073C067F074C068F0000E0001696F200E64
:1011600000016A6F410E00016B6FDCEC08F066C095
:1011700072F067C073F068C074F072C019F073C089
:101180001AF074C01BF016EC0AF019C028F01AC04F
:1011900029F0000E2B6E0A0E2A6E7BEC0BF0010E6E
:1011A0002824F66E100E2920F76E0800F5CF2EF0D9
:1011B000000EFCEC0DF0120068C02DF02E6A2F6AB4
:1011C000000167352D3601E32E802D500001706F30
:1011D00000017051D8A40AD0000E0001666F000E05
:1011E0000001676F000E0001686F12006BC02DF0E8
:1011F0002E6A2F6A00016A352D3601E32E802D50AC
:101200000001716F00017151D8A40AD0000E0001D5
:10121000666F000E0001676F000E0001686F12001C
:10122000000E00016D6F000E00016E6F000E0001D8
:101230006F6F00017151890F0001705F68C071F01C
:1012400000016B510001711B800E0001711700013C
:10125000678FFF0E00016617FF0E00016717000E73
:101260000001681700016A8FFF0E00016917FF0E69
:1012700000016A17000E00016B17180E00016C6F59
:1012800000D00001D8906D376E376F37000169517B
:101290000001665D00016A510001675900016B5150
:1012A00000016859D8A00ED0000169510001665FA5
:1012B00000016A510001675B00016B510001685B2E
:1012C00000016D810001D8906637673768370001EB
:1012D0006C2FD7D700D06DC019F06EC01AF06FC058
:1012E0001BF070C01CF071C01DF018EC0BF019C0A1
:1012F00066F01AC067F01BC068F01200120026C02A
:101300002AF02B6A2C6A25342A3601E32B802A50D6
:101310000001606F00016051D8A407D0000E246E58
:10132000000E256E000E266E120029C02AF02B6AD0
:101330002C6A28342A3601E32B802A500001656F7D
:1013400000016551D8A407D0000E246E000E256E52
:10135000000E266E1200000165517B0F0001602710
:1013600026C065F029500001651B800E000165173D
:10137000258E288EFF0E2716FF0E2816000E291622
:10138000000E0001616F000E0001626F000E00018F
:10139000636F070E0001646F00D024A00AD02750AD
:1013A00000016127285000016223295000016323B6
:1013B00000D0D890263225322432D89027362836CD
:1013C00029360001642FE9D700D0090E0001646FAF
:1013D00000D024A00AD02750000161272850000126
:1013E000622329500001632300D0D8902632253291
:1013F00024320001D8906333623361330001642FDB
:10140000E8D700D061C019F062C01AF063C01BF0C9
:1014100060C01CF065C01DF018EC0BF019C024F082
:101420001AC025F01BC026F0120012001BC01DF0D0
:101430001E6A1F6A1A341D3601E31E801D50276E76
:101440002750D8A409D0000E196E000E1A6E000E97
:101450001B6E000E1C6E1200170E1D6E19C01EF0C2
:101460001AC01FF01BC020F01D28216E04D0D89098
:1014700020321F321E32212EFAD71E50226E1A8EB3
:10148000FF0E1916FF0E1A16000E1B161950236EAA
:101490001A50246E1B50256E266A8E0E275E27AECC
:1014A00017D02750800A8F0FD8B00AD0000E196EBF
:1014B000000E1A6E000E1B6E000E1C6E120000D085
:1014C000D8902632253224322332273EF9D719D03C
:1014D000170E276411D0000E196E000E1A6E000E42
:1014E0001B6E000E1C6E120007D0D89023362436D7
:1014F00025362636270600D02750D8B402D0F5D797
:1015000000D02250D8B409D0261E251E241E236CDC
:10151000000E24222522262200D023C019F024C048
:101520001AF025C01BF026C01CF01200120076EC49
:101530000DF03CA002D0422A00D03CA202D0432AA7
:1015400000D03CA402D0442A00D03CA602D0452AB8
:1015500000D03CA802D0462A00D03C50D8A40BD0E2
:10156000000E426E000E436E000E446E000E456E7D
:10157000000E466E1200050E426002D0000E06D02C
:10158000320E426002D0010E01D0030E3D6E00D03B
:10159000050E436002D0000E06D0320E436002D02A
:1015A000010E01D0030E3E6E00D0050E446002D045
:1015B000000E06D0320E446002D0010E01D0030EA0
:1015C0003F6E00D0050E456002D0000E06D0320EF0
:1015D000456002D0010E01D0030E406E00D0050E12
:1015E000466002D0000E06D0320E466002D0010ED8
:1015F00001D0030E416E00D0000E416E3D50D8B4B4
:1016000002D0418000D03E50D8B402D0418200D0F8
:101610003F50D8B402D0418400D04050D8B402D05A
:10162000418600D04150D8B4120041881200120007
:101630001C50D8B405D019501A101B10D8A40ED0C5
:10164000000E196E000E1A6E000E1B6E120006D0F0
:101650001C2AD8901B321A32193200D0000E1914ED
:101660001E6E000E1A141F6EFE0E1B14206E1E50EE
:101670001F102010D8B40ED0EBD70CD01C2A010EAE
:101680001926000E1A22000E1B22D8901B321A3285
:10169000193200D0000E19141E6E000E1A141F6E9F
:1016A000FF0E1B14206E1E501F102010D8B408D03F
:1016B000E5D706D01C06D89019361A361B3600D04E
:1016C0001ABE04D0020E1C60F5D700D01CB002D0A8
:1016D0001A9E00D0D8901C321C501B121D50D8B43A
:1016E00002D01B8E00D019C019F01AC01AF01BC00E
:1016F0001BF012001200000E2D6E29AE07D0286CD0
:10170000291ED8B0292A010E2D6E00D02BAE05D08F
:101710002A6C2B1ED8B02B2A00D02A502B10D8B4FC
:101720001DD0010E2C6E05D0D8902A362B362C2ACF
:1017300000D02BBE02D0F8D700D02A50285C2B5006
:101740002958D8A005D02A50285E2B50295A00D0FD
:10175000D8902B322A322C2EF0D700D02D50D8B46E
:1017600005D0286C291ED8B0292A00D028C028F01E
:1017700029C029F0120012001E6E1E28D8B42DD0E8
:101780003C50D8A428D0FF0E196EFF0E1A6E1E50C2
:101790001B6E1C6A19501B261A501C223D0E1B245E
:1017A000D96E000E1C20DA6EDF501D6EFF0E196E12
:1017B000FF0E1A6E1E501B6E1C6A19501B261A5003
:1017C0001C223D0E1B24D96E000E1C20DA6E000E6A
:1017D000DF6E1D501200040E12001E28D8A4120045
:1017E0003C50D8A406D041C01DF0000E416E1D50E3
:1017F0001200040E120012001D501E101F102010A7
:10180000D8B429D0010E216E07D0D8901D361E36CF
:101810001F362036212A00D020BE02D0F6D700D0B5
:101820001D50195C1E501A581F501B5820501C5830
:10183000D8A009D01D50195E1E501A5A1F501B5AAD
:1018400020501C5A00D0D89020321F321E321D3238
:10185000212EE6D700D019C019F01AC01AF01BC00B
:101860001BF01CC01CF012000550061007100810D9
:10187000D8B429D0010E096E07D0D89005360636A7
:1018800007360836092A00D008BE02D0F6D700D0A5
:101890000550015C06500258075003580850045880
:1018A000D8A009D00550015E0650025A0750035ACD
:1018B0000850045A00D0D890083207320632053258
:1018C000092EE6D700D001C001F002C002F003C02B
:1018D00003F004C004F0120053EC0EF000D041EC11
:1018E0000EF00009D8A4FBD7120E276E830E286EC7
:1018F000400E296E39EC0EF019C021F01AC022F00A
:101900008DEC0DF021C024F022C025F023C026F07C
:101910007FEC09F024C066F025C067F026C068F0AF
:10192000F00E0001696F7F0E00016A6F450E000125
:101930006B6FDCEC08F066C034F067C035F068C04F
:1019400036F012001D6E000EC26E000EC16E000E4B
:10195000C06E19507C0BC26E1AC0C1FF1DC01BF0B7
:10196000D8901B36D8901B36380E1B161DC01CF0A5
:101970001C3A0F0E1C16070E1C161D50800B1C1057
:101980001B10C06E19AE03D09E9C9D8CF28CC28041
:1019900012003850D8A46CEC0CF030C019F031C0F3
:1019A0001AF032C01BF033C01CF0E80E1D6E030E9F
:1019B0001E6E000E1F6E000E206EFCEC0BF0195018
:1019C0001A101B101C10D8A41200391E3950D8B49C
:1019D00002D0849A1200848A120012001B6E010E3B
:1019E0001C6E17D08296010E1AEC0EF01C501B14C0
:1019F0000009D8B402D0828802D0829800D0010EAB
:101A00001AEC0EF08286010E1AEC0EF0D8901C36FD
:101A100000D01C50D8A4E6D71200000E0001756F4C
:101A2000000E0001766F000E0001776F48EC0EF09B
:101A30004EEC0EF0C6EC0DF0B3EC0DF030EC0EF009
:101A400000D0A0EC0DF0C9EC0CF027EC0EF0F9D7AB
:101A50007FEF00F0010E036E0350D8B4120001D0E6
:101A60001200200E026E0250D8B40DD001D00BD05F
:101A7000020E016E0150D8B404D001D002D001068C
:101A8000F9D70206F0D70306E7D7120003D019688A
:101A90001A6800D019C01BF01AC01CF01B1E1C1EB7
:101AA0001B4A1C2AFF0E1B24196EFF0E1C201A6EE7
:101AB0001A50D76E19C0D6FFF294120003D00168F5
:101AC000026800D001C003F002C004F0031E041E2F
:101AD000034A042AFF0E0324016EFF0E0420026E47
:101AE0000250D76E01C0D6FFF2941200000E3C6E79
:101AF00084B602D03C8000D084B402D03C8200D0B6
:101B000083BC02D03C8400D084B802D03C8600D094
:101B100083BE12003C881200120021C019F022C0BE
:101B20001AF01B6A8E0E1C6E000E1D6E18EC0BF068
:101B300019C021F01AC022F01BC023F012001200BD
:101B4000010EBCEC0BF0E806D8A404D03850FF0A14
:101B5000386E00D0040EBCEC0BF0E806D8A41200DE
:101B6000371E1200120094969498D8EC0DF0EAEC0F
:101B70000DF0440EEEEC0CF0D8EC0DF0EAEC0DF0AC
:101B80008F0EEEEC0CF0D8EC0DF01200D59CD59A2F
:101B9000D598D596D584D582D580000E1A6E010EC3
:101BA000196E46EC0DF0D58EF28AD09EF28E1200A0
:101BB0008296010E1AEC0EF08298010E1AEC0EF0CD
:101BC0008286010E1AEC0EF08288010E1AEC0EF0DD
:101BD000829612008296010E1AEC0EF08288010E97
:101BE0001AEC0EF08286010E1AEC0EF08298010EAD
:101BF0001AEC0EF0829612002F6E040E2F60120067
:101C0000EAEC0DF02F50C00FEEEC0CF02E50EEEC85
:101C10000CF0D8EC0DF01200120000EE30F0160EB1
:101C2000EE6AE806FDE1000EF86E100EF76E000198
:101C30000DEF0DF0196E000E1A6E02D004D01A2AA4
:101C4000090E1A64FCD7192EF6D71200120034C000
:101C500072F035C073F036C074F009EC08F0120071
:101C60009B0E196E300E1A6E830EA2EC0CF09D9C2A
:101C70001200C4501B6EC350196E1BC01AF0120024
:101C80001200C2A202D0010E1200000E12001200B9
:101C90001F0E9616849A849C849E12001E0E961225
:0A1CA000C00E95121200C28212005D
:020000040020DA
:08000000FFFFFFFFFFFFFFFF00
:020000040030CA
:0E0000001D037F7F018991FFFFC0FFE0FF40DD
:00000001FF
