:04000000B7EF00F066
:10000800FACF0AF0FBCF0BF0E9CF0CF0EACF0DF0F6
:10001800E1CF0EF0E2CF0FF0D9CF10F0DACF11F028
:10002800F3CF12F0F4CF13F0F6CF14F0F7CF15F0AA
:10003800F8CF16F0F5CF17F0F2A453D0010E2C2408
:10004800016E000E2D20026E000E2E20036E000E93
:100058002F20046E000E056E000E066E000E076E51
:10006800000E086EA8EC07F001C02CF002C02DF0BD
:1000780003C02EF004C02FF0000E026E4E0E016E6B
:1000880006EC0AF02CC001F02DC002F02EC003F0DF
:100098002FC004F01E0E056E000E066E000E076ED1
:1000A800000E086EA8EC07F00150021003100410AF
:1000B800D8A410D03A1E3A50D8B406D0010E016E1A
:1000C800030E37EC09F006D0000E016E030E37EC74
:1000D80009F000D03050D8A483EC0AF076EC08F090
:1000E80000D09EAA23D0AECF18F03D50D8A41ED081
:1000F8001828D8A404D00A0E386E000E396E39506C
:10010800D8A40CD038063850010DDA0EF324D96E75
:10011800000EF420DA6E18C0DFFF00D03850D8A4E3
:1001280005D0010E3D6E010E396E00D017C0F5FFE7
:1001380016C0F8FF15C0F7FF14C0F6FF13C0F4FF90
:1001480012C0F3FF11C0DAFF10C0D9FF0FC0E2FFE1
:100158000EC0E1FF0DC0EAFF0CC0E9FF0BC0FBFFBA
:100168000AC0FAFF11007BEF09F03D04D8A4120081
:10017800FF0E0101006FFF0E0101016F2B500101FD
:10018800026F036B010100510101022701010151B6
:1001980001010323010102512924D96E01010351F0
:1001A8002A20DA6EAA0EDE18D8B403D0000E3D6EEF
:1001B800120020EE01F02950D9262A50DA22DF5009
:1001C8000101056F29C0D9FF2AC0DAFFDF500101FC
:1001D800066F29C026F02AC027F00A0E286EF9EC0F
:1001E80003F020EE01F02950D9262A50DA22010125
:1001F8000551DE18D8B403D0000E3D6E120029C098
:10020800D9FF2AC0DAFF01010651DE18D8B403D09D
:10021800000E3D6E1200FE0E0101006FFF0E01017F
:10022800016F2B500101026F036B010100510101A5
:10023800022701010151010103230101025129246F
:10024800D96E010103512A20DA6EDE04D8B420D019
:10025800FE0E0101006FFF0E0101016F2B5001011D
:10026800026F036B010100510101022701010151D5
:1002780001010323010102512924D96E010103510F
:100288002A20DA6EDE28D8B403D0000E3D6E1200A4
:10029800FD0E0101006FFF0E0101016F2B500101DE
:1002A800026F036B01010051010102270101015195
:1002B80001010323010102512924D96E01010351CF
:1002C8002A20DA6EDF500101076F100E0101076165
:1002D8000FD001010751070D050EF326000EF42279
:1002E8006A0EF324D96E000EF420DA6E000E25D0C3
:1002F800200E010107610FD001010751070D050EFE
:10030800F326000EF4226A0EF324D96E000EF420B0
:10031800DA6E010E12D0300E0101076110D0010112
:100328000751070D050EF326000EF4226A0EF3247A
:10033800D96E000EF420DA6E020EDF6E00D0FC0ECD
:100348000101006FFF0E0101016F2B500101026FC7
:10035800036B010100510101022701010151010153
:100368000323010102512924D96E010103512A20D6
:10037800DA6E01010751070D6A0EF324E16E000ED3
:10038800F420E26EDFCFE7FFFB0E0101006FFF0EE6
:100398000101016F2B500101026F036B0101005134
:1003A8000101022701010151010103230101025149
:1003B8002924D96E010103512A20DA6E010107515F
:1003C800070D040EF326000EF4226A0EF324E16EE4
:1003D800000EF420E26EDFCFE7FFFA0E0101006F96
:1003E800FF0E0101016F2B500101026F036B010128
:1003F80000510101022701010151010103230101FB
:1004080002512924D96E010103512A20DA6E010113
:100418000751070D030EF326000EF4226A0EF3248B
:10042800E16E000EF420E26EDFCFE7FFF90E010166
:10043800006FFF0E0101016F2B500101026F036B6A
:1004480001010051010102270101015101010323AA
:10045800010102512924D96E010103512A20DA6EC3
:1004680001010751070D020EF326000EF4226A0E51
:10047800F324E16E000EF420E26EDFCFE7FFF80E02
:100488000101006FFF0E0101016F2B500101026F86
:10049800036B010100510101022701010151010112
:1004A8000323010102512924D96E010103512A2095
:1004B800DA6E01010751070D010EF326000EF42232
:1004C8006A0EF324E16E000EF420E26EDFCFE7FF40
:1004D80001010751070D060EF326000EF4226A0EDD
:1004E800F324D96E000EF420DA6E010EDF6E000ED2
:1004F8003D6E12001200060E1E6E72D00001C5512C
:10050800D8A44AD01E50020DC80EF324D96E000E8E
:10051800F420DA6E010EDB5004E1060EDE5CD8A092
:1005280024D01E50020DC80EF324D96E000EF420FC
:10053800DA6E010EDB5004E13D0EDE5CD8A00AD075
:100548001E50010DBF0EF324D96E000EF420DA6E92
:10055800050E14D01E50010DBF0EF324D96E000EE7
:10056800F420DA6E010EDF6E0AD01E50010DBF0EA8
:10057800F324D96E000EF420DA6E000EDF6E1E50E2
:10058800020DC80EF324D96E000EF420DA6E000EA8
:10059800DE6E000EDD6E24D01E50020DC80EF32450
:1005A800D96E000EF420DA6E010EDB5004E13D0E28
:1005B800DE5CD8A00AD01E50010DBF0EF324D96E00
:1005C800000EF420DA6E030E09D01E50010DBF0E86
:1005D800F324D96E000EF420DA6E040EDF6E00D01C
:1005E8001E061E28D8A48AD7000E1E6E040E1E648E
:1005F80002D0120012001E281D6E050E1D6401D0C7
:1006080045D01D50010DBF0EF324D96E000EF42005
:10061800DA6E1E50010DBF0EF324E16E000EF420B9
:10062800E26EDE50E618D8A42FD01E50010DBF0E82
:10063800F324D96E000EF420DA6EDF50D8B424D03B
:100648001DC019F0010E1A6E192A02D0D8901A3658
:10065800192EFCD71EC01BF0010E1C6E1B2A02D0DF
:10066800D8901C361B2EFCD71C501A100001B16FF5
:100678001E50010DBF0EF324D96E000EF420DA6E61
:10068800DF500001B26F00D01D2AB7D71E2A040E12
:100698001E64B1D71200120002C1FDF00001FE6B0A
:1006A800FF6B010101350001FD3701E3FE81000107
:1006B800FD5101010A6F01010A51D8A40AD0000EA8
:1006C8000101006F000E0101016F000E0101026FB0
:1006D800120005C1FDF00001FE6BFF6B010104353E
:1006E8000001FD3701E3FE810001FD5101010B6F9F
:1006F80001010B51D8A40AD0000E0101006F000EB1
:100708000101016F000E0101026F1200000E0101CC
:10071800076F000E0101086F000E0101096F01014A
:100728000B51890F01010A5F02C10BF1010105514B
:1007380001010B1B800E01010B170101018FFF0E38
:1007480001010017FF0E01010117000E0101021738
:100758000101048FFF0E01010317FF0E01010417A9
:10076800000E01010517180E0101066F00D00101E6
:10077800D890073708370937010103510101005D97
:1007880001010451010101590101055101010259F9
:10079800D8A00ED0010103510101005F01010451ED
:1007A8000101015B010105510101025B01010781A2
:1007B8000101D8900037013702370101062FD7D73A
:1007C80000D007C119F008C11AF009C11BF00AC10D
:1007D8001CF00BC11DF02DEC06F019C000F11AC079
:1007E80001F11BC002F112001200000E0001F96FA6
:1007F800000EFA6F000EFB6F000EFC6F020E000178
:10080800FD6F43D00001FD51010DF3502624D96E30
:10081800F4502720DA6EDF500001F46F0001F45124
:100828000001FD03F3CFF5F0F4CFF6F0000E000160
:10083800F6BFFF0EF76FF86F0001F9510001F525BB
:10084800196E0001FA510001F6211A6E0001FB51E0
:100858000001F7211B6E0001FC510001F8211C6EFC
:10086800FF0E1D6EFF0E1E6E000E1F6E000E206E18
:1008780070EC07F019C0F9F01AC0FAF01BC0FBF0D1
:100888001CC0FCF00001FD2B00D028500001FD5DCC
:10089800D8A0B8D720EE01F02650D9262750DA2262
:1008A800F9C019F0FAC01AF0FBC01BF0FCC01CF02C
:1008B800FF0E1D6E000E1E6E000E1F6E000E206EC7
:1008C8002AEC07F01950DF6EF9C019F0FAC01AF0D7
:1008D800FBC01BF0FCC01CF0FF0E1D6E000E1E6E50
:1008E800000E1F6E000E206E70EC07F0195026C027
:1008F800D9FF27C0DAFFDF6E20EE01F02650D92697
:100908002750DA22DE28D8A407D020EE01F026509E
:10091800D9262750DA22DF0626C0D9FF27C0DAFFFA
:10092800DE28D8A4120026C0D9FF27C0DAFFDF06C8
:100938001200120026C0F4F00001F56BF66B2534A6
:100948000001F43701E3F5810001F4510001F76F6C
:100958000001F751D8A407D0000E246E000E256EB2
:10096800000E266E120029C0F4F00001F56BF66B3C
:1009780028340001F43701E3F5810001F451000146
:10098800FC6F0001FC51D8A407D0000E246E000EA5
:10099800256E000E266E12000001FC517B0F00012F
:1009A800F72726C0FCF029500001FC1B800E00012F
:1009B800FC17258E288EFF0E2716FF0E2816000E10
:1009C8002916000E0001F86F000E0001F96F000EE5
:1009D8000001FA6F070E0001FB6F00D024A00AD0B7
:1009E80027500001F82728500001F9232950000159
:1009F800FA2300D0D890263225322432D8902736D0
:100A0800283629360001FB2FE9D700D0090E00014E
:100A1800FB6F00D024A00AD027500001F8272850E7
:100A28000001F92329500001FA2300D0D89026327A
:100A3800253224320001D890FA33F933F833000113
:100A4800FB2FE8D700D0F8C019F0F9C01AF0FAC0A7
:100A58001BF0F7C01CF0FCC01DF02DEC06F019C00F
:100A680024F01AC025F01BC026F01200120020C086
:100A780019F021C01AF0000E1C6E0A0E1B6ECAEC8B
:100A880008F0E40E1924D96E000E1A20DA6EDF5031
:100A98001E6E030ECCEC0AF020C019F021C01AF02B
:100AA800000E1C6E0A0E1B6E48EC08F019C020F0F0
:100AB8001AC021F020C019F021C01AF0000E1C6ED7
:100AC8000A0E1B6ECAEC08F0E40E1924D96E000E4B
:100AD8001A20DA6EDF501E6E020ECCEC0AF020C02F
:100AE80019F021C01AF0000E1C6E0A0E1B6E48EC9D
:100AF80008F019C020F01AC021F020C019F021C058
:100B08001AF0000E1C6E0A0E1B6ECAEC08F0E40EFA
:100B18001924D96E000E1A20DA6EDF501E6E010EEF
:100B2800CCEC0AF020C019F021C01AF0000E1C6E9F
:100B38000A0E1B6E48EC08F019C020F01AC021F00C
:100B480020C019F021C01AF0000E1C6E0A0E1B6E90
:100B5800CAEC08F0E40E1924D96E000E1A20DA6ED9
:100B6800DF501E6E000ECCEC0AF012007FEC02F093
:100B78000001BF05D8A402D03C2A00D0030E000112
:100B8800BF19D8A402D03C2A00D00001C005D8A4BF
:100B980003D03350FF0A336E0001C105D8A402D038
:100BA8003C0600D0030E0001C119D8A402D03C06AF
:100BB80000D00001C205D8A40AD03C50010D3E0E59
:100BC800F324D96E000EF420DA6EDF2A00D0030E6B
:100BD8000001C219D8A40AD03C50010D3E0EF324DE
:100BE800D96E000EF420DA6EDF2A00D00001C305AA
:100BF800D8A403D0010E326E00D00001C405D8A4D9
:100C08000AD03C50010D3E0EF324D96E000EF4209C
:100C1800DA6EDF0600D0030E0001C419D8A40AD08A
:100C28003C50010D3E0EF324D96E000EF420DA6E0E
:100C3800DF0600D0FA0E3C6402D0090E05D00A0E79
:100C4800196E3C50D5EC09F03C6E00D0F0EC08F081
:100C580012001C50D8B405D019501A101B10D8A473
:100C68000ED0000E196E000E1A6E000E1B6E1200CA
:100C780006D01C2AD8901B321A32193200D0000E26
:100C880019141E6E000E1A141F6EFE0E1B14206E11
:100C98001E501F102010D8B40ED0EBD70CD01C2A31
:100CA800010E1926000E1A22000E1B22D8901B32A4
:100CB8001A32193200D0000E19141E6E000E1A14C2
:100CC8001F6EFF0E1B14206E1E501F102010D8B46C
:100CD80008D0E5D706D01C06D89019361A361B3628
:100CE80000D01ABE04D0020E1C60F5D700D01CB08C
:100CF80002D01A9E00D0D8901C321C501B121D50D6
:100D0800D8B402D01B8E00D019C019F01AC01AF03E
:100D18001BC01BF0120012002B062B50010DF350C4
:100D28002924D96EF4502A20DA6EFF0EDF6E29C00E
:100D380026F02AC027F00A0E286EF9EC03F000D03E
:100D4800ACA2FED782902B50010DF3502924D96E06
:100D5800F4502A20DA6EDF50AD6E00D0ACB225D048
:100D6800FDD723D02B50010DF3502924D96EF45010
:100D78002A20DA6EDE28D8A409D02B50010DF350B2
:100D88002924D96EF4502A20DA6EDF062B50010D83
:100D9800F3502924D96EF4502A20DA6EDF50AD6E54
:100DA80000D0ACB202D0FDD700D02B062B28D8A497
:100DB800D9D7828012003350D8B421D03CC019F062
:100DC8001A6A030E1C6EE80E1B6E49EC0AF03C50C2
:100DD800010D3E0EF324D96E000EF420DA6EDF50BA
:100DE800226E22501924206E000E1A20216E3BEC30
:100DF80005F0010E196E010E15EC09F021D03CC06A
:100E080019F01A6A030E1C6EE80E1B6E49EC0AF004
:100E18003C50010DDA0EF324D96E000EF420DA6E80
:100E2800DF50226E22501924206E000E1A20216EE7
:100E38003BEC05F0000E196E010E15EC09F000D020
:100E48003BC01EF0040ECCEC0AF01200000E216E1E
:100E5800000E226E000E236E000E246E1D501E1012
:100E68001F102010D8B42FD0010E256E07D0D890AF
:100E78001D361E361F362036252A00D020BE02D049
:100E8800F6D700D0D89021362236233624361D5086
:100E9800195C1E501A581F501B5820501C58D8A0B7
:100EA8000AD01D50195E1E501A5A1F501B5A205046
:100EB8001C5A218000D0D89020321F321E321D3299
:100EC800252EE0D700D021C019F022C01AF023C087
:100ED8001BF024C01CF012001D501E101F10201003
:100EE800D8B429D0010E216E07D0D8901D361E36F1
:100EF8001F362036212A00D020BE02D0F6D700D0D7
:100F08001D50195C1E501A581F501B5820501C5851
:100F1800D8A009D01D50195E1E501A5A1F501B5ACE
:100F280020501C5A00D0D89020321F321E321D3259
:100F3800212EE6D700D019C019F01AC01AF01BC02C
:100F48001BF01CC01CF012000550061007100810FA
:100F5800D8B429D0010E096E07D0D89005360636C8
:100F680007360836092A00D008BE02D0F6D700D0C6
:100F78000550015C065002580750035808500458A1
:100F8800D8A009D00550015E0650025A0750035AEE
:100F98000850045A00D0D890083207320632053279
:100FA800092EE6D700D001C001F002C002F003C04C
:100FB80003F004C004F0120030EC0BF000D029EC70
:100FC8000BF00009D8A4FBD7120E276E830E286EEB
:100FD800400E296E21EC0BF019C021F01AC022F046
:100FE8005DEC0AF021C024F022C025F023C026F0D1
:100FF8009EEC04F024C000F125C001F126C002F1E6
:10100800F00E0101036F7F0E0101046F450E01010F
:10101800056F50EC03F000C134F001C135F002C196
:1010280036F012001B6E000EAC6E000EAB6E1BA0ED
:1010380002D0AC8800D01BA203D0AC8CAB8C00D003
:101048001BA402D0AC8E00D01BA602D0AB8802D065
:10105800AB8A00D01BA802D0AC8400D01BAA02D057
:10106800AB8600D01BAC02D09D8A02D09D9A00D0DE
:101078001BAE02D09D8801D09D9819C0AFFF1A50B1
:10108800D46EAC8AAB8E1200000E1E6E000E1D6E62
:101098001B501C10D8B421D0010E1F6E05D0D8905B
:1010A8001B361C361F2A00D01CBE02D0F8D700D031
:1010B800D8901D361E361B50195C1C501A58D8A0E3
:1010C80006D01B50195E1C501A5A1D8000D0D890AB
:1010D8001C321B321F2EECD700D01DC019F01EC0C9
:1010E8001AF0120059EC09F00001C5A104D0000162
:1010F800C84BC92B00D00001C5A304D00001CA4BBE
:10110800CB2B00D00001C5A504D00001CC4BCD2BC2
:1011180000D00001C5A704D00001CE4BCF2B00D0D2
:101128000001C5A904D00001D04BD12B00D000018B
:10113800C5AB12000001D24BD32B120012001D6E5A
:10114800000EC26E000EC16E000EC06E19507C0BF0
:10115800C26E1AC0C1FF1DC01BF0D8901B36D890B4
:101168001B36380E1B161DC01CF01C3A0F0E1C1621
:10117800070E1C161D50800B1C101B10C06E19AEDC
:1011880003D09E9C9D8CF28CC28012001B501C10B8
:10119800D8B41DD0010E1D6E05D0D8901B361C3654
:1011A8001D2A00D01CBE02D0F8D700D01B50195CF5
:1011B8001C501A58D8A005D01B50195E1C501A5A3A
:1011C80000D0D8901C321B321D2EF0D700D019C089
:1011D80019F01AC01AF01200000E0001B06F000ECC
:1011E8000001B16F040E196E17D01950020DB30E1D
:1011F800F324D96E000EF420DA6E000EDE6E000EB7
:10120800DD6E1950010DBF0EF324D96E000EF420C7
:10121800DA6E000EDF6E00D019061928D8A4E5D7BB
:1012280012001A6E1A04D8A407D01950D8B402D0E4
:101238003B8002D03B9000D0020E1A18D8A407D0E9
:101248001950D8B402D03B8202D03B9200D0030E92
:101258001A18D8A412001950D8B402D03B8412002E
:101268003B9412001200026E0204D8A407D0015069
:10127800D8B402D03B8002D03B9000D0020E0218B6
:10128800D8A407D00150D8B402D03B8202D03B92F8
:1012980000D0030E0218D8A412000150D8B402D00E
:1012A8003B8412003B9412001200000E0001C56F2F
:1012B80082B203D00001C58100D085B203D00001FD
:1012C800C58300D085B403D00001C58500D080B89F
:1012D80003D00001C58700D080BA03D00001C589BA
:1012E80000D085B612000001C58B1200120000EE76
:1012F80060F0840EEE6AE806FDE100EE2CF01C0EAC
:10130800EE6AE806FDE1320EF66E160EF76E000E76
:10131800F86E00EEE4F010EE10F00900F5CFEEFFE5
:10132800E550E150FAE100011EEF0AF01B6E010ED4
:101338001C6E17D0839C010EECEC0AF01C501B1499
:101348000009D8B402D0838A02D0839A00D0010E53
:10135800ECEC0AF0838C010EECEC0AF0D8901C3609
:1013680000D01C50D8A4E6D71200010E036E03501B
:10137800D8B4120001D01200200E026E0250D8B468
:101388000DD001D00BD0020E016E0150D8B404D09C
:1013980001D002D00106F9D70206F0D70306E7D735
:1013A80012001A6E080E1B6E000E1C6E00D0D8902C
:1013B8001A341C341C6ED8901A3619501C5CD8A0EC
:1013C80003D019501C5E00D01B2EF1D700D01C5042
:1013D8001200120003D019681A6800D019C01BF057
:1013E8001AC01CF01B1E1C1E1B4A1C2AFF0E1B24A5
:1013F800196EFF0E1C201A6E1A50D76E19C0D6FF30
:10140800F294120003D00168026800D001C003F012
:1014180002C004F0031E041E034A042AFF0E03241C
:10142800016EFF0E0420026E0250D76E01C0D6FF77
:10143800F294120032EC0BF0DDEC0AF096EC0AF0B4
:1014480070EC0AF010EC0BF0F9EC0AF000D005ECA7
:101458000BF034EC0AF0DFEC06F0F9D7B7EF00F048
:101468003150D8B403D0E0EC07F000D03250D8B4F3
:101478001200000E326E3E0E296E000E2A6E0A0E03
:101488002B6E90EC06F01200120019501B02F3CFDD
:101498001DF0F4CF1EF019501C02F3501E261A50EE
:1014A8001B02F3501E261DC019F01EC01AF01200B0
:1014B800120021C019F022C01AF01B6A8E0E1C6E91
:1014C800000E1D6E2DEC06F019C021F01AC022F096
:1014D8001BC023F012001200959A959CA8EC0AF004
:1014E800BAEC0AF0440E9AEC09F0A8EC0AF0BAEC4F
:1014F8000AF08F0E9AEC09F0A8EC0AF012000A0E16
:10150800046E0BD0371E3750D8B402D0848E02D068
:10151800849E00D0B9EC09F000D004060428D8A4B1
:10152800F1D71200D59CD59AD598D596D584D58271
:10153800D580000E1A6E010E196EEEEC09F0D58EEC
:10154800F28AD09EF28E1200839C010EECEC0AF017
:10155800839A010EECEC0AF0838C010EECEC0AF095
:10156800838A010EECEC0AF0839C1200839C010E26
:10157800ECEC0AF0838A010EECEC0AF0838C010E85
:10158800ECEC0AF0839A010EECEC0AF0839C120052
:101598001F6E100E1F601200BAEC0AF01F50C00F29
:1015A8009AEC09F01E509AEC09F0A8EC0AF0120027
:1015B80012009482978297849288928A97860F0164
:1015C80025990F01259D0F01259F0F0124911200D8
:1015D800196E000E1A6E02D004D01A2A090E1A6467
:1015E800FCD7192EF6D712001200000E1A6E0C0E38
:1015F800196E6C0E16EC08F0948E949C9490828070
:101608001200BAEC05F0DA0E296E000E2A6E0A0EE8
:101618002B6EB9EC00F012009B0E196E300E1A6E8C
:10162800830EA3EC08F09D9C12003F065B4F666D8D
:101638007D077F6F777C395E7971C4501B6EC3500C
:10164800196E1BC01AF012001200C2A202D0010EBD
:0E1658001200000E12001200C28212001200D8
:020000040020DA
:08000000FFFFFFFFFFFFFFFF00
:020000040030CA
:0E00000015037F7C018991FFFFC0FFE0FF40E8
:00000001FF
