:04000000D3EF00F04A
:10000800FACF0AF0FBCF0BF0E9CF0CF0EACF0DF0F6
:10001800E1CF0EF0E2CF0FF0D9CF10F0DACF11F028
:10002800F3CF12F0F4CF13F0F6CF14F0F7CF15F0AA
:10003800F8CF16F0F5CF17F00A0E186EF2B4F2AA40
:1000480064D0010E3724016E000E3820026E000EB7
:100058003920036E000E3A20046E000E056EE10E84
:10006800066EF50E076E050E086E30EC0CF001C03A
:1000780037F002C038F003C039F004C03AF04050FD
:10008800D8A402D03F0600D03350D8A40DD012D047
:100098000BD0411E4150D8B402D0848E02D0849E29
:1000A80000D0F4EC0DF000D018061828D8B402D00F
:1000B800F0D700D037C001F038C002F039C003F0E3
:1000C8003AC004F01E0E056E000E066E000E076E96
:1000D800000E086E30EC0CF00150021003100410F2
:1000E800D8A408D0421E4250D8B402D0849A02D074
:1000F800848A00D050EC0DF087EC0AF0000E026EF6
:100108004E0E016E41EC0EF000D0A4AA2BD03F5049
:10011800D8A403D0000E406E00D04050010D8E0EC2
:10012800F324D96E000EF420DA6E1DCFDFFFAA0E7D
:1001380000018E19D8A404D0402A020E3F6E00D0C8
:100148000A0E4018D8A40ED0010E456E000E406E5F
:100158003E50D8B403D0849C000E02D0848C010E8B
:100168003E6E00D017C0F5FF16C0F8FF15C0F7FFA8
:1001780014C0F6FF13C0F4FF12C0F3FF11C0DAFF7A
:1001880010C0D9FF0FC0E2FF0EC0E1FF0DC0EAFFAB
:100198000CC0E9FF0BC0FBFF0AC0FAFF110082EF99
:0201A8000EF057
:10100000003F065B4F666D7D077F6F777C395E79A9
:101010007100050E066E72D000016A51D8A44AD044
:101020000650020D6D0EF324D96E000EF420DA6E18
:10103000010EDB5004E1060EDE5CD8A024D0065081
:10104000020D6D0EF324D96E000EF420DA6E010E3F
:10105000DB5004E13D0EDE5CD8A00AD00650010D45
:10106000890EF324D96E000EF420DA6E050E14D02A
:101070000650010D890EF324D96E000EF420DA6EAD
:10108000010EDF6E0AD00650010D890EF324D96ED1
:10109000000EF420DA6E000EDF6E0650020D6D0EAB
:1010A000F324D96E000EF420DA6E000EDE6E000E10
:1010B000DD6E24D00650020D6D0EF324D96E000EA5
:1010C000F420DA6E010EDB5004E13D0EDE5CD8A0A8
:1010D0000AD00650010D890EF324D96E000EF420BB
:1010E000DA6E030E09D00650010D890EF324D96E75
:1010F000000EF420DA6E040EDF6E00D0060606281D
:10110000D8A48AD7000E066E030E066402D0120021
:1011100012000628056E040E056401D045D0055066
:10112000010D890EF324D96E000EF420DA6E0650FC
:10113000010D890EF324E16E000EF420E26EDE5004
:10114000E618D8A42FD00650010D890EF324D96ECD
:10115000000EF420DA6EDF50D8B424D005C001F0C0
:10116000010E026E012A02D0D8900236012EFCD761
:1011700006C003F0010E046E032A02D0D890043694
:10118000032EFCD70450021000017D6F0650010DA4
:10119000890EF324D96E000EF420DA6EDF500001C0
:1011A0007E6F00D0052AB7D7062A030E0664B1D792
:1011B00012001200A4C0A8F00001A96BAA6B0001E4
:1011C000A3350001A83701E3A9810001A85100015E
:1011D000AF6F0001AF51D8A40AD0000E0001A26F7A
:1011E000000E0001A36F000E0001A46F1200A7C043
:1011F000A8F00001A96BAA6B0001A6350001A83771
:1012000001E3A9810001A8510001B06F0001B051B4
:10121000D8A40AD0000E0001A26F000E0001A36F37
:10122000000E0001A46F1200000E0001AC6F000E52
:101230000001AD6F000E0001AE6F0001B051890FCB
:101240000001AF5FA4C0B0F00001A7510001B01BC6
:10125000800E0001B0170001A38FFF0E0001A2173E
:10126000FF0E0001A317000E0001A4170001A68FB6
:10127000FF0E0001A517FF0E0001A617000E0001CA
:10128000A717180E0001AB6F00D00001D890AC3743
:10129000AD37AE370001A5510001A25D0001A65196
:1012A0000001A3590001A7510001A459D8A00ED0F4
:1012B0000001A5510001A25F0001A6510001A35B3E
:1012C0000001A7510001A45B0001AC810001D8908E
:1012D000A237A337A4370001AB2FD7D700D0ACC0BB
:1012E00019F0ADC01AF0AEC01BF0AFC01CF0B0C01A
:1012F0001DF000EC0BF019C0A2F01AC0A3F01BC047
:10130000A4F01200120020C019F021C01AF0000E43
:101310001C6E0A0E1B6E2AEC0DF0010E1924F66EDF
:10132000100E1A20F76E0800F5CF1EF0030EF1EC38
:101330000EF020C019F021C01AF0000E1C6E0A0E2B
:101340001B6ED5EC0CF019C020F01AC021F020C0A3
:1013500019F021C01AF0000E1C6E0A0E1B6E2AEC4A
:101360000DF0010E1924F66E100E1A20F76E08000B
:10137000F5CF1EF0020EF1EC0EF020C019F021C0E6
:101380001AF0000E1C6E0A0E1B6ED5EC0CF019C084
:1013900020F01AC021F020C019F021C01AF0000E70
:1013A0001C6E0A0E1B6E2AEC0DF0010E1924F66E4F
:1013B000100E1A20F76E0800F5CF1EF0010EF1ECAA
:1013C0000EF020C019F021C01AF0000E1C6E0A0E9B
:1013D0001B6ED5EC0CF019C020F01AC021F020C013
:1013E00019F021C01AF0000E1C6E0A0E1B6E2AECBA
:1013F0000DF0010E1924F66E100E1A20F76E08007B
:10140000F5CF1EF0000EF1EC0EF0120026C02AF00F
:101410002B6A2C6A25342A3601E32B802A502D6E44
:101420002D50D8A407D0000E246E000E256E000E9D
:10143000266E120029C02AF02B6A2C6A28342A361C
:1014400001E32B802A50326E3250D8A407D0000E10
:10145000246E000E256E000E266E120032507B0F99
:101460002D2626C032F02950321A800E3216258ED3
:10147000288EFF0E2716FF0E2816000E2916000EC6
:101480002E6E000E2F6E000E306E070E316E00D0E5
:1014900024A007D027502E2628502F222950302252
:1014A00000D0D890263225322432D89027362836DC
:1014B0002936312EEDD700D0090E316E00D024A090
:1014C00007D027502E2628502F222950302200D016
:1014D000D890263225322432D89030322F322E3214
:1014E000312EEDD700D02EC019F02FC01AF030C029
:1014F0001BF02DC01CF032C01DF000EC0BF019C029
:1015000024F01AC025F01BC026F01200120009ECCE
:1015100008F000018D05D8A402D0440600D0030EC7
:1015200000018D19D8A402D0440600D000018B051B
:10153000D8A402D0442A00D0030E00018B19D8A4ED
:1015400002D0442A00D0FA0E446402D0090E05D01D
:101550000A0E016E445010EC0EF0446E00D00001F3
:101560008C05D8A40AD04450010D980EF324D96EEE
:10157000000EF420DA6EDF2A00D0030E00018C1971
:10158000D8A40AD04450010D980EF324D96E000E51
:10159000F420DA6EDF2A00D000018A05D8A40AD030
:1015A0004450010D980EF324D96E000EF420DA6E2B
:1015B000DF0600D0030E00018A19D8A40AD04450D7
:1015C000010D980EF324D96E000EF420DA6EDF06BA
:1015D00000D000018905D8A403D0010E356E00D0DB
:1015E0000A0E00017D19D8A408D000017E05D8A4F8
:1015F00004D03650FF0A366E00D076EC0DF01200A3
:101600001C50D8B405D019501A101B10D8A40ED0F5
:10161000000E196E000E1A6E000E1B6E120006D020
:101620001C2AD8901B321A32193200D0000E19141D
:101630001E6E000E1A141F6EFE0E1B14206E1E501E
:101640001F102010D8B40ED0EBD70CD01C2A010EDE
:101650001926000E1A22000E1B22D8901B321A32B5
:10166000193200D0000E19141E6E000E1A141F6ECF
:10167000FF0E1B14206E1E501F102010D8B408D06F
:10168000E5D706D01C06D89019361A361B3600D07E
:101690001ABE04D0020E1C60F5D700D01CB002D0D8
:1016A0001A9E00D0D8901C321C501B121D50D8B46A
:1016B00002D01B8E00D019C019F01AC01AF01BC03E
:1016C0001BF01200120000D00F0121A3FDD7869657
:1016D000AA0E0001986F000E2E6E000E2D6E2E5079
:1016E00019E1080E2D5CD8B015D001D013D02C50C4
:1016F000010DF3502A24D96EF4502B20DA6EDF50FE
:101700000F011C6F00D00F0121A3FDD72D4A2E2AF7
:10171000E6D700D020EE09F02A50D9262B50DA2245
:10172000AA0EDF6E2AC01FF02BC020F0080E216E1B
:10173000A00E226E000E236EA10E246E000E256EEA
:1017400068EC0CF0A0C01CFF00D00F0121A3FDD756
:10175000A1C01CFF00D00F0121A3FDD78686120077
:101760001B6E000E0F01216F000E0F01226F1BA0D8
:1017700003D00F01218900D01BA205D00F01218DBC
:101780000F01228D00D01BA403D00F01218F00D0A8
:101790001BA603D00F01228903D00F01228B00D09A
:1017A0001BA803D00F01218503D00F01219500D084
:1017B0001BAA03D00F01228700D01BAC02D0A38A42
:1017C00002D0A39A00D01BAE02D0A38801D0A39868
:1017D00019C01EFF1A500F011F6F0F01218B0F013F
:1017E000228F12003650D8B41DD044C019F01A6AA6
:1017F000030E1C6EE80E1B6E6EEC0EF04450010DD5
:10180000980EF324D96E000EF420DA6EDF50226EAB
:1018100022501924206E000E1A20216E83EC09F04C
:10182000849E120044C019F01A6A030E1C6EE80E62
:101830001B6E6EEC0EF04450010D8E0EF324D96E2B
:10184000000EF420DA6EDF50226E22501924206E32
:10185000000E1A20216E83EC09F0848E1200120013
:101860000550061007100810D8B429D0010E096ED3
:1018700007D0D8900536063607360836092A00D034
:1018800008BE02D0F6D700D00550015C06500258C1
:101890000750035808500458D8A009D00550015EDD
:1018A0000650025A0750035A0850045A00D0D890E4
:1018B0000832073206320532092EE6D700D001C0C1
:1018C00001F002C002F003C003F004C004F01200F3
:1018D000000E296E000E286E000E276E000E296E77
:1018E0001DD0010E2924196E1A6A000E1A222950E1
:1018F000010DF3501F24D96EF4502020DA6EDF5012
:10190000266E26501B6E1C6A6EEC0EF027501924B2
:10191000276E28501A20286E292A00D02150295CD1
:10192000D8A0DFD7285022C0D9FF23C0DAFFDF6E4E
:1019300024C0D9FF25C0DAFF27C0DFFF120041EC29
:101940000FF000D02FEC0FF00009D8A4FBD7120E37
:10195000276E830E286E400E296E27EC0FF019C0FB
:1019600021F01AC022F095EC0EF021C024F022C024
:1019700025F023C026F006EC0AF024C0A2F025C012
:10198000A3F026C0A4F0F00E0001A56F7F0E0001A9
:10199000A66F450E0001A76FDAEC08F0A2C03BF07D
:1019A000A3C03CF0A4C03DF01200000E1F6E000E5C
:1019B0001E6E1B501C10D8B421D0010E1D6E05D018
:1019C000D8901B361C361D2A00D01CBE02D0F8D77A
:1019D00000D0D8901E361F361B50195C1C501A5868
:1019E000D8A006D01B50195E1C501A5A1E8000D079
:1019F000D8901C321B321D2EECD700D01EC019F01F
:101A00001FC01AF012001D6E000EC26E000EC16ED5
:101A1000000EC06E19507C0BC26E1AC0C1FF1DC0F3
:101A20001BF0D8901B36D8901B36380E1B161DC0E5
:101A30001CF01C3A0F0E1C16070E1C161D50800BB6
:101A40001C101B10C06E19AE03D09E9C9D8CF28C96
:101A5000C28012001B501C10D8B41DD0010E1D6E88
:101A600005D0D8901B361C361D2A00D01CBE02D0D3
:101A7000F8D700D01B50195C1C501A58D8A005D0BC
:101A80001B50195E1C501A5A00D0D8901C321B32C1
:101A90001D2EF0D700D019C019F01AC01AF012008C
:101AA000D7EC0DF000016AA104D000016D4B6E2B44
:101AB00000D000016AA304D000016F4B702B00D04E
:101AC00000016AA504D00001714B722B00D0000107
:101AD0006AA704D00001734B742B00D000016AA9DF
:101AE00012000001754B762B12001200000E00014F
:101AF0007C6F000E00017D6F040E016E17D0015047
:101B0000020D7F0EF324D96E000EF420DA6E000E63
:101B1000DE6E000EDD6E0150010D890EF324D96ECC
:101B2000000EF420DA6E000EDF6E00D001060128F0
:101B3000D8A4E5D712001B6E010E1C6E17D082963A
:101B4000010E11EC0FF01C501B140009D8B402D088
:101B5000828802D0829800D0010E11EC0FF08286AC
:101B6000010E11EC0FF0D8901C3600D01C50D8A4F8
:101B7000E6D71200000E0001B16F000E0001B26F37
:101B8000000E0001B36F36EC0FF03CEC0FF0BBEC35
:101B90000EF0A8EC0EF01EEC0FF002EC0FF000D0EF
:101BA00059EC0EF0F2EC0BF0FBD7D3EF00F0000E87
:101BB00000016A6F84B603D000016A8100D084B44A
:101BC00003D000016A8300D083BC03D000016A8582
:101BD00000D084B803D000016A8700D083BE120011
:101BE00000016A8912001200010E036E0350D8B47E
:101BF000120001D01200200E026E0250D8B40DD097
:101C000001D00BD0020E016E0150D8B404D001D027
:101C100002D00106F9D70206F0D70306E7D7120073
:101C2000026E080E036E000E046E00D0D8900234CF
:101C30000434046ED89002360150045CD8A003D05E
:101C40000150045E00D0032EF1D700D004501200E2
:101C5000120003D019681A6800D019C01BF01AC00E
:101C60001CF01B1E1C1E1B4A1C2AFF0E1B24196E77
:101C7000FF0E1C201A6E1A50D76E19C0D6FFF294B0
:101C8000120003D00168026800D001C003F002C056
:101C900004F0031E041E034A042AFF0E0324016EEF
:101CA000FF0E0420026E0250D76E01C0D6FFF294E0
:101CB00012003450D8B403D09FEC0CF000D0355053
:101CC000D8B41200000E356E980E2A6E000E2B6EE0
:101CD0000A0E2C6E63EC0BF01200120019501B025E
:101CE000F3CF1DF0F4CF1EF019501C02F3501E2646
:101CF0001A501B02F3501E261DC019F01EC01AF008
:101D00001200120000EE60F0420EEE6AE806FDE1FD
:101D100000EE33F0130EEE6AE806FDE1000EF86EF9
:101D2000100EF76E0001BAEF0DF021C019F022C0BD
:101D30001AF01B6A8E0E1C6E000E1D6E00EC0BF06E
:101D400019C021F01AC022F01BC023F012001200AB
:101D500094969498CDEC0EF0DFEC0EF0440E9BECD4
:101D60000DF0CDEC0EF0DFEC0EF08F0E9BEC0DF0D5
:101D7000CDEC0EF01200D59CD59AD598D596D58489
:101D8000D582D580000E1A6E010E196E29EC0EF068
:101D9000D58EF28AD09EF28E12008296010E11EC40
:101DA0000FF08298010E11EC0FF08286010E11ECFB
:101DB0000FF08288010E11EC0FF0829612008296CD
:101DC000010E11EC0FF08288010E11EC0FF08286EB
:101DD000010E11EC0FF08298010E11EC0FF08296BB
:101DE00012001F6E040E1F601200DFEC0EF01F5079
:101DF000C00F9BEC0DF01E509BEC0DF0CDEC0EF0E7
:101E000012001200000E1A6E0C0E196E6C0EB0EC61
:101E10000BF09882989498968686F10E0F012317FE
:101E20001200196E000E1A6E02D004D01A2A090E82
:101E30001A64FCD7192EF6D7120012009B0E196EE9
:101E4000300E1A6E830E03EC0DF09D9C1200C450F0
:101E50001B6EC350196E1BC01AF012001200C2A2F2
:101E600002D0010E1200000E120012001F0E961674
:101E7000848A848C848E12001E0E9612C00E9512D7
:061E80001200C2821200F4
:020000040020DA
:08000000FFFFFFFFFFFFFFFF00
:020000040030CA
:0E0000001D037F7F018991FFFFC0FFE0FF40DD
:00000001FF
