:04000000D1EF00F04C
:10000800FACF0AF0FBCF0BF0E9CF0CF0EACF0DF0F6
:10001800E1CF0EF0E2CF0FF0D9CF10F0DACF11F028
:10002800F3CF12F0F4CF13F0F6CF14F0F7CF15F0AA
:10003800F8CF16F0F5CF17F0F2A46DD0010E3324E7
:10004800016E000E3420026E000E3520036E000E85
:100058003620046E000E056E000E066E000E076E4A
:10006800000E086E4CEC08F001C033F002C034F00A
:1000780003C035F004C036F0000E026E080E016EA3
:100088003FEC0BF033C001F034C002F035C003F090
:1000980036C004F02C0E056E010E066E000E076EBB
:1000A800000E086E4CEC08F001500210031004100A
:1000B800D8A410D03D1E3D50D8B406D0010E016E14
:1000C800030E3AEC0AF006D0000E016E030E3AEC6D
:1000D8000AF000D04150D8B403D0010E7EEC09F0EC
:1000E80033C001F034C002F035C003F036C004F06C
:1000F8000A0E056E000E066E000E076E000E086EE4
:100108004CEC08F00150021003100410D8A403D0DE
:1001180051EC09F000D09EAA23D0AECF18F0405081
:10012800D8A41ED01828D8A404D00A0E3B6E000EFE
:100138003C6E3C50D8A40CD03B063B50010DDA0E67
:10014800F324D96E000EF420DA6E18C0DFFF00D059
:100158003B50D8A405D0010E406E010E3C6E00D075
:1001680017C0F5FF16C0F8FF15C0F7FF14C0F6FF5B
:1001780013C0F4FF12C0F3FF11C0DAFF10C0D9FF9B
:100188000FC0E2FF0EC0E1FF0DC0EAFF0CC0E9FF9F
:100198000BC0FBFF0AC0FAFF11007EEF0AF0400413
:1001A800D8A41200FF0E0101036FFF0E0101046FB6
:1001B800010102510101056F066B010103510101A3
:1001C800052701010451010106230101055101011F
:1001D8000025D96E0101065101010121DA6EAA0E2E
:1001E800DE18D8B403D0000E406E1200010120EED4
:1001F80001F00051D9260151DA22DF500101086FC0
:1002080000C1D9FF01C1DAFFDF500101096F00C148
:1002180026F001C127F00A0E286EF0EC04F0010167
:1002280020EE01F00051D9260151DA2201010851CE
:10023800DE18D8B403D0000E406E120000C1D9FFFA
:1002480001C1DAFF01010951DE18D8B403D0000E4C
:10025800406E1200FE0E0101036FFF0E0101046FD4
:10026800010102510101056F066B010103510101F2
:10027800052701010451010106230101055101016E
:100288000025D96E0101065101010121DA6E100E17
:10029800DE18D8B423D0FE0E0101036FFF0E010152
:1002A800046F010102510101056F066B0101035141
:1002B800010105270101045101010623010105512E
:1002C80001010025D96E0101065101010121DA6EF3
:1002D800DE28D8B403D0000E406E1200FD0E0101D6
:1002E800036FFF0E0101046F010102510101056F47
:1002F800066B0101035101010527010104510101A8
:1003080006230101055101010025D96E010106519D
:1003180001010121DA6EDF5001010A6F100E01019F
:100328000A610FD001010A51070D050EF326000ED0
:10033800F4226A0EF324D96E000EF420DA6E000E51
:1003480025D0200E01010A610FD001010A51070DC5
:10035800050EF326000EF4226A0EF324D96E000E61
:10036800F420DA6E010E12D0300E01010A6110D0AD
:1003780001010A51070D050EF326000EF4226A0E3C
:10038800F324D96E000EF420DA6E020EDF6E00D070
:10039800FC0E0101036FFF0E0101046F0101025100
:1003A8000101056F066B01010351010105270101D8
:1003B8000451010106230101055101010025D96EEF
:1003C8000101065101010121DA6E01010A51070DEF
:1003D8006A0EF324E16E000EF420E26EDFCFE7FF31
:1003E800FB0E0101036FFF0E0101046F01010251B1
:1003F8000101056F066B0101035101010527010188
:100408000451010106230101055101010025D96E9E
:100418000101065101010121DA6E01010A51070D9E
:10042800040EF326000EF4226A0EF324E16E000E89
:10043800F420E26EDFCFE7FFFA0E0101036FFF0E33
:100448000101046F010102510101056F066B0101F1
:10045800035101010527010104510101062301018E
:10046800055101010025D96E010106510101012143
:10047800DA6E01010A51070D030EF326000EF4226D
:100488006A0EF324E16E000EF420E26EDFCFE7FF80
:10049800F90E0101036FFF0E0101046F0101025102
:1004A8000101056F066B01010351010105270101D7
:1004B8000451010106230101055101010025D96EEE
:1004C8000101065101010121DA6E01010A51070DEE
:1004D800020EF326000EF4226A0EF324E16E000EDB
:1004E800F420E26EDFCFE7FFF80E0101036FFF0E85
:1004F8000101046F010102510101056F066B010141
:1005080003510101052701010451010106230101DD
:10051800055101010025D96E010106510101012192
:10052800DA6E01010A51070D010EF326000EF422BE
:100538006A0EF324E16E000EF420E26EDFCFE7FFCF
:1005480001010A51070D060EF326000EF4226A0E69
:10055800F324D96E000EF420DA6E010EDF6E000E61
:10056800406E12001200060E1E6E72D00001C551B8
:10057800D8A44AD01E50020DC80EF324D96E000E1E
:10058800F420DA6E010EDB5004E1060EDE5CD8A022
:1005980024D01E50020DC80EF324D96E000EF4208C
:1005A800DA6E010EDB5004E13D0EDE5CD8A00AD005
:1005B8001E50010DBF0EF324D96E000EF420DA6E22
:1005C800050E14D01E50010DBF0EF324D96E000E77
:1005D800F420DA6E010EDF6E0AD01E50010DBF0E38
:1005E800F324D96E000EF420DA6E000EDF6E1E5072
:1005F800020DC80EF324D96E000EF420DA6E000E38
:10060800DE6E000EDD6E24D01E50020DC80EF324DF
:10061800D96E000EF420DA6E010EDB5004E13D0EB7
:10062800DE5CD8A00AD01E50010DBF0EF324D96E8F
:10063800000EF420DA6E030E09D01E50010DBF0E15
:10064800F324D96E000EF420DA6E040EDF6E00D0AB
:100658001E061E28D8A48AD7000E1E6E040E1E641D
:1006680002D0120012001E281D6E050E1D6401D056
:1006780045D01D50010DBF0EF324D96E000EF42095
:10068800DA6E1E50010DBF0EF324E16E000EF42049
:10069800E26EDE50E618D8A42FD01E50010DBF0E12
:1006A800F324D96E000EF420DA6EDF50D8B424D0CB
:1006B8001DC019F0010E1A6E192A02D0D8901A36E8
:1006C800192EFCD71EC01BF0010E1C6E1B2A02D06F
:1006D800D8901C361B2EFCD71C501A100001B16F85
:1006E8001E50010DBF0EF324D96E000EF420DA6EF1
:1006F800DF500001B26F00D01D2AB7D71E2A040EA2
:100708001E64B1D712001200B7EC02F0180E0001F7
:10071800B119D8A421D00001B205D8A41DD03F50EA
:10072800D8B417D0040E3F6014D0FF0E1F6EFF0E12
:10073800206E3F50216E226A1F502126205022220F
:10074800450E2124D96E000E2220DA6E010EDF6ECE
:1007580000D0F3EC09F000D0300E0001B119D8A494
:1007680021D00001B205D8A41DD03F50D8B417D06D
:10077800040E3F6014D0FF0E1F6EFF0E206E3F5018
:10078800216E226A1F50212620502222450E212444
:10079800D96E000E2220DA6E000EDF6E00D0F3EC68
:1007A80009F000D00001BF05D8A402D03F2A00D02C
:1007B800030E0001BF19D8A402D03F2A00D00001BF
:1007C800C005D8A403D04450FF0A446E0001C105F7
:1007D800D8A402D03F0600D0030E0001C119D8A446
:1007E80002D03F0600D00001C205D8A40AD03F506D
:1007F800010DE40EF324D96E000EF420DA6EDF2A20
:1008080000D0030E0001C219D8A40AD03F50010D30
:10081800E40EF324D96E000EF420DA6EDF2A00D03D
:100828000001C305D8A403D0010E436E00D0000117
:10083800C405D8A40AD03F50010DE40EF324D96EA4
:10084800000EF420DA6EDF0600D0030E0001C41992
:10085800D8A40AD03F50010DE40EF324D96E000E3F
:10086800F420DA6EDF0600D0FA0E3F6402D0090EDB
:1008780005D00A0E196E3F500EEC0BF03F6E00D0FB
:10088800F3EC09F0120002C106F10101076B086BD5
:10089800010101350101063701E307810101065114
:1008A80001010D6F01010D51D8A40AD0000E0101FC
:1008B800006F000E0101016F000E0101026F1200AE
:1008C80005C106F10101076B086B0101043501013F
:1008D800063701E307810101065101010E6F01018D
:1008E8000E51D8A40AD0000E0101006F000E0101BC
:1008F800016F000E0101026F1200000E01010A6F64
:10090800000E01010B6F000E01010C6F01010E5169
:10091800890F01010D5F02C10EF1010105510101AD
:100928000E1B800E01010E170101018FFF0E010140
:100938000017FF0E01010117000E01010217010146
:10094800048FFF0E01010317FF0E01010417000EAB
:1009580001010517180E0101096F00D00101D89097
:100968000A370B370C37010103510101005D010102
:100978000451010101590101055101010259D8A091
:100988000ED0010103510101005F01010451010171
:10099800015B010105510101025B01010A810101AD
:1009A800D8900037013702370101092FD7D700D077
:1009B8000AC119F00BC11AF00CC11BF00DC11CF0D3
:1009C8000EC11DF084EC06F019C000F11AC001F147
:1009D8001BC002F112001200000E2E6E000E2F6EC8
:1009E800000E306E000E316E020E326E35D032506F
:1009F800010DF3502624D96EF4502720DA6EDF500B
:100A0800296E29503202F3CF2AF0F4CF2BF0000ED2
:100A18002BBEFF0E2C6E2D6E2E502A24196E2F50D1
:100A28002B201A6E30502C201B6E31502D201C6E3E
:100A3800FF0E1D6EFF0E1E6E000E1F6E000E206E46
:100A480014EC08F019C02EF01AC02FF01BC030F0BB
:100A58001CC031F0322A00D02850325CD8A0C7D749
:100A680020EE01F02650D9262750DA222EC019F0A0
:100A78002FC01AF030C01BF031C01CF0FF0E1D6EE5
:100A8800000E1E6E000E1F6E000E206E93EC07F017
:100A98001950DF6E2EC019F02FC01AF030C01BF0AD
:100AA80031C01CF0FF0E1D6E000E1E6E000E1F6E74
:100AB800000E206E14EC08F0195026C0D9FF27C08C
:100AC800DAFFDF6E20EE01F02650D9262750DA2211
:100AD800DE28D8A407D020EE01F02650D9262750CA
:100AE800DA22DF0626C0D9FF27C0DAFFDE28D8A41D
:100AF800120026C0D9FF27C0DAFFDF061200120055
:100B080026C02AF02B6A2C6A25342A3601E32B806A
:100B18002A502D6E2D50D8A407D0000E246E000E3A
:100B2800256E000E266E120029C02AF02B6A2C6A48
:100B380028342A3601E32B802A50326E3250D8A44A
:100B480007D0000E246E000E256E000E266E1200D1
:100B580032507B0F2D2626C032F02950321A800ED3
:100B68003216258E288EFF0E2716FF0E2816000E29
:100B78002916000E2E6E000E2F6E000E306E070E18
:100B8800316E00D024A007D027502E2628502F22BF
:100B98002950302200D0D890263225322432D890DD
:100BA800273628362936312EEDD700D0090E316E7A
:100BB80000D024A007D027502E2628502F222950B5
:100BC800302200D0D890263225322432D8903032C4
:100BD8002F322E32312EEDD700D02EC019F02FC073
:100BE8001AF030C01BF02DC01CF032C01DF084EC90
:100BF80006F019C024F01AC025F01BC026F0120018
:100C0800120020C019F021C01AF0000E1C6E0A0E46
:100C18001B6ECDEC09F0EE0E1924D96E000E1A20C9
:100C2800DA6EDF501E6E030EC7EC0BF020C019F011
:100C380021C01AF0000E1C6E0A0E1B6E23EC09F080
:100C480019C020F01AC021F020C019F021C01AF0F4
:100C5800000E1C6E0A0E1B6ECDEC09F0EE0E192468
:100C6800D96E000E1A20DA6EDF501E6E020EC7EC27
:100C78000BF020C019F021C01AF0000E1C6E0A0EED
:100C88001B6E23EC09F019C020F01AC021F020C017
:100C980019F021C01AF0000E1C6E0A0E1B6ECDEC66
:100CA80009F0EE0E1924D96E000E1A20DA6EDF5004
:100CB8001E6E010EC7EC0BF020C019F021C01AF00F
:100CC800000E1C6E0A0E1B6E23EC09F019C020F0F2
:100CD8001AC021F020C019F021C01AF0000E1C6EB5
:100CE8000A0E1B6ECDEC09F0EE0E1924D96E000E1B
:100CF8001A20DA6EDF501E6E000EC7EC0BF01200E1
:100D08001C50D8B405D019501A101B10D8A40ED0F6
:100D1800000E196E000E1A6E000E1B6E120006D021
:100D28001C2AD8901B321A32193200D0000E19141E
:100D38001E6E000E1A141F6EFE0E1B14206E1E501F
:100D48001F102010D8B40ED0EBD70CD01C2A010EDF
:100D58001926000E1A22000E1B22D8901B321A32B6
:100D6800193200D0000E19141E6E000E1A141F6ED0
:100D7800FF0E1B14206E1E501F102010D8B408D070
:100D8800E5D706D01C06D89019361A361B3600D07F
:100D98001ABE04D0020E1C60F5D700D01CB002D0D9
:100DA8001A9E00D0D8901C321C501B121D50D8B46B
:100DB80002D01B8E00D019C019F01AC01AF01BC03F
:100DC8001BF0120012000101020701010251010D7E
:100DD800F35001010025D96EF45001010121DA6EAA
:100DE800FF0EDF6E00C126F001C127F00A0E286E43
:100DF800F0EC04F000D0ACA2FED7829001010251C1
:100E0800010DF35001010025D96EF45001010121B3
:100E1800DA6EDF50AD6E00D0ACB22ED0FDD72CD03C
:100E280001010251010DF35001010025D96EF45062
:100E380001010121DA6EDE28D8A40CD0010102518B
:100E4800010DF35001010025D96EF4500101012173
:100E5800DA6EDF0601010251010DF3500101002590
:100E6800D96EF45001010121DA6EDF50AD6E00D069
:100E7800ACB202D0FDD700D001010207010102295E
:100E8800D8A4CED7828012004450D8B421D03FC015
:100E980019F01A6A030E1C6EE80E1B6E57EC0BF065
:100EA8003F50010DE40EF324D96E000EF420DA6EE3
:100EB800DF50226E22501924206E000E1A20216E57
:100EC80005EC06F0010E196E010E18EC0AF021D09F
:100ED8003FC019F01A6A030E1C6EE80E1B6E57EC21
:100EE8000BF03F50010DDA0EF324D96E000EF420FA
:100EF800DA6EDF50226E22501924206E000E1A205E
:100F0800216E05EC06F0000E196E010E18EC0AF0C1
:100F180000D03EC01EF0040EC7EC0BF01200000E0D
:100F2800216E000E226E000E236E000E246E1D50E0
:100F38001E101F102010D8B42FD0010E256E07D018
:100F4800D8901D361E361F362036252A00D020BEE2
:100F580002D0F6D700D0D890213622362336243650
:100F68001D50195C1E501A581F501B5820501C58F1
:100F7800D8A00AD01D50195E1E501A5A1F501B5A6D
:100F880020501C5A218000D0D89020321F321E32A7
:100F98001D32252EE0D700D021C019F022C01AF04A
:100FA80023C01BF024C01CF012001F6E1F04D8A41D
:100FB80009D01E50D8B403D08380839203D0839085
:100FC800838200D0020E1F18D8A409D01E50D8B4AE
:100FD80003D08384839603D08394838600D0030E42
:100FE8001F18D8A409D01E50D8B403D08388839E74
:100FF80003D08398838E00D01F50D8B40AD0040E33
:101008001F6007D0000E1D6E020E1C6EF5EC0BF073
:1010180000D083908392839483968398839E120052
:101028001D501E101F102010D8B429D0010E216E9B
:1010380007D0D8901D361E361F362036212A00D0FC
:1010480020BE02D0F6D700D01D50195C1E501A5889
:101058001F501B5820501C58D8A009D01D50195E8D
:101068001E501A5A1F501B5A20501C5A00D0D89094
:1010780020321F321E321D32212EE6D700D019C071
:1010880019F01AC01AF01BC01BF01CC01CF012008B
:101098000550061007100810D8B429D0010E096EA3
:1010A80007D0D8900536063607360836092A00D004
:1010B80008BE02D0F6D700D00550015C0650025891
:1010C8000750035808500458D8A009D00550015EAD
:1010D8000650025A0750035A0850045A00D0D890B4
:1010E8000832073206320532092EE6D700D001C091
:1010F80001F002C002F003C003F004C004F01200C3
:101108004250D8B403D0BBEC08F000D04350D8B458
:101118000ED0000E436EE40E0101006F000E0101B7
:10112800016F0A0E0101026FE7EC06F000D0FF0E16
:1011380001010F6FFF0E0101106F3F500101116F88
:10114800126B01010F510101112701011051010119
:101158001223450E01011125D96E000E010112213D
:10116800DA6EDF501E6E3F50D9EC07F0120048ECE3
:101178000CF000D034EC0CF00009D8A4FBD7120E08
:10118800276E830E286E400E296E2CEC0CF019C0C9
:1011980021F01AC022F06BEC0BF021C024F022C021
:1011A80025F023C026F084EC05F024C000F125C00A
:1011B80001F126C002F1F00E0101036F7F0E01015B
:1011C800046F450E0101056F47EC04F000C137F0CC
:1011D80001C138F002C139F012001B6E000EAC6E6E
:1011E800000EAB6E1BA002D0AC8800D01BA203D0AF
:1011F800AC8CAB8C00D01BA402D0AC8E00D01BA64C
:1012080002D0AB8802D0AB8A00D01BA802D0AC8435
:1012180000D01BAA02D0AB8600D01BAC02D09D8A9E
:1012280002D09D9A00D01BAE02D09D8801D09D9817
:1012380019C0AFFF1A50D46EAC8AAB8E1200000EE4
:101248001E6E000E1D6E1B501C10D8B421D0010E4E
:101258001F6E05D0D8901B361C361F2A00D01CBE26
:1012680002D0F8D700D0D8901D361E361B50195C16
:101278001C501A58D8A006D01B50195E1C501A5A78
:101288001D8000D0D8901C321B321F2EECD700D006
:101298001DC019F01EC01AF012005CEC0AF0000123
:1012A800C5A104D00001C84BC92B00D00001C5A3BB
:1012B80004D00001CA4BCB2B00D00001C5A504D037
:1012C8000001CC4BCD2B00D00001C5A704D00001F4
:1012D800CE4BCF2B00D00001C5A904D00001D04BC4
:1012E800D12B00D00001C5AB12000001D24BD32B8B
:1012F80012001200046E080E056E0404D8B409D05A
:101308000ED007D03A1E3A50818200D0D8EC0AF0AD
:1013180000D005060528D8B402D0F4D700D0020EB4
:101328000418D8A4120007D03A1E3A50818000D081
:10133800D8EC0AF000D005060528D8B41200F4D776
:10134800120012001D6E000EC26E000EC16E000E5D
:10135800C06E19507C0BC26E1AC0C1FF1DC01BF0B5
:10136800D8901B36D8901B36380E1B161DC01CF0A3
:101378001C3A0F0E1C16070E1C161D50800B1C1055
:101388001B10C06E19AE03D09E9C9D8CF28CC2803F
:1013980012001B501C10D8B41DD0010E1D6E05D0B4
:1013A800D8901B361C361D2A00D01CBE02D0F8D798
:1013B80000D01B50195C1C501A58D8A005D01B50DF
:1013C800195E1C501A5A00D0D8901C321B321D2EA0
:1013D800F0D700D019C019F01AC01AF01200000E88
:1013E8000001B06F000E0001B16F040E196E17D026
:1013F8001950020DB30EF324D96E000EF420DA6EE4
:10140800000EDE6E000EDD6E1950010DBF0EF324C6
:10141800D96E000EF420DA6E000EDF6E00D01906C9
:101428001928D8A4E5D712001A6E1A04D8A407D030
:101438001950D8B402D03E8002D03E9000D0020E9F
:101448001A18D8A407D01950D8B402D03E8202D0B6
:101458003E9200D0030E1A18D8A412001950D8B41E
:1014680002D03E8412003E9412001200026E020462
:10147800D8A407D00150D8B402D03E8002D03E9004
:1014880000D0020E0218D8A407D00150D8B402D058
:101498003E8202D03E9200D0030E0218D8A4120059
:1014A8000150D8B402D03E8412003E9412001200BB
:1014B800000E0001C56F82B203D00001C58100D0C3
:1014C80085B203D00001C58300D085B403D00001E4
:1014D800C58500D080B803D00001C58700D080BA88
:1014E80003D00001C58900D085B612000001C58B64
:1014F8001200120000EE60F08E0EEE6AE806FDE1C2
:1015080000EE33F0150EEE6AE806FDE1480EF66EC1
:10151800180EF76E000EF86E00EEEEF010EE10F0FA
:101528000900F5CFEEFFE550E150FAE10001F4EFD4
:101538000AF01B6E010E1C6E17D0839C010E02EC84
:101548000CF01C501B140009D8B402D0838A02D0B6
:10155800839A00D0010E02EC0CF0838C010E02EC91
:101568000CF0D8901C3600D01C50D8A4E6D7120036
:10157800010E1B6E1B50D8B4120001D012005E0E73
:101588001A6E1A50D8B40DD001D00BD0020E196EB5
:101598001950D8B404D001D002D01906F9D71A06C8
:1015A800F0D71B06E7D71200010E036E0350D8B41C
:1015B800120001D01200200E026E0250D8B40DD0D5
:1015C80001D00BD0020E016E0150D8B404D001D066
:1015D80002D00106F9D70206F0D70306E7D71200B2
:1015E8004AEC0CF0D8EC0BF091EC0BF07EEC0BF025
:1015F8001BEC0CF00FEC0CF03BEC0CF042EC0CF09C
:1016080000D0E7EC0BF084EC08F048EC07F0F9D7D1
:10161800D1EF00F01A6E080E1B6E000E1C6E00D083
:10162800D8901A341C341C6ED8901A3619501C5C89
:10163800D8A003D019501C5E00D01B2EF1D700D0C3
:101648001C501200120003D019681A6800D019C083
:101658001BF01AC01CF01B1E1C1E1B4A1C2AFF0E66
:101668001B24196EFF0E1C201A6E1A50D76E19C053
:10167800D6FFF294120003D00168026800D001C0BE
:1016880003F002C004F0031E041E034A042AFF0EDE
:101698000324016EFF0E0420026E0250D76E01C0B3
:1016A800D6FFF294120019501B02F3CF1DF0F4CFAD
:1016B8001EF019501C02F3501E261A501B02F3503C
:1016C8001E261DC019F01EC01AF01200120021C0FB
:1016D80019F022C01AF01B6A8E0E1C6E000E1D6EC9
:1016E80084EC06F019C021F01AC022F01BC023F0C8
:1016F80012001200959A959CA3EC0BF0B5EC0BF038
:10170800440E9DEC0AF0A3EC0BF0B5EC0BF08F0E39
:101718009DEC0AF0A3EC0BF01200D59CD59AD59855
:10172800D596D584D582D580000E1A6E010E196E15
:1017380027EC0BF0D58EF28AD09EF28E1200839C95
:10174800010E02EC0CF0839A010E02EC0CF0838C73
:10175800010E02EC0CF0838A010E02EC0CF0839C63
:101768001200839C010E02EC0CF0838A010E02EC3D
:101778000CF0838C010E02EC0CF0839A010E02EC43
:101788000CF0839C12001F6E100E1F601200B5EC47
:101798000BF01F50C00F9DEC0AF01E509DEC0AF094
:1017A800A3EC0BF01200120094829782978492881F
:1017B800928A97860F0125990F01259D0F01259F74
:1017C8000F012491120088EC03F0DA0E0101006F7A
:1017D800000E0101016F0A0E0101026FD3EC00F047
:1017E800120003D0BCEC0AF000D01C06D8A01D06DD
:1017F8001C28F8E11D28D8A4F5D71200196E000E90
:101808001A6E02D004D01A2A090E1A64FCD7192EAF
:10181800F6D712001200000E1A6E0C0E196E6C0E1E
:10182800F1EC08F0948E949C9490828012009B0EA8
:10183800196E300E1A6E830EA6EC09F09D9C1200EC
:101848003F065B4F666D7D077F6F777C395E7971E8
:10185800C4501B6EC350196E1BC01AF01200120040
:10186800C2A202D0010E1200000E120012009590C2
:101878009592959495969598959E1200939293902B
:0E1888009384819281901200C282120012009D
:020000040020DA
:08000000FFFFFFFFFFFFFFFF00
:020000040030CA
:0E00000015037F7C018991FFFFC0FFE0FF40E8
:00000001FF
