:04000000E9EF00F034
:10000800FACF0AF0FBCF0BF0E9CF0CF0EACF0DF0F6
:10001800E1CF0EF0E2CF0FF0D9CF10F0DACF11F028
:10002800F3CF12F0F4CF13F0F6CF14F0F7CF15F0AA
:10003800F8CF16F0F5CF17F0F2A483D0010E3324D1
:10004800016E000E3420026E000E3520036E000E85
:100058003620046E000E056E000E066E000E076E4A
:10006800000E086E8DEC08F001C033F002C034F0C9
:1000780003C035F004C036F0000E026E080E016EA3
:10008800B6EC0AF033C001F034C002F035C003F01A
:1000980036C004F02C0E056E010E066E000E076EBB
:1000A800000E086E8DEC08F00150021003100410C9
:1000B800D8A410D03D1E3D50D8B406D0010E016E14
:1000C800030E36EC0AF006D0000E016E030E36EC75
:1000D8000AF000D033C001F034C002F035C003F09C
:1000E80036C004F0320E056E000E066E000E076E66
:1000F800000E086E8DEC08F0015002100310041079
:10010800D8A404D0010E00019C6F00D033C001F0C8
:1001180034C002F035C003F036C004F00A0E056E94
:10012800000E066E000E076E000E086E8DEC08F0CD
:100138000150021003100410D8A403D053EC09F0A6
:1001480000D09EAA25D0AECF18F000019D51D8A4AA
:100158001FD01828D8A404D0070E3B6E000E3C6EA2
:100168003C50D8A40CD03B063B50010D9E0EF32406
:10017800D96E000EF420DA6E18C0DFFF00D03B50B5
:10018800D8A406D0010E00019D6F010E3C6E00D070
:1001980017C0F5FF16C0F8FF15C0F7FF14C0F6FF2B
:1001A80013C0F4FF12C0F3FF11C0DAFF10C0D9FF6B
:1001B8000FC0E2FF0EC0E1FF0DC0EAFF0CC0E9FF6F
:1001C8000BC0FBFF0AC0FAFF1100F7EF08F0080E9A
:1001D800246E090E246402D0120012002450090D66
:1001E800060EF326000EF422000EF324D96E010E3B
:1001F800F420DA6EDE04D8A491D1000E236E24C058
:1002080024F02450090D000EF324D96E010EF420B9
:10021800DA6EDF50D8A40FD0000E2B6E000E2A6EB7
:10022800000E306E000E2C6E000E2D6E000E2F6E1E
:10023800000E2E6E64D12450090D000EF324D96EE1
:10024800010EF420DA6EDE04D8A42CD0000E236E42
:10025800070E236401D053D12350010D960EF324C9
:10026800D96E000EF420DA6E2450090D010EF32623
:10027800000EF422000EF324E16E010EF420E26E6B
:10028800E750196E23C01AF0010E1B6E1A2A02D00D
:10029800D8901B361A2EFCD71B501914DF6E232A50
:1002A800D7D72DD12450090D000EF324D96E010E95
:1002B800F420DA6E020EDE18D8A42CD0000E236EBD
:1002C800070E236401D01BD12350010D990EF3248E
:1002D800D96E000EF420DA6E2450090D010EF326B3
:1002E800000EF422000EF324E16E010EF420E26EFB
:1002F800E750196E23C01AF0010E1B6E1A2A02D09D
:10030800D8901B361A2EFCD71B501914DF6E232ADF
:10031800D7D7F5D02450090D000EF324D96E010E5D
:10032800F420DA6E040EDE18D8A420D02450090D6B
:10033800010EF326000EF422000EF324D96E010EEE
:10034800F420DA6EDF50196E19502A6E2B6A245089
:10035800090D020EF326000EF422000EF324D96EC6
:10036800010EF420DA6EDF502B26C9D02450090D77
:10037800000EF324D96E010EF420DA6E050EDE1895
:10038800D8A41DD02450090D010EF326000EF42226
:10039800000EF324D96E010EF420DA6EDF502C6EB5
:1003A8002450090D020EF326000EF422000EF32449
:1003B800D96E010EF420DA6EDF502D6EA0D02450D5
:1003C800090D000EF324D96E010EF420DA6E060E24
:1003D800DE18D8A420D02450090D010EF326000EF3
:1003E800F422000EF324D96E010EF420DA6EDF50E9
:1003F800196E19502E6E2F6A2450090D020EF3261D
:10040800000EF422000EF324D96E010EF420DA6EE9
:10041800DF502F2674D02450090D000EF324D96E16
:10042800010EF420DA6E070EDE18D8A40FD024507F
:10043800090D010EF326000EF422000EF324D96EE6
:10044800010EF420DA6EDF50306E59D02450090DB9
:10045800000EF324D96E010EF420DA6E080EDE18B1
:10046800D8A40BD02AC042F02B50436EAA0E446E7B
:10047800AA0E456E040E466E13D02450090D000EC8
:10048800F324D96E010EF420DA6E090EDE18D8A412
:100498000BD0050E466E2CC042F02DC043F016D08E
:1004A800010E0001916F2BD02450090D000EF3248A
:1004B800D96E010EF420DA6E0A0EDE18D8A40BD01D
:1004C800060E466E2EC042F02F5016D0AA0E446E6D
:1004D800AA0E456EE5D72450090D000EF324D96EF7
:1004E800010EF420DA6E0B0EDE18D8A408D0070E21
:1004F800466E30C042F0AA0E436EE8D700D02450B2
:10050800090D060EF326000EF422000EF324D96E10
:10051800010EF420DA6E000EDF6E00D0242A090ED8
:1005280024645CD61200120000019D05D8A41200B4
:10053800FF0E0001B26FFF0E0001B36F0001B15151
:100548000001B46FB56B0001B2510001B42700017E
:10055800B3510001B5230001B4510001AF25D96E94
:100568000001B5510001B021DA6EAA0EDE18D8B428
:1005780004D0000E00019D6F1200000120EE01F072
:10058800AF51D926B051DA22DF500001B76FAFC0A2
:10059800D9FFB0C0DAFFDF500001B86FAFC026F056
:1005A800B0C027F0070E286EA7EC05F0000120EE7A
:1005B80001F0AF51D926B051DA220001B751DE1847
:1005C800D8B404D0000E00019D6F1200AFC0D9FF4F
:1005D800B0C0DAFF0001B851DE18D8B404D0000E5C
:1005E80000019D6F1200FE0E0001B26FFF0E0001A8
:1005F800B36F0001B1510001B46FB56B0001B25186
:100608000001B4270001B3510001B5230001B45122
:100618000001AF25D96E0001B5510001B021DA6E95
:10062800DF50D8B425D0FE0E0001B26FFF0E0001D6
:10063800B36F0001B1510001B46FB56B0001B25145
:100648000001B4270001B3510001B5230001B451E2
:100658000001AF25D96E0001B5510001B021DA6E55
:10066800080EDE18D8B404D0000E00019D6F1200E9
:10067800FD0E0001B26FFF0E0001B36F0001B15112
:100688000001B46FB56B0001B2510001B42700013D
:10069800B3510001B5230001B4510001AF25D96E53
:1006A8000001B5510001B021DA6EDF500001B96FC9
:1006B800100E0001B9610FD00001B951090D050EE6
:1006C800F326000EF422000EF324D96E010EF42056
:1006D800DA6E000E25D0200E0001B9610FD000019E
:1006E800B951090D050EF326000EF422000EF3246D
:1006F800D96E010EF420DA6E010E12D0300E000110
:10070800B96110D00001B951090D050EF326000E8C
:10071800F422000EF324D96E010EF420DA6E020ED4
:10072800DF6E00D0000120EE06F0AF51D926B0519F
:10073800DA220001B951090D000EF324E16E010E11
:10074800F420E26EDFCFE7FF000120EE02F0AF51A8
:10075800D926B051DA220001B951090D010EF3264C
:10076800000EF422000EF324E16E010EF420E26E76
:10077800DFCFE7FF000120EE03F0AF51D926B051DB
:10078800DA220001B951090D020EF326000EF422F7
:10079800000EF324E16E010EF420E26EDFCFE7FFD6
:1007A800000120EE04F0AF51D926B051DA22000141
:1007B800B951090D030EF326000EF422000EF3249E
:1007C800E16E010EF420E26EDFCFE7FF000120EEBC
:1007D80005F0AF51D926B051DA220001B951090DFF
:1007E800040EF326000EF422000EF324E16E010E2F
:1007F800F420E26EDFCFE7FF0001B951090D060EC4
:10080800F326000EF422000EF324D96E010EF42014
:10081800DA6E010EDF6E000E00019D6F12001200ED
:10082800060E1E6E72D000017C51D8A44AD01E500C
:10083800020D7F0EF324D96E000EF420DA6E010E3D
:10084800DB5004E1060EDE5CD8A024D01E50020D59
:100858007F0EF324D96E000EF420DA6E010EDB5001
:1008680004E13D0EDE5CD8A00AD01E50010D760EC4
:10087800F324D96E000EF420DA6E050E14D01E5043
:10088800010D760EF324D96E000EF420DA6E010EF7
:10089800DF6E0AD01E50010D760EF324D96E000EBD
:1008A800F420DA6E000EDF6E1E50020D7F0EF32468
:1008B800D96E000EF420DA6E000EDE6E000EDD6ECC
:1008C80024D01E50020D7F0EF324D96E000EF420A2
:1008D800DA6E010EDB5004E13D0EDE5CD8A00AD0D2
:1008E8001E50010D760EF324D96E000EF420DA6E38
:1008F800030E09D01E50010D760EF324D96E000E9A
:10090800F420DA6E040EDF6E00D01E061E28D8A46E
:100918008AD7000E1E6E040E1E6402D0120012004A
:100928001E281D6E050E1D6401D045D01D50010DF9
:10093800760EF324D96E000EF420DA6E1E50010DE7
:10094800760EF324E16E000EF420E26EDE50E61817
:10095800D8A42FD01E50010D760EF324D96E000EA8
:10096800F420DA6EDF50D8B424D01DC019F0010E7F
:100978001A6E192A02D0D8901A36192EFCD71EC022
:100988001BF0010E1C6E1B2A02D0D8901C361B2EA1
:10099800FCD71C501A100001686F1E50010D760E0E
:1009A800F324D96E000EF420DA6EDF500001696F6F
:1009B80000D01D2AB7D71E2A040E1E64B1D7120014
:1009C800120014EC04F0180E00016819D8A421D004
:1009D80000016905D8A41DD03F50D8B417D0040E23
:1009E8003F6014D0FF0E1F6EFF0E206E3F50216E29
:1009F800226A1F50212620502222930E2124D96ECC
:100A0800000E2220DA6E010EDF6E00D0CDEC09F068
:100A180000D0300E00016819D8A421D00001690562
:100A2800D8A41DD03F50D8B417D0040E3F6014D0BE
:100A3800FF0E1F6EFF0E206E3F50216E226A1F5060
:100A4800212620502222930E2124D96E000E222026
:100A5800DA6E000EDF6E00D0CDEC09F000D0000198
:100A68007605D8A402D03F2A00D0030E00017619DB
:100A7800D8A402D03F2A00D000017705D8A405D019
:100A880000019251FF0A0001926F00017805D8A475
:100A980002D03F0600D0030E00017819D8A402D076
:100AA8003F0600D000017905D8A40AD03F50010DB7
:100AB800400EF324D96E000EF420DA6EDF2A00D03F
:100AC800030E00017919D8A40AD03F50010D400E39
:100AD800F324D96E000EF420DA6EDF2A00D000016C
:100AE8007A05D8A404D0010E0001916F00D000014E
:100AF8007B05D8A40AD03F50010D400EF324D96ECF
:100B0800000EF420DA6EDF0600D0030E00017B1918
:100B1800D8A40AD03F50010D400EF324D96E000E20
:100B2800F420DA6EDF0600D0FA0E3F6402D0060E1B
:100B380005D0070E196E3F5041EC0BF03F6E00D008
:100B4800CDEC09F01200000E0001AA6F000EAB6F89
:100B5800000EAC6F000EAD6F020E0001AE6F43D0F9
:100B68000001AE51010DF3502624D96EF450272010
:100B7800DA6EDF500001A56F0001A5510001AE0338
:100B8800F3CFA6F0F4CFA7F0000E0001A7BFFF0E29
:100B9800A86FA96F0001AA510001A625196E0001CE
:100BA800AB510001A7211A6E0001AC510001A82128
:100BB8001B6E0001AD510001A9211C6EFF0E1D6EB8
:100BC800FF0E1E6E000E1F6E000E206E55EC08F014
:100BD80019C0AAF01AC0ABF01BC0ACF01CC0ADF035
:100BE8000001AE2B00D028500001AE5DD8A0B8D7C8
:100BF80020EE01F02650D9262750DA22AAC019F093
:100C0800ABC01AF0ACC01BF0ADC01CF0FF0E1D6EDF
:100C1800000E1E6E000E1F6E000E206ED4EC07F044
:100C28001950DF6EAAC019F0ABC01AF0ACC01BF0A7
:100C3800ADC01CF0FF0E1D6E000E1E6E000E1F6E66
:100C4800000E206E55EC08F0195026C0D9FF27C0B9
:100C5800DAFFDF6E20EE01F02650D9262750DA227F
:100C6800DE28D8A407D020EE01F02650D926275038
:100C7800DA22DF0626C0D9FF27C0DAFFDE28D8A48B
:100C8800120026C0D9FF27C0DAFFDF0612001200C3
:100C980020C019F021C01AF0000E1C6E0A0E1B6E3F
:100CA800A7EC09F0BA0E1924D96E000E1A20DA6ED4
:100CB800DF501E6E030EDCEC0BF020C019F021C0D3
:100CC8001AF0000E1C6E0A0E1B6E25EC09F019C0F6
:100CD80020F01AC021F020C019F021C01AF0000E2F
:100CE8001C6E0A0E1B6EA7EC09F0BA0E1924D96EF9
:100CF800000E1A20DA6EDF501E6E020EDCEC0BF0CE
:100D080020C019F021C01AF0000E1C6E0A0E1B6ECE
:100D180025EC09F019C020F01AC021F020C019F004
:100D280021C01AF0000E1C6E0A0E1B6EA7EC09F00B
:100D3800BA0E1924D96E000E1A20DA6EDF501E6E14
:100D4800010EDCEC0BF020C019F021C01AF0000EE7
:100D58001C6E0A0E1B6E25EC09F019C020F01AC093
:100D680021F020C019F021C01AF0000E1C6E0A0EE6
:100D78001B6EA7EC09F0BA0E1924D96E000E1A20C2
:100D8800DA6EDF501E6E000EDCEC0BF01200000174
:100D9800B1070001B151010DF3500001AF25D96E23
:100DA800F4500001B021DA6EFF0EDF6EAFC026F0FE
:100DB800B0C027F0B1C028F0A7EC05F000D0ACA275
:100DC800FED782900001B151010DF3500001AF250B
:100DD800D96EF4500001B021DA6EDF50AD6E00D04C
:100DE800ACB22ED0FDD72CD00001B151010DF3507B
:100DF8000001AF25D96EF4500001B021DA6EDE286B
:100E0800D8A40CD00001B151010DF3500001AF2559
:100E1800D96EF4500001B021DA6EDF060001B1513D
:100E2800010DF3500001AF25D96EF4500001B02137
:100E3800DA6EDF50AD6E00D0ACB202D0FDD700D074
:100E48000001B1070001B129D8A4CED78280000ED5
:100E58000001916F120000019151D8B40CD0400EDE
:100E68000001AF6F000E0001B06F070E0001B16FF7
:100E7800CBEC06F000D0000E0001B46F000EB36F8B
:100E88000001B4511CE1080E0001B35DD8B017D0C1
:100E980001D015D0960E0001B325D96E000E0001C1
:100EA800B421DA6EDE04D8A405D00001B351D3EC26
:100EB8000AF000D00001B34BB42BE2D700D0000EEB
:100EC8000001B46F000EB36F0001B4511CE1080EAD
:100ED8000001B35DD8B0120001D01200960E0001D7
:100EE800B325D96E000E0001B421DA6EDE04D8A451
:100EF80005D00001B351EFEC0AF000D00001B34B6C
:100F0800B42BE2D71200120000019251D8B421D0BC
:100F18003FC019F01A6A030E1C6EE80E1B6E5AECDD
:100F28000BF03F50010D400EF324D96E000EF42053
:100F3800DA6EDF50226E22501924206E000E1A201D
:100F4800216E4CEC06F0010E196E010EF2EC09F060
:100F580021D03FC019F01A6A030E1C6EE80E1B6EF2
:100F68005AEC0BF03F50010D9E0EF324D96E000E83
:100F7800F420DA6EDF50226E22501924206E000E03
:100F88001A20216E4CEC06F0000E196E010EF2ECE0
:100F980009F000D03EC01EF0040EDCEC0BF012008D
:100FA800000E216E000E226E000E236E000E246EBF
:100FB8001D501E101F102010D8B42FD0010E256E02
:100FC80007D0D8901D361E361F362036252A00D069
:100FD80020BE02D0F6D700D0D8902136223623364C
:100FE80024361D50195C1E501A581F501B5820508B
:100FF8001C58D8A00AD01D50195E1E501A5A1F50EE
:101008001B5A20501C5A218000D0D89020321F3201
:101018001E321D32252EE0D700D021C019F022C083
:101028001AF023C01BF024C01CF012001F6E1F040E
:10103800D8A409D01E50D8B403D08380839203D09B
:101048008390838200D0020E1F18D8A409D01E50A6
:10105800D8B403D08384839603D08394838600D046
:10106800030E1F18D8A409D01E50D8B403D0838803
:10107800839E03D08398838E00D01F50D8B40AD0A3
:10108800040E1F6007D0000E1D6E020E1C6EFCECD5
:101098000BF000D083908392839483968398839EE9
:1010A80012001D501E101F102010D8B429D0010E98
:1010B800216E07D0D8901D361E361F362036212ABD
:1010C80000D020BE02D0F6D700D01D50195C1E50AB
:1010D8001A581F501B5820501C58D8A009D01D5012
:1010E800195E1E501A5A1F501B5A20501C5A00D005
:1010F800D89020321F321E321D32212EE6D700D062
:1011080019C019F01AC01AF01BC01BF01CC01CF043
:1011180012000550061007100810D8B429D0010E87
:10112800096E07D0D8900536063607360836092ADC
:1011380000D008BE02D0F6D700D00550015C06509A
:1011480002580750035808500458D8A009D0055031
:10115800015E0650025A0750035A0850045A00D03C
:10116800D8900832073206320532092EE6D700D069
:1011780001C001F002C002F003C003F004C004F093
:1011880012001B6E000EAC6E000EAB6E1BA002D0E0
:10119800AC8800D01BA203D0AC8CAB8C00D01BA4B5
:1011A80002D0AC8E00D01BA602D0AB8802D0AB8A8E
:1011B80000D01BA802D0AC8400D01BAA02D0AB86FA
:1011C80000D01BAC02D09D8A02D09D9A00D01BAEE5
:1011D80002D09D8801D09D9819C0AFFF1A50D46ED7
:1011E800AC8AAB8E120001EE00F05A0EEE6AE806E9
:1011F800FDE100EE60F0450EEE6AE806FDE100EE66
:101208002AF01D0EEE6AE806FDE1560EF66E180E7F
:10121800F76E000EF86E00EEBAF010EE10F009004E
:10122800F5CFEEFFE550E150FAE1820EF66E180EAA
:10123800F76E000EF86E0900F5CF47F0000127EFB2
:101248000BF0000E1E6E000E1D6E1B501C10D8B445
:1012580021D0010E1F6E05D0D8901B361C361F2AD0
:1012680000D01CBE02D0F8D700D0D8901D361E364C
:101278001B50195C1C501A58D8A006D01B50195E78
:101288001C501A5A1D8000D0D8901C321B321F2EB9
:10129800ECD700D01DC019F01EC01AF0120058EC8F
:1012A8000AF000017CA104D000017F4B802B00D004
:1012B80000017CA304D00001814B822B00D00001E7
:1012C8007CA504D00001834B842B00D000017CA7AF
:1012D80004D00001854B862B00D000017CA904D0E6
:1012E8000001874B882B00D000017CAB1200000165
:1012F800894B8A2B120012001D6E000EC26E000E62
:10130800C16E000EC06E19507C0BC26E1AC0C1FFB0
:101318001DC01BF0D8901B36D8901B36380E1B16F4
:101328001DC01CF01C3A0F0E1C16070E1C161D5073
:10133800800B1C101B10C06E19AE03D09E9C9D8C98
:10134800F28CC28012001B501C10D8B41DD0010EA4
:101358001D6E05D0D8901B361C361D2A00D01CBE29
:1013680002D0F8D700D01B50195C1C501A58D8A0CE
:1013780005D01B50195E1C501A5A00D0D8901C3248
:101388001B321D2EF0D700D019C019F01AC01AF060
:101398001200000E0001676F000E0001686F040E56
:1013A800196E17D01950020D6A0EF324D96E000E6B
:1013B800F420DA6E000EDE6E000EDD6E1950010D9F
:1013C800760EF324D96E000EF420DA6E000EDF6E6E
:1013D80000D019061928D8A4E5D712001A6E1A04E5
:1013E800D8A407D01950D8B402D03E8002D03E907D
:1013F80000D0020E1A18D8A407D01950D8B402D0B9
:101408003E8202D03E9200D0030E1A18D8A41200D1
:101418001950D8B402D03E8412003E941200120033
:101428000001B26F000E0001BA6FB2C0BBF0AA0E85
:101438000001B56FAA0E0001B66FAA0E0001B76FC2
:10144800AA0E0001B86F030E0001B96FB30E0001B8
:10145800AF6F000E0001B06F070E0001B16FCBEC4B
:1014680006F01200026E0204D8A407D00150D8B4C6
:1014780002D03E8002D03E9000D0020E0218D8A4BE
:1014880007D00150D8B402D03E8202D03E9200D09C
:10149800030E0218D8A412000150D8B402D03E841A
:1014A80012003E9412001200000E00017C6F82B2FE
:1014B80003D000017C8100D085B203D000017C8379
:1014C80000D085B403D000017C8500D080B803D05B
:1014D80000017C8700D080BA03D000017C8900D04D
:1014E80085B6120000017C8B120012001B6E010EE3
:1014F8001C6E17D0839C010E09EC0CF01C501B14B9
:101508000009D8B402D0838A02D0839A00D0010E91
:1015180009EC0CF0838C010E09EC0CF0D8901C3609
:1015280000D01C50D8A4E6D71200FE0E195CFF0E9E
:101538001A58D8A003D019681A6800D019C01BF02F
:101548001AC01CF01B1E1C1E1B4A1C2AFF0E1B2443
:10155800196EFF0E1C201A6E1A50D76E19C0D6FFCE
:10156800F2941200FE0E015CFF0E0258D8A003D0C0
:101578000168026800D001C003F002C004F0031E35
:10158800041E034A042AFF0E0324016EFF0E0420E2
:10159800026E0250D76E01C0D6FFF2941200206E80
:1015A800010E1E6E20501AEC08F0000E1D6E640E1F
:1015B8001C6EFCEC0BF0000E1E6E20501AEC08F0AE
:1015C8002050010D960EF324D96E000EF420DA6E29
:1015D800000EDF6E1200206E010E1E6E20501AECF7
:1015E80008F0000E1D6E640E1C6EFCEC0BF0000E75
:1015F8001E6E20501AEC08F02050010D990EF324AD
:10160800D96E000EF420DA6E000EDF6E1200010EA5
:101618001B6E1B50D8B4120001D012005E0E1A6E59
:101628001A50D8B40DD001D00BD0020E196E195033
:10163800D8B404D001D002D01906F9D71A06F0D7C9
:101648001B06E7D7120040EC0CF0EDEC0BF094EC25
:101658000BF081EC0BF022EC0CF016EC0CF033ECF8
:101668000CF03AEC0CF000D0A6EC0BF02FEC07F0E5
:1016780088EC07F0F9D7E9EF00F01A6E080E1B6E38
:10168800000E1C6E00D0D8901A341C341C6ED890F2
:101698001A3619501C5CD8A003D019501C5E00D013
:1016A8001B2EF1D700D01C501200120019501B023B
:1016B800F3CF1DF0F4CF1EF019501C02F3501E2674
:1016C8001A501B02F3501E261DC019F01EC01AF036
:1016D8001200120000019C05D8A41200475014EC17
:1016E8000AF0472A070E4718D8A402D0030E476EFF
:1016F800000E00019C6F12001200959A959CB8ECA0
:101708000BF0CAEC0BF0440E7AEC0AF0B8EC0BF0D4
:10171800CAEC0BF08F0E7AEC0AF0B8EC0BF0120062
:10172800D59CD59AD598D596D584D582D580000EE6
:101738001A6E010E196E99EC0AF0D58EF28AD09EB7
:10174800F28E12006EEC0BF0E5EC04F09E0E000138
:10175800AF6F000E0001B06F070E0001B16F98EC7B
:1017680002F0EBEC00F01200839C010E09EC0CF087
:10177800839A010E09EC0CF0838C010E09EC0CF035
:10178800838A010E09EC0CF0839C1200839C010EE5
:1017980009EC0CF0838A010E09EC0CF0838C010E25
:1017A80009EC0CF0839A010E09EC0CF0839C1200F2
:1017B8001F6E100E1F601200CAEC0BF01F50C00FF6
:1017C8007AEC0AF01E507AEC0AF0B8EC0BF0120032
:1017D80012009482978297849288928A97860F0142
:1017E80025990F01259D0F01259F0F0124911200B6
:1017F80003D00BEC0BF000D01C06D8A01D061C284B
:10180800F8E11D28D8A4F5D71200196E000E1A6E3B
:1018180002D004D01A2A090E1A64FCD7192EF6D75A
:1018280012001200000E1A6E0C0E196E6C0EC5EC2A
:1018380008F0948E949C9490828012009B0E196EEE
:10184800300E1A6E830E80EC09F09D9C12003F0644
:101858005B4F666D7D077F6F777C395E79719590F8
:101868009592959495969598959E1200939293903B
:0C18780093848192819012001200030002
:020000040020DA
:08000000FFFFFFFFFFFFFFFF00
:020000040030CA
:0E00000015037F7C018991FFFFC0FFE0FF40E8
:00000001FF
