:04000000B0EF00F06D
:10000800FACF0AF0FBCF0BF0E9CF0CF0EACF0DF0F6
:10001800E1CF0EF0E2CF0FF0D9CF10F0DACF11F028
:10002800F3CF12F0F4CF13F0F6CF14F0F7CF15F0AA
:10003800F8CF16F0F5CF17F0F2B4F2AA4BD0010EB4
:100048003A24016E000E3B20026E000E3C20036E27
:10005800000E3D20046E000E056EE10E066EF50ED4
:10006800076E050E086E0BEC0FF001C03AF002C0E7
:100078003BF003C03CF004C03DF0000E026E4E0E93
:10008800016EE7EC10F03AC001F03BC002F03CC052
:1000980003F03DC004F01E0E056E000E066E000E45
:1000A800076E000E086E0BEC0FF0015002100310E3
:1000B8000410D8A408D0441E4450D8B402D0849A5E
:1000C80002D0848A00D03650D8A461EC11F0F4EC48
:1000D8000FF000D0A4AA23D01DCF18F04750D8A401
:1000E8001ED01828D8A404D00A0E426E000E436E03
:1000F8004350D8A40CD042064250010DD40EF3242C
:10010800D96E000EF420DA6E18C0DFFF00D042501E
:10011800D8A405D0010E476E010E436E00D017C05B
:10012800F5FF16C0F8FF15C0F7FF14C0F6FF13C09F
:10013800F4FF12C0F3FF11C0DAFF10C0D9FF0FC0DF
:10014800E2FF0EC0E1FF0DC0EAFF0CC0E9FF0BC0E3
:0C015800FBFF0AC0FAFF110028EF11F0B5
:10100000003F065B4F666D7D077F6F777C395E79A9
:1010100071004704D8A41200FF0E0001E86FFF0E14
:101020000001E96F35500001EA6FEB6B0001E851F8
:101030000001EA270001E9510001EB230001EA5118
:101040003324D96E0001EB513420DA6EAA0EDE187B
:10105000D8B403D0000E476E120020EE01F03350DA
:10106000D9263450DA22DF500001ED6F33C0D9FFAA
:1010700034C0DAFFDF500001EE6F33C026F034C019
:1010800027F00A0E286E43EC0BF020EE01F03350EF
:10109000D9263450DA220001ED51DE18D8B403D03D
:1010A000000E476E120033C0D9FF34C0DAFF0001D2
:1010B000EE51DE18D8B403D0000E476E1200FE0EBB
:1010C0000001E86FFF0E0001E96F35500001EA6F83
:1010D000EB6B0001E8510001EA270001E951000132
:1010E000EB230001EA513324D96E0001EB51342087
:1010F000DA6EDE04D8B420D0FE0E0001E86FFF0ED9
:101100000001E96F35500001EA6FEB6B0001E85117
:101110000001EA270001E9510001EB230001EA5137
:101120003324D96E0001EB513420DA6EDE28D8B4B6
:1011300003D0000E476E1200FD0E0001E86FFF0E97
:101140000001E96F35500001EA6FEB6B0001E851D7
:101150000001EA270001E9510001EB230001EA51F7
:101160003324D96E0001EB513420DA6EDF500001D8
:10117000EF6F100E0001EF610FD00001EF51070D6E
:10118000050EF326000EF4226A0EF324D96E000E2B
:10119000F420DA6E000E25D0200E0001EF610FD092
:1011A0000001EF51070D050EF326000EF4226A0E22
:1011B000F324D96E000EF420DA6E010E12D0300E38
:1011C0000001EF6110D00001EF51070D050EF3266D
:1011D000000EF4226A0EF324D96E000EF420DA6EAB
:1011E000020EDF6E00D0FC0E0001E86FFF0E000162
:1011F000E96F35500001EA6FEB6B0001E851000127
:10120000EA270001E9510001EB230001EA513324F0
:10121000D96E0001EB513420DA6E0001EF51070D59
:101220006A0EF324E16E000EF420E26EDFCFE7FFDA
:10123000FB0E0001E86FFF0E0001E96F3550000161
:10124000EA6FEB6B0001E8510001EA270001E95168
:101250000001EB230001EA513324D96E0001EB5168
:101260003420DA6E0001EF51070D040EF326000E54
:10127000F4226A0EF324E16E000EF420E26EDFCF5A
:10128000E7FFFA0E0001E86FFF0E0001E96F35502D
:101290000001EA6FEB6B0001E8510001EA27000151
:1012A000E9510001EB230001EA513324D96E00011A
:1012B000EB513420DA6E0001EF51070D030EF326D7
:1012C000000EF4226A0EF324E16E000EF420E26EAA
:1012D000DFCFE7FFF90E0001E86FFF0E0001E96FB5
:1012E00035500001EA6FEB6B0001E8510001EA277D
:1012F0000001E9510001EB230001EA513324D96ECA
:101300000001EB513420DA6E0001EF51070D020E9F
:10131000F326000EF4226A0EF324E16E000EF42090
:10132000E26EDFCFE7FFF80E0001E86FFF0E00016D
:10133000E96F35500001EA6FEB6B0001E8510001E5
:10134000EA270001E9510001EB230001EA513324AF
:10135000D96E0001EB513420DA6E0001EF51070D18
:10136000010EF326000EF4226A0EF324E16E000E45
:10137000F420E26EDFCFE7FF0001EF51070D060E0C
:10138000F326000EF4226A0EF324D96E000EF42028
:10139000DA6E010EDF6E000E476E12001200050EAF
:1013A0001E6E72D00001B051D8A44AD01E50020D5A
:1013B000B30EF324D96E000EF420DA6E010EDB506A
:1013C00004E1060EDE5CD8A024D01E50020DB30E40
:1013D000F324D96E000EF420DA6E010EDB5004E126
:1013E0003D0EDE5CD8A00AD01E50010DCF0EF324B6
:1013F000D96E000EF420DA6E050E14D01E50010DC9
:10140000CF0EF324D96E000EF420DA6E010EDF6EDB
:101410000AD01E50010DCF0EF324D96E000EF42019
:10142000DA6E000EDF6E1E50020DB30EF324D96E7D
:10143000000EF420DA6E000EDE6E000EDD6E24D09B
:101440001E50020DB30EF324D96E000EF420DA6E96
:10145000010EDB5004E13D0EDE5CD8A00AD01E5028
:10146000010DCF0EF324D96E000EF420DA6E030EB8
:1014700009D01E50010DCF0EF324D96E000EF420BA
:10148000DA6E040EDF6E00D01E061E28D8A48AD79E
:10149000000E1E6E030E1E6402D0120012001E28E3
:1014A0001D6E040E1D6401D045D01D50010DCF0EE0
:1014B000F324D96E000EF420DA6E1E50010DCF0E0B
:1014C000F324E16E000EF420E26EDE50E618D8A49C
:1014D0002FD01E50010DCF0EF324D96E000EF42034
:1014E000DA6EDF50D8B424D01DC019F0010E1A6E88
:1014F000192A02D0D8901A36192EFCD71EC01BF01C
:10150000010E1C6E1B2A02D0D8901C361B2EFCD755
:101510001C501A100001C36F1E50010DCF0EF32492
:10152000D96E000EF420DA6EDF500001C46F00D0D7
:101530001D2AB7D71E2A030E1E64B1D7120012004F
:10154000EAC033F0346A356A0001E935333601E325
:10155000348033500001F26F0001F251D8A40AD058
:10156000000E0001E86F000E0001E96F000E00019F
:10157000EA6F1200EDC033F0346A356A0001EC35D1
:10158000333601E3348033500001F36F0001F3512F
:10159000D8A40AD0000E0001E86F000E0001E96F28
:1015A000000E0001EA6F1200000E0001EF6F000E46
:1015B0000001F06F000E0001F16F0001F351890F7F
:1015C0000001F25FEAC0F3F00001ED510001F31BEE
:1015D000800E0001F3170001E98FFF0E0001E817EC
:1015E000FF0E0001E917000E0001EA170001EC8F61
:1015F000FF0E0001EB17FF0E0001EC17000E0001BB
:10160000ED17180E0001EE6F00D00001D890EF37F3
:10161000F037F1370001EB510001E85D0001EC51BA
:101620000001E9590001ED510001EA59D8A00ED09E
:101630000001EB510001E85F0001EC510001E95BA2
:101640000001ED510001EA5B0001EF810001D8903B
:10165000E837E937EA370001EE2FD7D700D0EFC0DF
:1016600019F0F0C01AF0F1C01BF0F2C01CF0F3C08A
:101670001DF056EC0DF019C0E8F01AC0E9F01BC0DF
:10168000EAF012001200000E2E6E000E2F6E000EF9
:10169000306E000E316E020E326E35D03250010DBA
:1016A000F3502624D96EF4502720DA6EDF50296ECD
:1016B00029503202F3CF2AF0F4CF2BF0000E2BBECC
:1016C000FF0E2C6E2D6E2E502A24196E2F502B20BB
:1016D0001A6E30502C201B6E31502D201C6EFF0EC8
:1016E0001D6EFF0E1E6E000E1F6E000E206ED3ECE0
:1016F0000EF019C02EF01AC02FF01BC030F01CC025
:1017000031F0322A00D02850325CD8A0C7D720EE62
:1017100001F02650D9262750DA222EC019F02FC00A
:101720001AF030C01BF031C01CF0FF0E1D6E000E11
:101730001E6E000E1F6E000E206E0DEC0EF0195086
:10174000DF6E2EC019F02FC01AF030C01BF031C070
:101750001CF0FF0E1D6E000E1E6E000E1F6E000EA2
:10176000206ED3EC0EF0195026C0D9FF27C0DAFF47
:10177000DF6E20EE01F02650D9262750DA22DE282F
:10178000D8A407D020EE01F02650D9262750DA221F
:10179000DF0626C0D9FF27C0DAFFDE28D8A4120052
:1017A00026C0D9FF27C0DAFFDF061200120020C0D2
:1017B00019F021C01AF0000E1C6E0A0E1B6ECEEC42
:1017C0000FF0010E1924F66E100E1A20F76E0800A5
:1017D000F5CF1EF0030EAAEC11F020C019F021C0C5
:1017E0001AF0000E1C6E0A0E1B6E79EC0FF019C079
:1017F00020F01AC021F020C019F021C01AF0000E0C
:101800001C6E0A0E1B6ECEEC0FF0010E1924F66E44
:10181000100E1A20F76E0800F5CF1EF0020EAAEC8B
:1018200011F020C019F021C01AF0000E1C6E0A0E33
:101830001B6E79EC0FF019C020F01AC021F020C007
:1018400019F021C01AF0000E1C6E0A0E1B6ECEECB1
:101850000FF0010E1924F66E100E1A20F76E080014
:10186000F5CF1EF0010EAAEC11F020C019F021C036
:101870001AF0000E1C6E0A0E1B6E79EC0FF019C0E8
:1018800020F01AC021F020C019F021C01AF0000E7B
:101890001C6E0A0E1B6ECEEC0FF0010E1924F66EB4
:1018A000100E1A20F76E0800F5CF1EF0000EAAECFD
:1018B00011F0120026C02AF02B6A2C6A25342A3631
:1018C00001E32B802A502D6E2D50D8A407D0000E96
:1018D000246E000E256E000E266E120029C02AF01E
:1018E0002B6A2C6A28342A3601E32B802A50326E68
:1018F0003250D8A407D0000E246E000E256E000EC4
:10190000266E120032507B0F2D2626C032F0295051
:10191000321A800E3216258E288EFF0E2716FF0EE5
:101920002816000E2916000E2E6E000E2F6E000EC9
:10193000306E070E316E00D024A007D027502E261F
:1019400028502F222950302200D0D890263225321C
:101950002432D890273628362936312EEDD700D0BC
:10196000090E316E00D024A007D027502E26285013
:101970002F222950302200D0D8902632253224320E
:10198000D89030322F322E32312EEDD700D02EC0EB
:1019900019F02FC01AF030C01BF02DC01CF032C05F
:1019A0001DF056EC0DF019C024F01AC025F01BC034
:1019B00026F012001200CFEC09F00A0E0001C31944
:1019C000D8A40AD00001C405D8A406D03950FF0A13
:1019D000396E1AEC10F000D00001D305D8A402D063
:1019E000460600D0030E0001D319D8A402D0460643
:1019F00000D00001D105D8A402D0462A00D0030EA1
:101A00000001D119D8A402D0462A00D0FA0E4664AB
:101A100002D0090E05D00A0E196E4650B6EC10F031
:101A2000466E00D00001D205D8A40AD04650010D60
:101A3000DE0EF324D96E000EF420DA6EDF2A00D019
:101A4000030E0001D219D8A40AD04650010DDE0EB3
:101A5000F324D96E000EF420DA6EDF2A00D00001E4
:101A6000D005D8A40AD04650010DDE0EF324D96E5D
:101A7000000EF420DA6EDF0600D0030E0001D0194C
:101A8000D8A40AD04650010DDE0EF324D96E000E04
:101A9000F420DA6EDF0600D00001CF05D8A403D011
:101AA000010E386E00D01AEC10F012001C50D8B4A1
:101AB00005D019501A101B10D8A40ED0000E196EA4
:101AC000000E1A6E000E1B6E120006D01C2AD89053
:101AD0001B321A32193200D0000E19141E6E000E7D
:101AE0001A141F6EFE0E1B14206E1E501F102010A5
:101AF000D8B40ED0EBD70CD01C2A010E1926000E3C
:101B00001A22000E1B22D8901B321A32193200D032
:101B1000000E19141E6E000E1A141F6EFF0E1B14F9
:101B2000206E1E501F102010D8B408D0E5D706D064
:101B30001C06D89019361A361B3600D01ABE04D0AF
:101B4000020E1C60F5D700D01CB002D01A9E00D047
:101B5000D8901C321C501B121D50D8B402D01B8EC2
:101B600000D019C019F01AC01AF01BC01BF01200E7
:101B7000120035063550010DF3503324D96EF45060
:101B80003420DA6EFF0EDF6E33C026F034C027F04B
:101B90000A0E286E43EC0BF000D00F0121A3FDD7F5
:101BA00086963550010DF3503324D96EF45034200D
:101BB000DA6EDF500F011C6F00D00F0121B327D068
:101BC000FCD725D03550010DF3503324D96EF45095
:101BD0003420DA6EDE28D8A409D03550010DF35038
:101BE0003324D96EF4503420DA6EDF063550010DFF
:101BF000F3503324D96EF4503420DA6EDF500F01E5
:101C00001C6F00D00F0121B302D0FCD700D03506E5
:101C10003528D8A4D7D786861200000E216E000E74
:101C2000226E000E236E000E246E1D501E101F101B
:101C30002010D8B42FD0010E256E07D0D8901D36B5
:101C40001E361F362036252A00D020BE02D0F6D7F9
:101C500000D0D89021362236233624361D50195C08
:101C60001E501A581F501B5820501C58D8A00AD07C
:101C70001D50195E1E501A5A1F501B5A20501C5AD4
:101C8000218000D0D89020321F321E321D32252EE6
:101C9000E0D700D021C019F022C01AF023C01BF0F9
:101CA00024C01CF012001B6E000E0F01216F000EED
:101CB0000F01226F1BA003D00F01218900D01BA2AE
:101CC00005D00F01218D0F01228D00D01BA403D060
:101CD0000F01218F00D01BA603D00F01228903D052
:101CE0000F01228B00D01BA803D00F01218503D048
:101CF0000F01219500D01BAA03D00F01228700D02D
:101D00001BAC02D0A38A02D0A39A00D01BAE02D093
:101D1000A38801D0A39819C01EFF1A500F011F6F8E
:101D20000F01218B0F01228F12003950D8B41DD022
:101D300046C019F01A6A030E1C6EE80E1B6E14ECF6
:101D400011F04650010DDE0EF324D96E000EF42082
:101D5000DA6EDF50226E22501924206E000E1A20F7
:101D6000216ED7EC0BF0849E120046C019F01A6A5F
:101D7000030E1C6EE80E1B6E14EC11F04650010DA4
:101D8000D40EF324D96E000EF420DA6EDF50226EEA
:101D900022501924206E000E1A20216ED7EC0BF071
:101DA000848E120012001D501E101F102010D8B477
:101DB00029D0010E216E07D0D8901D361E361F3651
:101DC0002036212A00D020BE02D0F6D700D01D50E8
:101DD000195C1E501A581F501B5820501C58D8A070
:101DE00009D01D50195E1E501A5A1F501B5A205000
:101DF0001C5A00D0D89020321F321E321D32212EA4
:101E0000E6D700D019C019F01AC01AF01BC01BF099
:101E10001CC01CF012000550061007100810D8B4A2
:101E200029D0010E096E07D0D89005360636073640
:101E30000836092A00D008BE02D0F6D700D00550D7
:101E4000015C065002580750035808500458D8A0A7
:101E500009D00550015E0650025A0750035A085037
:101E6000045A00D0D8900832073206320532092EC3
:101E7000E6D700D001C001F002C002F003C003F0B9
:101E800004C004F0120005EC12F000D0F3EC11F0E5
:101E90000009D8A4FBD7120E276E830E286E400EC1
:101EA000296EEBEC11F019C021F01AC022F03BECC6
:101EB00011F021C024F022C025F023C026F05AECF6
:101EC0000CF024C0E8F025C0E9F026C0EAF0F00EDE
:101ED0000001EB6F7F0E0001EC6F450E0001ED6F0E
:101EE000A0EC0AF0E8C03EF0E9C03FF0EAC040F0E4
:101EF0001200000E1F6E000E1E6E1B501C10D8B478
:101F000021D0010E1D6E05D0D8901B361C361D2A1F
:101F100000D01CBE02D0F8D700D0D8901E361F3695
:101F20001B50195C1C501A58D8A006D01B50195EC3
:101F30001C501A5A1E8000D0D8901C321B321D2E05
:101F4000ECD700D01EC019F01FC01AF012001D6E91
:101F5000000EC26E000EC16E000EC06E19507C0BDA
:101F6000C26E1AC0C1FF1DC01BF0D8901B36D8909E
:101F70001B36380E1B161DC01CF01C3A0F0E1C160B
:101F8000070E1C161D50800B1C101B10C06E19AEC6
:101F900003D09E9C9D8CF28CC28012001B501C10A2
:101FA000D8B41DD0010E1D6E05D0D8901B361C363E
:101FB0001D2A00D01CBE02D0F8D700D01B50195CDF
:101FC0001C501A58D8A005D01B50195E1C501A5A24
:101FD00000D0D8901C321B321D2EF0D700D019C073
:101FE00019F01AC01AF012007DEC10F00001B0A137
:101FF00004D00001B34BB42B00D00001B0A304D037
:102000000001B54BB62B00D00001B0A504D00001F3
:10201000B74BB82B00D00001B0A704D00001B94BDA
:10202000BA2B00D00001B0A912000001BB4BBC2BA1
:1020300012001200000E0001C26F000E0001C36FFB
:10204000040E196E17D01950020DC50EF324D96E67
:10205000000EF420DA6E000EDE6E000EDD6E1950FA
:10206000010DCF0EF324D96E000EF420DA6E000EAF
:10207000DF6E00D019061928D8A4E5D71200000E8B
:102080000001F46F000E0001F56F000E0001F66F05
:10209000FAEC11F000EC12F074EC11F04EEC11F0CF
:1020A000E2EC11F0BBEC11F000D0D7EC11F0FFEC3A
:1020B00010F095EC0EF0F9D7B0EF00F01B6E010EAA
:1020C0001C6E17D08296010ECAEC11F01C501B1426
:1020D0000009D8B402D0828802D0829800D0010EC4
:1020E000CAEC11F08286010ECAEC11F0D8901C36B1
:1020F00000D01C50D8A4E6D71200000E0001B06F2B
:1021000084B603D00001B08100D084B403D00001B4
:10211000B08300D083BC03D00001B08500D084B868
:1021200003D00001B08700D083BE12000001B08947
:1021300012001200010E036E0350D8B4120001D039
:102140001200200E026E0250D8B40DD001D00BD078
:10215000020E016E0150D8B404D001D002D00106A5
:10216000F9D70206F0D70306E7D712001A6E080E59
:102170001B6E000E1C6E00D0D8901A341C341C6EDE
:10218000D8901A3619501C5CD8A003D019501C5E88
:1021900000D01B2EF1D700D01C501200120003D02B
:1021A00019681A6800D019C01BF01AC01CF01B1E59
:1021B0001C1E1B4A1C2AFF0E1B24196EFF0E1C201E
:1021C0001A6E1A50D76E19C0D6FFF294120003D0BF
:1021D0000168026800D001C003F002C004F0031ED1
:1021E000041E034A042AFF0E0324016EFF0E04207E
:1021F000026E0250D76E01C0D6FFF2941200375023
:10220000D8B403D043EC0FF000D03850D8B412004B
:10221000000E386EDE0E336E000E346E0A0E356E12
:10222000B9EC0DF01200120019501B02F3CF1DF093
:10223000F4CF1EF019501C02F3501E261A501B0238
:10224000F3501E261DC019F01EC01AF01200120015
:1022500000EE60F0880EEE6AE806FDE100EE36F072
:10226000120EEE6AE806FDE1000EF86E100EF76E33
:1022700000013FEF10F021C019F022C01AF01B6AD4
:102280008E0E1C6E000E1D6E56EC0DF019C021F066
:102290001AC022F01BC023F01200120094969498EA
:1022A00086EC11F098EC11F0440E5EEC10F086EC28
:1022B00011F098EC11F08F0E5EEC10F086EC11F03E
:1022C00012000A0E046E0BD0411E4150D8B402D049
:1022D000848E02D0849E00D09AEC10F000D00406C8
:1022E0000428D8A4F1D71200D59CD59AD598D596B4
:1022F000D584D582D580000E1A6E010E196ECFECF2
:1023000010F0D58EF28AD09EF28E12008296010EC7
:10231000CAEC11F08298010ECAEC11F08286010E0F
:10232000CAEC11F08288010ECAEC11F082961200FC
:102330008296010ECAEC11F08288010ECAEC11F0EF
:102340008286010ECAEC11F08298010ECAEC11F0DF
:10235000829612001F6E040E1F60120098EC11F09E
:102360001F50C00F5EEC10F01E505EEC10F086ECBB
:1023700011F012001200000E1A6E0C0E196E6C0E87
:1023800053EC0EF09882989498968686F10E0F0181
:1023900023171200196E000E1A6E02D004D01A2AEA
:1023A000090E1A64FCD7192EF6D712001200DBECC6
:1023B0000CF0D40E336E000E346E0A0E356E09EC3E
:1023C00008F012009B0E196E300E1A6E830EA7ECE9
:1023D0000FF09D9C1200C4501B6EC350196E1BC0A1
:1023E0001AF012001200C2A202D0010E1200000E5A
:1023F000120012001F0E9616848A848C848E12009E
:0E2400001E0E9612C00E95121200C28212001D
:020000040020DA
:08000000FFFFFFFFFFFFFFFF00
:020000040030CA
:0E0000001D037F7F018991FFFFC0FFE0FF40DD
:00000001FF
