:040000004EEF00F0CF
:10000800FACF05F0FBCF06F0E9CF07F0EACF08F00A
:10001800E1CF09F0E2CF0AF0D9CF0BF0DACF0CF03C
:10002800F3CF0DF0F4CF0EF0F6CF0FF0F7CF10F0BE
:10003800F8CF11F0F5CF12F0F2B4F2AA0ED084A4E2
:1000480002D0858E01D0859E8474030E026EDE0E6A
:10005800016E67EC00F0F29400D012C0F5FF11C0F9
:10006800F8FF10C0F7FF0FC0F6FF0EC0F4FF0DC079
:10007800F3FF0CC0DAFF0BC0D9FF0AC0E2FF09C0CA
:10008800E1FF08C0EAFF07C0E9FF06C0FBFF05C0A3
:10009800FAFF1100C4EF00F003D01368146800D011
:1000A80013C015F014C016F0151E161E154A162A90
:1000B800FF0E1524136EFF0E1620146E1450D76E03
:1000C80013C0D6FF120003D00168026800D001C037
:1000D80003F002C004F0031E041E034A042AFF0EA4
:1000E8000324016EFF0E0420026E0250D76E01C079
:1000F800D6FF1200CAEC00F0CFEC00F0A5EC00F03F
:10010800848484868488848A010E166EF40E156EA3
:10011800B7EC00F0847AF8D74EEF00F0100E146EAA
:100128001450D8B4120001D01200280E136E1350C8
:10013800D8B404D001D002D01306F9D71406F0D7EA
:100148001200D59CD59AD598D596D594D592D580B8
:10015800000E146E010E136E50EC00F0D58EF28A6C
:10016800D09EF28E120003D092EC00F000D015065B
:10017800D8A016061528F8E11628D8A4F5D7120035
:10018800196A186A176A00017EEF00F0C30E961606
:0C019800010E976E12003C0E9412120033
:020000040020DA
:08000000FFFFFFFFFFFFFFFF00
:020000040030CA
:0E0000001D127F7F018991FFFFC0FFE0FF40CE
:00000001FF
