:0400000096EFFFF088
:020000040001F9
:10FF2600000E966E12000001C2EFFFF003D0A6ECA1
:10FF3600FFF000D00406D8A005060428F8E105283D
:10FF4600D8A4F5D71200010E036E0350D8B41200E0
:10FF560001D012005E0E026E0250D8B40DD001D050
:10FF66000BD0020E016E0150D8B404D001D002D0DD
:10FF76000106F9D70206F0D70306E7D7120093EC7D
:10FF8600FFF000D08494000E056E1E0E046E99ECF0
:10FF9600FFF08484000E056E1E0E046E99ECFFF0D1
:10FFA6008496000E056E1E0E046E99ECFFF0848694
:10FFB600000E056E1E0E046E99ECFFF08498000E7E
:10FFC600056E1E0E046E99ECFFF08488000E056E19
:10FFD6001E0E046E99ECFFF0849A000E056E1E0E3E
:10FFE600046E99ECFFF0848A000E056E1E0E046EF8
:0AFFF60099ECFFF0C7D700EF00F010
:020000040020DA
:08000000FFFFFFFFFFFFFFFF00
:020000040030CA
:0E0000005D087F7F018991FFFFC0FFE0FF4098
:00000001FF
