:04000000B0EF00F06D
:10000800FACF0AF0FBCF0BF0E9CF0CF0EACF0DF0F6
:10001800E1CF0EF0E2CF0FF0D9CF10F0DACF11F028
:10002800F3CF12F0F4CF13F0F6CF14F0F7CF15F0AA
:10003800F8CF16F0F5CF17F0F2A44CD0010E2B2410
:10004800016E000E2C20026E000E2D20036E000E95
:100058002E20046E000E056E000E066E000E076E52
:10006800000E086EB5EC10F001C02BF002C02CF0A9
:1000780003C02DF004C02EF0000E026E4E0E016E6D
:100088008BEC12F02BC001F02CC002F02DC003F055
:100098002EC004F01E0E056E000E066E000E076ED2
:1000A800000E086EB5EC10F0015002100310041099
:1000B800D8A408D0321E3250D8B402D0849A02D0C4
:1000C800848A00D000017151D8A406EC13F09EEC8C
:1000D80011F000D0A4AA23D01DCF18F03450D8A412
:1000E8001ED01828D8A404D00A0E306E000E316E27
:1000F8003150D8A40CD030063050010DD30EF32463
:10010800D96E000EF420DA6E18C0DFFF00D0305030
:10011800D8A405D0010E346E010E316E00D017C080
:10012800F5FF16C0F8FF15C0F7FF14C0F6FF13C09F
:10013800F4FF12C0F3FF11C0DAFF10C0D9FF0FC0DF
:10014800E2FF0EC0E1FF0DC0EAFF0CC0E9FF0BC0E3
:0C015800FBFF0AC0FAFF1100CDEF12F00F
:10100000003F065B4F666D7D077F6F777C395E79A9
:101010007100000E0001FE6F090E0001FE6502D096
:10102000120012000001FE51070D060EF326000EFD
:10103000F4227B0EF324D96E000EF420DA6EDE0467
:10104000D8A49DD1040E0001FB6FFEC0FCF000018E
:10105000FE51070D7B0EF324D96E000EF420DA6EDC
:10106000DF50D8A414D0000E00016B6F000E6A6F21
:10107000000E0001706F000E00016C6F000E000189
:101080006D6F000E00016F6F000E6E6F68D1000172
:10109000FE51070D7B0EF324D96E000EF420DA6E9C
:1010A000DE04D8B45CD101D05AD10001FE51070D45
:1010B0007B0EF324D96E000EF420DA6E020EDE18D9
:1010C000D8B44DD101D04BD10001FE51070D7B0E9C
:1010D000F324D96E000EF420DA6E030EDE18D8A4C5
:1010E00024D00001FE51070D010EF326000EF4225C
:1010F0007B0EF324D96E000EF420DA6EDF502A6ED8
:101100002A5000016A6F6B6B0001FE51070D020E41
:10111000F326000EF4227B0EF324D96E000EF42089
:10112000DA6EDF5000016B271AD10001FE51070D66
:101130007B0EF324D96E000EF420DA6E040EDE1856
:10114000D8A421D00001FE51070D010EF326000E98
:10115000F4227B0EF324D96E000EF420DA6EDF50F9
:1011600000016C6F0001FE51070D020EF326000E08
:10117000F4227B0EF324D96E000EF420DA6EDF50D9
:1011800000016D6FECD00001FE51070D7B0EF324C2
:10119000D96E000EF420DA6E050EDE18D8A424D025
:1011A0000001FE51070D010EF326000EF4227B0E06
:1011B000F324D96E000EF420DA6EDF502A6E2A5026
:1011C00000016E6F6F6B0001FE51070D020EF326DA
:1011D000000EF4227B0EF324D96E000EF420DA6E9A
:1011E000DF5000016F27BBD00001FE51070D7B0EC1
:1011F000F324D96E000EF420DA6E060EDE18D8A4A1
:1012000011D00001FE51070D010EF326000EF4224D
:101210007B0EF324D96E000EF420DA6EDF5000014D
:10122000706F9DD00001FE51070D7B0EF324D96E27
:10123000000EF420DA6E070EDE18D8A41BD06AC0A8
:10124000F6F000016B510001F76FAA0E0001F86F74
:10125000AA0E0001F96F030E0001FA6FF40E0001EF
:10126000F16F000E0001F26F0A0E0001F36FEDEC5A
:101270000EF075D00001FE51070D7B0EF324D96EE0
:10128000000EF420DA6E080EDE18D8A419D0040E71
:101290000001FA6F6CC0F6F06DC0F7F0AA0E000105
:1012A000F86FAA0E0001F96FF40E0001F16F000E45
:1012B0000001F26F0A0E0001F36FEDEC0EF04FD05B
:1012C0000001FE51070D7B0EF324D96E000EF420B1
:1012D000DA6E090EDE18D8A41BD0050E0001FA6FD5
:1012E0006EC0F6F000016F510001F76FAA0E000109
:1012F000F86FAA0E0001F96FF40E0001F16F000EF5
:101300000001F26F0A0E0001F36FEDEC0EF027D032
:101310000001FE51070D7B0EF324D96E000EF42060
:10132000DA6E0A0EDE18D8A41AD0060E0001FA6F83
:1013300070C0F6F0AA0E0001F76FAA0E0001F86F58
:10134000AA0E0001F96FF40E0001F16F000E00010A
:10135000F26F0A0E0001F36FEDEC0EF000D0000109
:10136000FE51070D060EF326000EF4227B0EF32429
:10137000D96E000EF420DA6E000EDF6E00D0000190
:10138000FE2B090E0001FE654DD61200120034043A
:10139000D8A41200FF0E0001F46FFF0E0001F56FDC
:1013A0000001F3510001F66FF76B0001F4510001E9
:1013B000F6270001F5510001F7230001F651000165
:1013C000F125D96E0001F7510001F221DA6EAA0E63
:1013D000DE18D8B403D0000E346E1200000120EEE7
:1013E00001F0F151D926F251DA22DF500001F96FF4
:1013F000F1C0D9FFF2C0DAFFDF500001FA6FF1C08F
:1014000026F0F2C027F00A0E286EB5EC0CF00001B1
:1014100020EE01F0F151D926F251DA220001F95102
:10142000DE18D8B403D0000E346E1200F1C0D9FF1C
:10143000F2C0DAFF0001FA51DE18D8B403D0000E72
:10144000346E1200FE0E0001F46FFF0E0001F56F06
:101450000001F3510001F66FF76B0001F451000138
:10146000F6270001F5510001F7230001F6510001B4
:10147000F125D96E0001F7510001F221DA6E040E58
:10148000DE18D8B423D0FE0E0001F46FFF0E000169
:10149000F56F0001F3510001F66FF76B0001F45195
:1014A0000001F6270001F5510001F7230001F65174
:1014B0000001F125D96E0001F7510001F221DA6E29
:1014C000DF50D8B403D0000E346E1200FD0E0001C0
:1014D000F46FFF0E0001F56F0001F3510001F66F8C
:1014E000F76B0001F4510001F6270001F5510001EE
:1014F000F7230001F6510001F125D96E0001F751E3
:101500000001F221DA6EDF500001FB6F100E0001C6
:10151000FB610FD00001FB51070D050EF326000EF5
:10152000F4227B0EF324D96E000EF420DA6E000E46
:1015300025D0200E0001FB610FD00001FB51070DEB
:10154000050EF326000EF4227B0EF324D96E000E56
:10155000F420DA6E010E12D0300E0001FB6110D0C3
:101560000001FB51070D050EF326000EF4227B0E41
:10157000F324D96E000EF420DA6E020EDF6E00D076
:10158000000120EE06F0F151D926F251DA220001D5
:10159000FB51070D7B0EF324E16E000EF420E26E8A
:1015A000DFCFE7FF000120EE02F0F151D926F25122
:1015B000DA220001FB51070D010EF326000EF42282
:1015C0007B0EF324E16E000EF420E26EDFCFE7FF26
:1015D000000120EE03F0F151D926F251DA22000188
:1015E000FB51070D020EF326000EF4227B0EF324AE
:1015F000E16E000EF420E26EDFCFE7FF000120EE87
:1016000004F0F151D926F251DA220001FB51070D05
:10161000030EF326000EF4227B0EF324E16E000E7F
:10162000F420E26EDFCFE7FF000120EE05F0F1517C
:10163000D926F251DA220001FB51070D040EF326E0
:10164000000EF4227B0EF324E16E000EF420E26E15
:10165000DFCFE7FF0001FB51070D060EF326000E5A
:10166000F4227B0EF324D96E000EF420DA6E010E04
:10167000DF6E000E346E12001200050E1E6E72D068
:101680000001C151D8A44AD01E50020DC40EF3244B
:10169000D96E000EF420DA6E010EDB5004E1060E66
:1016A000DE5CD8A024D01E50020DC40EF324D96EE7
:1016B000000EF420DA6E010EDB5004E13D0EDE5C1C
:1016C000D8A00AD01E50010D430EF324D96E000E8F
:1016D000F420DA6E050E14D01E50010D430EF324D3
:1016E000D96E000EF420DA6E010EDF6E0AD01E50A5
:1016F000010D430EF324D96E000EF420DA6E000EB5
:10170000DF6E1E50020DC40EF324D96E000EF420BD
:10171000DA6E000EDE6E000EDD6E24D01E50020D5D
:10172000C40EF324D96E000EF420DA6E010EDB50E5
:1017300004E13D0EDE5CD8A00AD01E50010D430E20
:10174000F324D96E000EF420DA6E030E09D01E5079
:10175000010D430EF324D96E000EF420DA6E040E50
:10176000DF6E00D01E061E28D8A48AD7000E1E6E7B
:10177000030E1E6402D0120012001E281D6E040EFD
:101780001D6401D043D01D50010D430EF324D96ECA
:10179000000EF420DA6E1E50010D430EF324E16EAC
:1017A000000EF420E26EDE50E618D8A42DD01E50B4
:1017B000010D430EF324D96E000EF420DA6EDF50D3
:1017C000D8B422D01DC019F0010E1A6E192A02D009
:1017D000D8901A36192EFCD71EC01BF0010E1C6EB5
:1017E0001B2A02D0D8901C361B2EFCD71C501A1076
:1017F000376E1E50010D430EF324D96E000EF420F7
:10180000DA6EDF50386E00D01D2AB9D71E2A030EBB
:101810001E64B3D712001200F2C0F6F00001F76B9D
:10182000F86B0001F1350001F63701E3F7810001A3
:10183000F6510001FD6F0001FD51D8A40AD0000E41
:101840000001F06F000E0001F16F000E0001F26F59
:101850001200F5C0F6F00001F76BF86B0001F435EB
:101860000001F63701E3F7810001F6510001FE6F38
:101870000001FE51D8A40AD0000E0001F06F000E46
:101880000001F16F000E0001F26F1200000E000166
:10189000FA6F000E0001FB6F000E0001FC6F0001EB
:1018A000FE51890F0001FD5FF2C0FEF00001F5510D
:1018B0000001FE1B800E0001FE170001F18FFF0EDC
:1018C0000001F017FF0E0001F117000E0001F217E2
:1018D0000001F48FFF0E0001F317FF0E0001F41753
:1018E000000E0001F517180E0001F96F00D000017D
:1018F000D890FA37FB37FC370001F3510001F05D57
:101900000001F4510001F1590001F5510001F259B3
:10191000D8A00ED00001F3510001F05F0001F45196
:101920000001F15B0001F5510001F25B0001FA8159
:101930000001D890F037F137F2370001F92FD7D7EF
:1019400000D0FAC019F0FBC01AF0FCC01BF0FDC0BB
:101950001CF0FEC01DF053EC0FF019C0F0F01AC0DF
:10196000F1F01BC0F2F012001200000E0001EC6F4B
:10197000000EED6F000EEE6F000EEF6F020E000115
:10198000F06F43D00001F051010DF3502624D96EC1
:10199000F4502720DA6EDF500001E76F0001E751B5
:1019A0000001F003F3CFE8F0F4CFE9F0000E0001FE
:1019B000E9BFFF0EEA6FEB6F0001EC510001E82573
:1019C000196E0001ED510001E9211A6E0001EE517E
:1019D0000001EA211B6E0001EF510001EB211C6E9A
:1019E000FF0E1D6EFF0E1E6E000E1F6E000E206E8F
:1019F0007DEC10F019C0ECF01AC0EDF01BC0EEF059
:101A00001CC0EFF00001F02B00D028500001F05D69
:101A1000D8A0B8D720EE01F02650D9262750DA22D8
:101A2000ECC019F0EDC01AF0EEC01BF0EFC01CF0D6
:101A3000FF0E1D6E000E1E6E000E1F6E000E206E3D
:101A4000B6EC0FF01950DF6EECC019F0EDC01AF0D3
:101A5000EEC01BF0EFC01CF0FF0E1D6E000E1E6EE0
:101A6000000E1F6E000E206E7DEC10F0195026C087
:101A7000D9FF27C0DAFFDF6E20EE01F02650D9260D
:101A80002750DA22DE28D8A407D020EE01F0265015
:101A9000D9262750DA22DF0626C0D9FF27C0DAFF71
:101AA000DE28D8A4120026C0D9FF27C0DAFFDF063F
:101AB0001200120026C0E7F00001E86BE96B253444
:101AC0000001E73701E3E8810001E7510001EA6F17
:101AD0000001EA51D8A407D0000E246E000E256E36
:101AE000000E266E120029C0E7F00001E86BE96BDA
:101AF00028340001E73701E3E8810001E7510001E4
:101B0000EF6F0001EF51D8A407D0000E246E000E35
:101B1000256E000E266E12000001EF517B0F0001B2
:101B2000EA2726C0EFF029500001EF1B800E0001CC
:101B3000EF17258E288EFF0E2716FF0E2816000E93
:101B40002916000E0001EB6F000E0001EC6F000E75
:101B50000001ED6F070E0001EE6F00D024A00AD047
:101B600027500001EB2728500001EC2329500001E9
:101B7000ED2300D0D890263225322432D890273653
:101B8000283629360001EE2FE9D700D0090E0001D2
:101B9000EE6F00D024A00AD027500001EB27285078
:101BA0000001EC2329500001ED2300D0D89026320B
:101BB000253224320001D890ED33EC33EB330001B1
:101BC000EE2FE8D700D0EBC019F0ECC01AF0EDC052
:101BD0001BF0EAC01CF0EFC01DF053EC0FF019C071
:101BE00024F01AC025F01BC026F01200120020C0FD
:101BF00019F021C01AF0000E1C6E0A0E1B6E78EC54
:101C000011F0010E1924F66E100E1A20F76E08005E
:101C1000F5CF1EF0030E4FEC13F020C019F021C0D9
:101C20001AF0000E1C6E0A0E1B6E23EC11F019C088
:101C300020F01AC021F020C019F021C01AF0000EC7
:101C40001C6E0A0E1B6E78EC11F0010E1924F66E54
:101C5000100E1A20F76E0800F5CF1EF0020E4FECA2
:101C600013F020C019F021C01AF0000E1C6E0A0EED
:101C70001B6E23EC11F019C020F01AC021F020C017
:101C800019F021C01AF0000E1C6E0A0E1B6E78ECC3
:101C900011F0010E1924F66E100E1A20F76E0800CE
:101CA000F5CF1EF0010E4FEC13F020C019F021C04B
:101CB0001AF0000E1C6E0A0E1B6E23EC11F019C0F8
:101CC00020F01AC021F020C019F021C01AF0000E37
:101CD0001C6E0A0E1B6E78EC11F0010E1924F66EC4
:101CE000100E1A20F76E0800F5CF1EF0000E4FEC14
:101CF00013F012003DEC0BF00A0E3718D8A40BD0ED
:101D00003804D8A408D000017451FF0A0001746F90
:101D1000C4EC11F000D04704D8A402D0330600D0A0
:101D2000030E4718D8A402D0330600D04504D8A427
:101D300002D0332A00D0030E4518D8A402D0332A8B
:101D400000D0FA0E336402D0090E05D00A0E196EC7
:101D500033505AEC12F0336E00D04604D8A40AD0A7
:101D60003350010DDD0EF324D96E000EF420DA6E2F
:101D7000DF2A00D0030E4618D8A40AD03350010D34
:101D8000DD0EF324D96E000EF420DA6EDF2A00D0C7
:101D90004404D8A40AD03350010DDD0EF324D96ECB
:101DA000000EF420DA6EDF0600D0030E4418D8A42B
:101DB0000AD03350010DDD0EF324D96E000EF4204D
:101DC000DA6EDF0600D04304D8A404D0010E00016F
:101DD000736F00D0C4EC11F012000001F307000192
:101DE000F351010DF3500001F125D96EF4500001BB
:101DF000F221DA6EFF0EDF6EF1C026F0F2C027F09E
:101E0000F3C028F0B5EC0CF000D00F0121A3FDD7F2
:101E100086960001F351010DF3500001F125D96EB2
:101E2000F4500001F221DA6EDF500F011C6F00D078
:101E30000F0121B330D0FCD72ED00001F351010D9A
:101E4000F3500001F125D96EF4500001F221DA6E51
:101E5000DE28D8A40CD00001F351010DF35000018D
:101E6000F125D96EF4500001F221DA6EDF0600018F
:101E7000F351010DF3500001F125D96EF45000012A
:101E8000F221DA6EDF500F011C6F00D00F0121B379
:101E900002D0FCD700D00001F3070001F329D8A439
:101EA000CCD7868612001C50D8B405D019501A1011
:101EB0001B10D8A40ED0000E196E000E1A6E000E64
:101EC0001B6E120006D01C2AD8901B321A3219320F
:101ED00000D0000E19141E6E000E1A141F6EFE0E96
:101EE0001B14206E1E501F102010D8B40ED0EBD73C
:101EF0000CD01C2A010E1926000E1A22000E1B22DD
:101F0000D8901B321A32193200D0000E19141E6EEE
:101F1000000E1A141F6EFF0E1B14206E1E501F1091
:101F20002010D8B408D0E5D706D01C06D8901936B2
:101F30001A361B3600D01ABE04D0020E1C60F5D72C
:101F400000D01CB002D01A9E00D0D8901C321C5079
:101F50001B121D50D8B402D01B8E00D019C019F02E
:101F60001AC01AF01BC01BF012001200000E216EE6
:101F7000000E226E000E236E000E246E1D501E10E9
:101F80001F102010D8B42FD0010E256E07D0D89086
:101F90001D361E361F362036252A00D020BE02D020
:101FA000F6D700D0D89021362236233624361D505D
:101FB000195C1E501A581F501B5820501C58D8A08E
:101FC0000AD01D50195E1E501A5A1F501B5A20501D
:101FD0001C5A218000D0D89020321F321E321D3270
:101FE000252EE0D700D021C019F022C01AF023C05E
:101FF0001BF024C01CF012001B6E000E0F01216F9D
:10200000000E0F01226F1BA003D00F01218900D009
:102010001BA205D00F01218D0F01228D00D01BA422
:1020200003D00F01218F00D01BA603D00F012289FE
:1020300003D00F01228B00D01BA803D00F012185F4
:1020400003D00F01219500D01BAA03D00F012287D6
:1020500000D01BAC02D0A38A02D0A39A00D01BAE42
:1020600002D0A38801D0A39819C01EFF1A500F01F7
:102070001F6F0F01218B0F01228F1200000174517D
:10208000D8B41DD033C019F01A6A030E1C6EE80EC6
:102090001B6EB9EC12F03350010DDD0EF324D96E36
:1020A000000EF420DA6EDF50226E22501924206ECA
:1020B000000E1A20216EF7EC0DF0849E120033C042
:1020C00019F01A6A030E1C6EE80E1B6EB9EC12F0C2
:1020D0003350010DD30EF324D96E000EF420DA6EC6
:1020E000DF50226E22501924206E000E1A20216E1D
:1020F000F7EC0DF0848E120012001D501E101F1000
:102100002010D8B429D0010E216E07D0D8901D36EA
:102110001E361F362036212A00D020BE02D0F6D728
:1021200000D01D50195C1E501A581F501B582050CB
:102130001C58D8A009D01D50195E1E501A5A1F50A5
:102140001B5A20501C5A00D0D89020321F321E3209
:102150001D32212EE6D700D019C019F01AC01AF08E
:102160001BC01BF01CC01CF012000550061007100D
:102170000810D8B429D0010E096E07D0D8900536C2
:10218000063607360836092A00D008BE02D0F6D730
:1021900000D00550015C0650025807500358085003
:1021A0000458D8A009D00550015E0650025A0750C5
:1021B000035A0850045A00D0D89008320732063229
:1021C0000532092EE6D700D001C001F002C002F0AE
:1021D00003C003F004C004F01200AFEC13F000D011
:1021E0009DEC13F00009D8A4FBD7120E276E830EC6
:1021F000286E400E296E95EC13F019C021F01AC01C
:1022000022F0E0EC12F021C024F022C025F023C01F
:1022100026F05AEC0DF024C0F0F025C0F1F026C0F5
:10222000F2F0F00E0001F36F7F0E0001F46F450E27
:102230000001F56F0CEC0CF0F0C078F0F1C079F013
:10224000F2C07AF01200000E1E6E000E1D6E1B50C2
:102250001C10D8B421D0010E1F6E05D0D8901B36AB
:102260001C361F2A00D01CBE02D0F8D700D0D89050
:102270001D361E361B50195C1C501A58D8A006D0AB
:102280001B50195E1C501A5A1D8000D0D8901C3269
:102290001B321F2EECD700D01DC019F01EC01AF043
:1022A00012001D6E000EC26E000EC16E000EC06EDA
:1022B00019507C0BC26E1AC0C1FF1DC01BF0D89014
:1022C0001B36D8901B36380E1B161DC01CF01C3A4E
:1022D0000F0E1C16070E1C161D50800B1C101B1019
:1022E000C06E19AE03D09E9C9D8CF28CC2801200F1
:1022F0001B501C10D8B41DD0010E1D6E05D0D890F7
:102300001B361C361D2A00D01CBE02D0F8D700D0C8
:102310001B50195C1C501A58D8A005D01B50195ED0
:102320001C501A5A00D0D8901C321B321D2EF0D7E8
:1023300000D019C019F01AC01AF0120006EC12F001
:102340000001C1A104D00001C44BC52B00D0000185
:10235000C1A304D00001C64BC72B00D00001C1A50A
:1023600004D00001C84BC92B00D00001C1A704D084
:102370000001CA4BCB2B00D00001C1A91200000103
:10238000CC4BCD2B12001200000E366E000E376EB5
:10239000040E196E17D01950020D390EF324D96EA0
:1023A000000EF420DA6E000EDE6E000EDD6E1950A7
:1023B000010D430EF324D96E000EF420DA6E000EE8
:1023C000DF6E00D019061928D8A4E5D712001B6EBD
:1023D000010E1C6E17D08296010E7FEC13F01C507C
:1023E0001B140009D8B402D0828802D0829800D091
:1023F000010E7FEC13F08286010E7FEC13F0D89073
:102400001C3600D01C50D8A4E6D71200000E0001E4
:10241000C16F84B603D00001C18100D084B403D061
:102420000001C18300D083BC03D00001C18500D06E
:1024300084B803D00001C18700D083BE1200000120
:10244000C18912001200010E036E0350D8B41200AD
:1024500001D01200200E026E0250D8B40DD001D06F
:102460000BD0020E016E0150D8B404D001D002D0BE
:102470000106F9D70206F0D70306E7D712000001DC
:102480007251D8B403D0EDEC10F000D000017351BC
:10249000D8B41200000E0001736FDD0E0001F16F61
:1024A000000E0001F26F0A0E0001F36FEDEC0EF06A
:1024B000120012001A6E080E1B6E000E1C6E00D069
:1024C000D8901A341C341C6ED8901A3619501C5CE3
:1024D000D8A003D019501C5E00D01B2EF1D700D01D
:1024E0001C501200120003D019681A6800D019C0DD
:1024F0001BF01AC01CF01B1E1C1E1B4A1C2AFF0EC0
:102500001B24196EFF0E1C201A6E1A50D76E19C0AC
:10251000D6FFF294120003D00168026800D001C017
:1025200003F002C004F0031E041E034A042AFF0E37
:102530000324016EFF0E0420026E0250D76E01C00C
:10254000D6FFF2941200A4EC13F0AAEC13F019ECED
:1025500013F0F3EC12F08CEC13F070EC13F000D0ED
:1025600060EC13F03FEC12F03EEC10F0F9D7B0EF56
:1025700000F019501B02F3CF1DF0F4CF1EF01950DC
:102580001C02F3501E261A501B02F3501E261DC0BB
:1025900019F01EC01AF01200120000EE60F0870E53
:1025A000EE6AE806FDE100EE2BF01D0EEE6AE8068D
:1025B000FDE1000EF86E100EF76E0001A3EF12F0B1
:1025C00021C019F022C01AF01B6A8E0E1C6E000E7C
:1025D0001D6E53EC0FF019C021F01AC022F01BC081
:1025E00023F012001200949694982BEC13F03DEC1B
:1025F00013F0440EE7EC11F02BEC13F03DEC13F06C
:102600008F0EE7EC11F02BEC13F012000A0E046EA3
:102610000BD02F1E2F50D8B402D0848E02D0849EAF
:1026200000D023EC12F000D004060428D8A4F1D77F
:102630001200D59CD59AD598D596D584D582D580CB
:10264000000E1A6E010E196E73EC12F0D58EF28A1E
:10265000D09EF28E12008296010E7FEC13F08298CB
:10266000010E7FEC13F08286010E7FEC13F082885E
:10267000010E7FEC13F0829612008296010E7FEC21
:1026800013F08288010E7FEC13F08286010E7FEC3E
:1026900013F08298010E7FEC13F0829612001F6EE9
:1026A000040E1F6012003DEC13F01F50C00FE7EC4A
:1026B00011F01E50E7EC11F02BEC13F01200120099
:1026C0007AEC0EF0D30E0001F16F000E0001F26FF4
:1026D0000A0E0001F36FC7EC09F009EC08F01200D4
:1026E000000E1A6E0C0E196E6C0EFCEC0FF0988238
:1026F000989498968686F10E0F0123171200196E92
:10270000000E1A6E02D004D01A2A090E1A64FCD7E1
:10271000192EF6D7120012009B0E196E300E1A6E8B
:10272000830E51EC11F09D9C1200C4501B6EC350DF
:10273000196E1BC01AF012001200C2A202D0010EC4
:102740001200000E120012001F0E9616848A848C4E
:10275000848E12001E0E9612C00E95121200C282B6
:02276000120065
:020000040020DA
:08000000FFFFFFFFFFFFFFFF00
:020000040030CA
:0E00000015037F7C018991FFFFC0FFE0FF40E8
:00000001FF
