:04000000CAEF00F053
:10000800FACF0AF0FBCF0BF0E9CF0CF0EACF0DF0F6
:10001800E1CF0EF0E2CF0FF0D9CF10F0DACF11F028
:10002800F3CF12F0F4CF13F0F6CF14F0F7CF15F0AA
:10003800F8CF16F0F5CF17F0F2A466D0010E2724FA
:10004800016E000E2820026E000E2920036E000E9D
:100058002A20046E000E056E000E066E000E076E56
:10006800000E086EDDEC0BF001C027F002C028F08E
:1000780003C029F004C02AF027C001F028C002F00C
:1000880029C003F02AC004F02C0E056E010E066E7E
:10009800000E076E000E086EDDEC0BF0015002102A
:1000A80003100410D8A410D02E1E2E50D8B406D099
:1000B800010E016E030E5DEC0DF006D0000E016E10
:1000C800030E5DEC0DF000D027C001F028C002F04F
:1000D80029C003F02AC004F00A0E056E000E066E51
:1000E800000E076E000E086EDDEC0BF001500210DA
:1000F80003100410D8B47FEC0DF0000E026E080E49
:10010800016E44EC0EF000D09EAA23D0AECF18F0BA
:100118003150D8A41ED01828D8A404D0070E2C6EAD
:10012800000E2D6E2D50D8A40CD02C062C50010D8D
:10013800CC0EF324D96E000EF420DA6E18C0DFFF5F
:1001480000D02C50D8A405D0010E316E010E2D6EB2
:1001580000D017C0F5FF16C0F8FF15C0F7FF14C090
:10016800F6FF13C0F4FF12C0F3FF11C0DAFF10C08E
:10017800D9FF0FC0E2FF0EC0E1FF0DC0EAFF0CC0BF
:10018800E9FF0BC0FBFF0AC0FAFF110019EF0DF0E1
:10100000003F065B4F666D7D077F6F777C395E79A9
:1010100071000000000000000000060E1E6E71D07E
:101020003250D8A44AD01E50020D350EF324D96E8A
:10103000000EF420DA6E010EDB5004E1060EDE5CD9
:10104000D8A024D01E50020D350EF324D96E000E08
:10105000F420DA6E010EDB5004E13D0EDE5CD8A018
:101060000AD01E50010DC60EF324D96E000EF420D6
:10107000DA6E050E14D01E50010DC60EF324D96E83
:10108000000EF420DA6E010EDF6E0AD01E50010D44
:10109000C60EF324D96E000EF420DA6E000EDF6E59
:1010A0001E50020D350EF324D96E000EF420DA6EB8
:1010B000000EDE6E000EDD6E24D01E50020D350EC9
:1010C000F324D96E000EF420DA6E010EDB5004E139
:1010D0003D0EDE5CD8A00AD01E50010DC60EF324D2
:1010E000D96E000EF420DA6E030E09D01E50010DE9
:1010F000C60EF324D96E000EF420DA6E040EDF6EF5
:1011000000D01E061E28D8A48BD7000E1E6E040E1B
:101110001E6402D0120012001E281D6E050E1D64F2
:1011200001D045D01D50010DC60EF324D96E000E1E
:10113000F420DA6E1E50010DC60EF324E16E000E8F
:10114000F420E26EDE50E618D8A42FD01E50010D18
:10115000C60EF324D96E000EF420DA6EDF50D8B438
:1011600024D01DC019F0010E1A6E192A02D0D89091
:101170001A36192EFCD71EC01BF0010E1C6E1B2A3E
:1011800002D0D8901C361B2EFCD71C501A10000120
:10119000B86F1E50010DC60EF324D96E000EF42058
:1011A000DA6EDF500001B96F00D01D2AB7D71E2AB2
:1011B000040E1E64B1D7120012000001AA05D8A4C3
:1011C0001200FF0E0001EA6FFF0E0001EB6F00013D
:1011D000E9510001EC6FED6B0001EA510001EC27D1
:1011E0000001EB510001ED230001EC510001E72566
:1011F000D96E0001ED510001E821DA6EAA0EDE1869
:10120000D8B404D0000E0001AA6F1200000120EE35
:1012100001F0E751D926E851DA22DF500001F06FE2
:10122000E7C0D9FFE8C0DAFFDF500001F16FE7C087
:10123000DAF0E8C0DBF0070E0001DC6F92EC09F099
:10124000000120EE01F0E751D926E851DA22000131
:10125000F051DE18D8B404D0000E0001AA6F1200BD
:10126000E7C0D9FFE8C0DAFF0001F151DE18D8B4B9
:1012700004D0000E0001AA6F1200FE0E0001EA6FFA
:10128000FF0E0001EB6F0001E9510001EC6FED6B07
:101290000001EA510001EC270001EB510001ED23B0
:1012A0000001EC510001E725D96E0001ED5100016C
:1012B000E821DA6EDF50D8B425D0FE0E0001EA6FC7
:1012C000FF0E0001EB6F0001E9510001EC6FED6BC7
:1012D0000001EA510001EC270001EB510001ED2370
:1012E0000001EC510001E725D96E0001ED5100012C
:1012F000E821DA6E080EDE18D8B404D0000E000122
:10130000AA6F12000001EF51050D600EF324D96E93
:10131000000EF420DA6E010EDF6E000E0001AA6FDF
:1013200012001200000E0001E26F000EE36F000ECB
:10133000E46F000EE56F020E0001E66F45D000017C
:10134000E651010DF3500001DA25D96EF450000189
:10135000DB21DA6EDF500001DD6F0001DD5100019D
:10136000E603F3CFDEF0F4CFDFF0000E0001DFBFC5
:10137000FF0EE06FE16F0001E2510001DE25196E02
:101380000001E3510001DF211A6E0001E451000168
:10139000E0211B6E0001E5510001E1211C6EFF0EF2
:1013A0001D6EFF0E1E6E000E1F6E000E206EA5EC51
:1013B0000BF019C0E2F01AC0E3F01BC0E4F01CC04F
:1013C000E5F00001E62B00D00001DC510001E65DF4
:1013D000D8A0B5D7000120EE01F0DA51D926DB51B3
:1013E000DA22E2C019F0E3C01AF0E4C01BF0E5C055
:1013F0001CF0FF0E1D6E000E1E6E000E1F6E000E06
:10140000206E24EC0BF01950DF6EE2C019F0E3C03F
:101410001AF0E4C01BF0E5C01CF0FF0E1D6E000EBC
:101420001E6E000E1F6E000E206EA5EC0BF0195004
:10143000DAC0D9FFDBC0DAFFDF6E000120EE01F079
:10144000DA51D926DB51DA22DE28D8A408D00001EF
:1014500020EE01F0DA51D926DB51DA22DF06DAC0BC
:10146000D9FFDBC0DAFFDE28D8A41200DAC0D9FF2A
:10147000DBC0DAFFDF061200120020C019F021C025
:101480001AF0000E1C6E0A0E1B6ECEEC0CF0010E54
:101490001924F66E100E1A20F76E0800F5CF1EF014
:1014A000030E03EC0FF020C019F021C01AF0000E5B
:1014B0001C6E0A0E1B6E79EC0CF019C020F01AC0DD
:1014C00021F020C019F021C01AF0000E1C6E0A0E87
:1014D0001B6ECEEC0CF0010E1924F66E100E1A20C5
:1014E000F76E0800F5CF1EF0020E03EC0FF020C0DF
:1014F00019F021C01AF0000E1C6E0A0E1B6E79EC5A
:101500000CF019C020F01AC021F020C019F021C041
:101510001AF0000E1C6E0A0E1B6ECEEC0CF0010EC3
:101520001924F66E100E1A20F76E0800F5CF1EF083
:10153000010E03EC0FF020C019F021C01AF0000ECC
:101540001C6E0A0E1B6E79EC0CF019C020F01AC04C
:1015500021F020C019F021C01AF0000E1C6E0A0EF6
:101560001B6ECEEC0CF0010E1924F66E100E1A2034
:10157000F76E0800F5CF1EF0000E03EC0FF012001E
:101580000001E9070001E951010DF3500001E725D1
:10159000D96EF4500001E821DA6EFF0EDF6EE7C06D
:1015A000DAF0E8C0DBF0E9C0DCF092EC09F000D042
:1015B000ACA2FED782900001E951010DF350000169
:1015C000E725D96EF4500001E821DA6EDF50AD6EE8
:1015D00000D0ACB22ED0FDD72CD00001E951010DC6
:1015E000F3500001E725D96EF4500001E821DA6ECE
:1015F000DE28D8A40CD00001E951010DF350000100
:10160000E725D96EF4500001E821DA6EDF0600010B
:10161000E951010DF3500001E725D96EF4500001A6
:10162000E821DA6EDF50AD6E00D0ACB202D0FDD74B
:1016300000D00001E9070001E929D8A4CED78280B3
:10164000000E0001A46F1200000E216E000E226E2B
:10165000000E236E000E246E1D501E101F10201051
:10166000D8B42FD0010E256E07D0D8901D361E3667
:101670001F362036252A00D020BE02D0F6D700D053
:10168000D89021362236233624361D50195C1E5040
:101690001A581F501B5820501C58D8A00AD01D5053
:1016A000195E1E501A5A1F501B5A20501C5A218076
:1016B00000D0D89020321F321E321D32252EE0D7A6
:1016C00000D021C019F022C01AF023C01BF024C0A2
:1016D0001CF012001F6E1F04D8A409D01E50D8B4ED
:1016E00003D08380839203D08390838200D0020E44
:1016F0001F18D8A409D01E50D8B403D08384839671
:1017000003D08394838600D0030E1F18D8A409D079
:101710001E50D8B403D08388839E03D08398838ED1
:1017200000D01F50D8B40AD0040E1F6007D0000E9E
:101730001D6E040E1C6E23EC0FF000D0839083927C
:10174000839483968398839E12001D501E101F1051
:101750002010D8B429D0010E216E07D0D8901D36A4
:101760001E361F362036212A00D020BE02D0F6D7E2
:1017700000D01D50195C1E501A581F501B58205085
:101780001C58D8A009D01D50195E1E501A5A1F505F
:101790001B5A20501C5A00D0D89020321F321E32C3
:1017A0001D32212EE6D700D019C019F01AC01AF048
:1017B0001BC01BF01CC01CF01200055006100710C7
:1017C0000810D8B429D0010E096E07D0D89005367C
:1017D000063607360836092A00D008BE02D0F6D7EA
:1017E00000D00550015C06500258075003580850BD
:1017F0000458D8A009D00550015E0650025A07507F
:10180000035A0850045A00D0D890083207320632E2
:101810000532092EE6D700D001C001F002C002F067
:1018200003C003F004C004F012001B6E000EAC6E87
:10183000000EAB6E1BA002D0AC8800D01BA203D060
:10184000AC8CAB8C00D01BA402D0AC8E00D01BA6FD
:1018500002D0AB8802D0AB8A00D01BA802D0AC84E7
:1018600000D01BAA02D0AB8600D01BAC02D09D8A50
:1018700002D09D9A00D01BAE02D09D8801D09D98C9
:1018800019C0AFFF1A50D46EAC8AAB8E12000DECAB
:1018900008F000019F51D8B403D05CEC0EF026D0C4
:1018A0000001A151D8A403D080EC0FF01FD000019B
:1018B000A105D8A403D079EC0FF018D0020E0001D6
:1018C000A119D8A403D072EC0FF010D0030E0001C0
:1018D000A119D8A403D06BEC0FF008D0040E0001BE
:1018E000A119D8A403D064EC0FF000D0F4EC0CF0F4
:1018F0001200000E1E6E000E1D6E1B501C10D8B480
:1019000021D0010E1F6E05D0D8901B361C361F2A21
:1019100000D01CBE02D0F8D700D0D8901D361E369D
:101920001B50195C1C501A58D8A006D01B50195EC9
:101930001C501A5A1D8000D0D8901C321B321F2E0A
:10194000ECD700D01DC019F01EC01AF012001D6E99
:10195000000EC26E000EC16E000EC06E19507C0BE0
:10196000C26E1AC0C1FF1DC01BF0D8901B36D890A4
:101970001B36380E1B161DC01CF01C3A0F0E1C1611
:10198000070E1C161D50800B1C101B10C06E19AECC
:1019900003D09E9C9D8CF28CC28012001B501C10A8
:1019A000D8B41DD0010E1D6E05D0D8901B361C3644
:1019B0001D2A00D01CBE02D0F8D700D01B50195CE5
:1019C0001C501A58D8A005D01B50195E1C501A5A2A
:1019D00000D0D8901C321B321D2EF0D700D019C079
:1019E00019F01AC01AF01200000E0001B76F000EB5
:1019F0000001B86F040E196E17D01950020DBA0EFF
:101A0000F324D96E000EF420DA6E000EDE6E000EA6
:101A1000DD6E1950010DC60EF324D96E000EF420B0
:101A2000DA6E000EDF6E00D019061928D8A4E5D7AB
:101A3000120001EE00F0290EEE6AE806FDE100EE6C
:101A400060F07A0EEE6AE806FDE100EE27F0200E67
:101A5000EE6AE806FDE1280EF66E1F0EF76E000E28
:101A6000F86E0900F5CF47F0000EF86E100EF76E15
:101A7000000112EF0EF00001EA6F000E0001F26F9C
:101A8000EAC0F3F0AA0E0001ED6FAA0E0001EE6F9E
:101A9000AA0E0001EF6FAA0E0001F06F030E000105
:101AA000F16FEB0E0001E76F000E0001E86F070E0B
:101AB0000001E96FC0EC0AF01200026E0204D8A423
:101AC00007D00150D8B402D02F8002D02F9000D080
:101AD000020E0218D8A407D00150D8B402D02F8229
:101AE00002D02F9200D0030E0218D8A41200015089
:101AF000D8B402D02F8412002F9412001200F7ECF9
:101B00000DF032A003D0354A362A00D032A203D0DD
:101B1000374A382A00D032A403D0394A3A2A00D0B2
:101B200032A603D03B4A3C2A00D032A803D03D4A1B
:101B30003E2A00D032AA12003F4A402A1200120068
:101B40001B6E010E1C6E17D0839C010E30EC0FF043
:101B50001C501B140009D8B402D0838A02D0839A87
:101B600000D0010E30EC0FF0838C010E30EC0FF042
:101B7000D8901C3600D01C50D8A4E6D71200000123
:101B8000A451D8B40CD0D30E0001E76F000E0001B1
:101B9000E86F070E0001E96FC0EC0AF000D0000109
:101BA000EA51BBEC0EF00001EA51CDEC0EF03050E2
:101BB000CDEC0EF01200010E1B6E1B50D8B41200BB
:101BC00001D012005E0E1A6E1A50D8B40DD001D09A
:101BD0000BD0020E196E1950D8B404D001D002D027
:101BE0001906F9D71A06F0D71B06E7D71200000E20
:101BF000326E82B202D0328000D085B202D0328200
:101C000000D085B402D0328400D080B802D03286B1
:101C100000D080BA02D0328800D085B61200328A55
:101C20001200120093EC0FF014EC0FF097EC0EF092
:101C300084EC0EF054EC0FF03DEC0FF05DEC0FF087
:101C40008DEC0FF000D0A9EC0EF0BFEC0DF087EC9E
:101C50000FF0F9D7CAEF00F003D019681A6800D066
:101C600019C01BF01AC01CF01B1E1C1E1B4A1C2A8C
:101C7000FF0E1B24196EFF0E1C201A6E1A50D76E11
:101C800019C0D6FFF294120003D00168026800D098
:101C900001C003F002C004F0031E041E034A042A1C
:101CA000FF0E0324016EFF0E0420026E0250D76E59
:101CB00001C0D6FFF2941200180E0001B819D8A482
:101CC00012000001B905D8A4120000019F05D8A494
:101CD00004D0010E0001AB6F00D0F4EC0CF0120048
:101CE00012000001A905D8A4120047503BEC0DF0EA
:101CF000472A070E4718D8A402D0030E476E000EDD
:101D00000001A96F12001200959A959CDFEC0EF06D
:101D1000F1EC0EF0440EA0EC0DF0DFEC0EF0F1EC67
:101D20000EF08F0EA0EC0DF0DFEC0EF01200D59C43
:101D3000D59AD598D596D584D582D580000E1A6EC1
:101D4000010E196E2CEC0EF0D58EF28AD09EF28E1A
:101D5000120071EC0EF047EC0CF0CC0E0001E76FB6
:101D6000000E0001E86F070E0001E96FDDEC08F0DE
:101D700049EC0FF01200206E010E1E6E20506AEC2E
:101D80000BF0000E1D6E640E1C6E23EC0FF0000EA7
:101D90001E6E20506AEC0BF01200206E010E1E6EBB
:101DA00020506AEC0BF0000E1D6E640E1C6E23ECCE
:101DB0000FF0000E1E6E20506AEC0BF01200839C98
:101DC000010E30EC0FF0839A010E30EC0FF0838C93
:101DD000010E30EC0FF0838A010E30EC0FF0839C83
:101DE0001200839C010E30EC0FF0838A010E30EC60
:101DF0000FF0838C010E30EC0FF0839A010E30EC63
:101E00000FF0839C12001F6E100E1F601200F1EC89
:101E10000EF01F50C00FA0EC0DF01E50A0EC0DF006
:101E2000DFEC0EF012001200948297829784928861
:101E3000928A97860F0125990F01259D0F01259FF5
:101E40000F012491120003D0DBEC0DF000D01C0632
:101E5000D8A01D061C28F8E11D28D8A4F5D712002B
:101E6000196E000E1A6E02D004D01A2A090E1A64D6
:101E7000FCD7192EF6D712001200000E1A6E0C0EA7
:101E8000196E6C0E15EC0CF0948E949C94908280DC
:101E900012001950050D600EF324D96E000EF420C7
:101EA000DA6E000EDF6E12009B0E196E300E1A6E87
:101EB000830EA7EC0CF09D9C120095909592959442
:101EC00095969598959E1200110E216E5C0E206ECF
:101ED0003DEC0AF012000D0E216E050E206E3DEC59
:101EE0000AF01200080E216EAE0E206E3DEC0AF0D4
:101EF0001200040E216E570E206E3DEC0AF0120007
:101F00001A0E216E0A0E206E3DEC0AF012002FC050
:101F10001EF0040E03EC0FF0120081928190939258
:0A1F20009390938412001200030056
:020000040020DA
:08000000FFFFFFFFFFFFFFFF00
:020000040030CA
:0E00000015037F7C018991FFFFC0FFE0FF40E8
:00000001FF
