:04000000ABEFFFF073
:020000040001F9
:10FF56000001AEEFFFF0000E056E0F0E966E00D09C
:10FF66000528030B056E000E026E010E016EC2EC33
:10FF7600FFF00550DBECFFF0F3D700EF00F0420E88
:10FF8600046E3F0E036E0BD000D00306D8A0040605
:10FF96000328FBE10428D8B402D0F7D700D0010625
:10FFA600D8A002060128F1E10228D8A4EED7120053
:10FFB600016E14D0849484868488848A1200849482
:10FFC60084968488848A1200849484968498848A89
:10FFD6001200849484968498849A12000150000A30
:10FFE600D8B4E8D7010AD8B4EAD7030AD8B4ECD70C
:0AFFF600010AD8A41200EDD7120092
:020000040020DA
:08000000FFFFFFFFFFFFFFFF00
:020000040030CA
:0E0000005D087F7F018991FFFFC0FFE0FF4098
:00000001FF
