:040000008EEF00F08F
:10000800FACF0AF0FBCF0BF0E9CF0CF0EACF0DF0F6
:10001800E1CF0EF0E2CF0FF0D9CF10F0DACF11F028
:10002800F3CF12F0F4CF13F0F6CF14F0F7CF15F0AA
:10003800F8CF16F0F5CF17F0F2B4F2AA4ED025C0DB
:1000480001F026C002F027C003F028C004F0320EE9
:10005800056E000E066E000E076E000E086EB0EC00
:1000680003F00150021003100410D8A40FD029285F
:10007800010B296E2950D8B406D0849E2A50D8B4D2
:1000880005D0849C03D0848E848C00D063EC02F06D
:10009800000E026E4E0E016E61EC04F0010E252476
:1000A800016E000E2620026E000E2720036E000E41
:1000B8002820046E000E056ECA0E066E9A0E076E94
:1000C8003B0E086EB0EC03F001C025F002C026F02C
:1000D80003C027F004C028F000D017C0F5FF16C0F1
:1000E800F8FF15C0F7FF14C0F6FF13C0F4FF12C0E5
:1000F800F3FF11C0DAFF10C0D9FF0FC0E2FF0EC036
:10010800E1FF0DC0EAFF0CC0E9FF0BC0FBFF0AC00E
:10011800FAFF110030EF04F0000E226ECBD1ACD103
:100128003CD03F0E1C6E030ED9EC04F0B3D1060E82
:100138001C6E030ED9EC04F0ADD15B0E1C6E030EE1
:10014800D9EC04F0A7D14F0E1C6E030ED9EC04F0C5
:10015800A1D1660E1C6E030ED9EC04F09BD16D0E76
:100168001C6E030ED9EC04F095D17D0E1C6E030EA7
:10017800D9EC04F08FD1070E1C6E030ED9EC04F0F5
:1001880089D17F0E1C6E030ED9EC04F083D16F0E5B
:100198001C6E030ED9EC04F07DD120C018F021C0EC
:1001A80019F0000E1B6E0A0E1A6E2FEC03F0195090
:1001B800000AD8A46FD11850000AD8B4B2D7010ADF
:1001C800D8B4B5D7030AD8B4B8D7010AD8B4BBD7BE
:1001D800070AD8B4BED7010AD8B4C1D7030AD8B41D
:1001E800C4D7010AD8B4C7D70F0AD8B4CAD7010AE6
:1001F800D8B4CDD74FD13CD03F0E1C6E020ED9ECEF
:1002080004F048D1060E1C6E020ED9EC04F042D15F
:100218005B0E1C6E020ED9EC04F03CD14F0E1C6E26
:10022800020ED9EC04F036D1660E1C6E020ED9EC23
:1002380004F030D16D0E1C6E020ED9EC04F02AD1F8
:100248007D0E1C6E020ED9EC04F024D1070E1C6E34
:10025800020ED9EC04F01ED17F0E1C6E020ED9ECF2
:1002680004F018D16F0E1C6E020ED9EC04F012D1F6
:1002780020C018F021C019F0000E1B6E0A0E1A6E6D
:100288002FEC03F01950000AD8A404D11850000A22
:10029800D8B4B2D7010AD8B4B5D7030AD8B4B8D7F6
:1002A800010AD8B4BBD7070AD8B4BED7010AD8B454
:1002B800C1D7030AD8B4C4D7010AD8B4C7D70F0A1C
:1002C800D8B4CAD7010AD8B4CDD7E4D03CD03F0EB1
:1002D8001C6E010ED9EC04F0DDD0060E1C6E010E6A
:1002E800D9EC04F0D7D05B0E1C6E010ED9EC04F0EB
:1002F800D1D04F0E1C6E010ED9EC04F0CBD0660E97
:100308001C6E010ED9EC04F0C5D06D0E1C6E010EEA
:10031800D9EC04F0BFD07D0E1C6E010ED9EC04F0B0
:10032800B9D0070E1C6E010ED9EC04F0B3D07F0EC5
:100338001C6E010ED9EC04F0ADD06F0E1C6E010ED0
:10034800D9EC04F0A7D020C018F021C019F0000E95
:100358001B6E0A0E1A6E2FEC03F01950000AD8A46F
:1003680099D01850000AD8B4B2D7010AD8B4B5D772
:10037800030AD8B4B8D7010AD8B4BBD7070AD8B487
:10038800BED7010AD8B4C1D7030AD8B4C4D7010A62
:10039800D8B4C7D70F0AD8B4CAD7010AD8B4CDD7AA
:1003A80079D03CD03F0E1C6E000ED9EC04F072D010
:1003B800060E1C6E000ED9EC04F06CD05B0E1C6EA1
:1003C800000ED9EC04F066D04F0E1C6E000ED9EC6E
:1003D80004F060D0660E1C6E000ED9EC04F05AD002
:1003E8006D0E1C6E000ED9EC04F054D07D0E1C6E00
:1003F800000ED9EC04F04ED0070E1C6E000ED9EC9E
:1004080004F048D07F0E1C6E000ED9EC04F042D0E8
:100418006F0E1C6E000ED9EC04F03CD020C018F012
:1004280021C019F0000E1B6E0A0E1A6E2FEC03F095
:100438001950000AD8A42ED01850000AD8B4B2D740
:10044800010AD8B4B5D7030AD8B4B8D7010AD8B4C2
:10045800BBD7070AD8B4BED7010AD8B4C1D7030A94
:10046800D8B4C4D7010AD8B4C7D70F0AD8B4CAD7E2
:10047800010AD8B4CDD70ED02250000AD8B48DD6F0
:10048800010AD8B4F5D6030AD8B45DD7010AD8B49E
:10049800C5D700D0222A20C018F021C019F0000EBC
:1004A8001B6E0A0E1A6EE4EC02F018C020F019C098
:1004B80021F000D0030E2264DFD71200120079EC7D
:1004C80004F02BA002D0312A00D02BA202D0322A6D
:1004D80000D02BA402D0332A00D02BA602D0342A75
:1004E80000D02BA802D0352A00D02B50D8A40BD08E
:1004F800000E316E000E326E000E336E000E346E3A
:10050800000E356E1200050E316002D0000E06D0C6
:10051800320E316002D0010E01D0030E2C6E00D0D5
:10052800050E326002D0000E06D0320E326002D0C4
:10053800010E01D0030E2D6E00D0050E336002D0DF
:10054800000E06D0320E336002D0010E01D0030E29
:100558002E6E00D0050E346002D0000E06D0320E8A
:10056800346002D0010E01D0030E2F6E00D0050EAC
:10057800356002D0000E06D0320E356002D0010E72
:1005880001D0030E306E00D0000E306E2C50D8B45F
:1005980002D0308000D02D50D8B402D0308200D0A4
:1005A8002E50D8B402D0308400D02F50D8B402D006
:1005B800308600D03050D8B41200308812001200B3
:1005C800000E1D6E1BAE07D01A6C1B1ED8B01B2A5E
:1005D800010E1D6E00D019AE07D0186C191ED8B0C8
:1005E800192A010E1D1A00D0000E1F6E000E1E6E75
:1005F8001A501B10D8B421D0010E1C6E05D0D8900B
:100608001A361B361C2A00D01BBE02D0F8D700D0E1
:10061800D8901E361F361A50185C1B501958D8A08F
:1006280006D01A50185E1B50195A1E8000D0D89058
:100638001B321A321C2EECD700D01D50D8B405D06E
:100648001E6C1F1ED8B01F2A00D01EC018F01FC075
:1006580019F012001200000E1D6E19AE07D0186CAA
:10066800191ED8B0192A010E1D6E00D01BAE05D078
:100678001A6C1B1ED8B01B2A00D01A501B10D8B4F5
:100688001DD0010E1C6E05D0D8901A361B361C2AB8
:1006980000D01BBE02D0F8D700D01A50185C1B50EF
:1006A8001958D8A005D01A50185E1B50195A00D0F6
:1006B800D8901B321A321C2EF0D700D01D50D8B457
:1006C80005D0186C191ED8B0192A00D018C018F017
:1006D80019C019F0120012001D6E1D28D8B42DD0B3
:1006E8002B50D8A428D0FF0E186EFF0E196E1D507F
:1006F8001A6E1B6A18501A2619501B222C0E1A241F
:10070800D96E000E1B20DA6EDF501C6EFF0E186EBD
:10071800FF0E196E1D501A6E1B6A18501A261950B2
:100728001B222C0E1A24D96E000E1B20DA6E000E26
:10073800DF6E1C501200040E12001D28D8A41200EF
:100748002B50D8A406D030C01CF0000E306E1C50C0
:100758001200040E120012000550061007100810AF
:10076800D8B429D0010E096E07D0D89005360636C0
:1007780007360836092A00D008BE02D0F6D700D0BE
:100788000550015C06500258075003580850045899
:10079800D8A009D00550015E0650025A0750035AE6
:1007A8000850045A00D0D890083207320632053271
:1007B800092EE6D700D001C001F002C002F003C044
:1007C80003F004C004F01200000E246E000E236E25
:1007D800FFEC04F005EC05F0A3EC04F090EC04F059
:1007E80000D0040E70EC03F0E806D8A403D0234A26
:1007F800242A00D0020E70EC03F0E806D8A404D036
:100808002306D8A0240600D023C020F024C021F05D
:1008180090EC00F0E6D78EEF00F01A6E010E1B6E1A
:1008280017D08296010EEAEC04F01B501A14000946
:10083800D8B402D0828802D0829800D0010EEAECA7
:1008480004F08286010EEAEC04F0D8901B3600D042
:100858001B50D8A4E6D7120000EE25F0100EEE6A61
:10086800E806FDE1EE0EF66E090EF76E000EF86E64
:1008780000EE35F010EE10F00900F5CFEEFFE55070
:10088800E150FAE10001E8EF03F003D018681968B5
:1008980000D018C01AF019C01BF01A1E1B1E1A4AE5
:1008A8001B2AFF0E1A24186EFF0E1B20196E1950F2
:1008B800D76E18C0D6FFF294120003D00168026800
:1008C80000D001C003F002C004F0031E041E034A56
:1008D800042AFF0E0324016EFF0E0420026E02504C
:1008E800D76E01C0D6FFF2941200000E2B6E84B6AC
:1008F80002D02B8000D084B402D02B8200D083BCDD
:1009080002D02B8400D084B802D02B8600D083BEBE
:1009180012002B881200120094969498B5EC04F0FB
:10092800C7EC04F0440E11EC04F0B5EC04F0C7EC8D
:1009380004F08F0E11EC04F0B5EC04F01200D59C15
:10094800D59AD598D596D584D582D580000E196EBE
:10095800010E186E49EC04F0D58EF28AD09EF28E04
:1009680012008296010EEAEC04F08298010EEAEC7D
:1009780004F08286010EEAEC04F08288010EEAECAB
:1009880004F0829612008296010EEAEC04F0828846
:10099800010EEAEC04F08286010EEAEC04F082987B
:1009A800010EEAEC04F0829612001D6E040E1D6022
:1009B8001200C7EC04F01D50C00F11EC04F01C50DD
:1009C80011EC04F0B5EC04F012001200186E000EE1
:1009D800196E02D004D0192A090E1964FCD7182EF2
:1009E800F6D7120012003F065B4F666D7D077F6FDA
:1009F800777C395E79711F0E9616849A849C849E42
:0C0A080012001E0E9612C00E9512120075
:020000040020DA
:08000000FFFFFFFFFFFFFFFF00
:020000040030CA
:0E0000001D037F7F018991FFFFC0FFE0FF40DD
:00000001FF
