:04000000BDEF00F060
:10000800FACF0AF0FBCF0BF0E9CF0CF0EACF0DF0F6
:10001800E1CF0EF0E2CF0FF0D9CF10F0DACF11F028
:10002800F3CF12F0F4CF13F0F6CF14F0F7CF15F0AA
:10003800F8CF16F0F5CF17F00A0E186EF2B4F2AA40
:100048005FD0010E3B24016E000E3C20026E000EB4
:100058003D20036E000E3E20046E000E056EE10E7C
:10006800066EF50E076E050E086EFAEC13F001C069
:100078003BF002C03CF003C03DF004C03EF03750F6
:10008800D8A40DD012D00BD0431E4350D8B402D000
:10009800848E02D0849E00D03FEC16F000D0180663
:1000A8001828D8B402D0F0D700D03BC001F03CC02B
:1000B80002F03DC003F03EC004F01E0E056E000EB7
:1000C800066E000E076E000E086EFAEC13F0015073
:1000D800021003100410D8A408D0441E4450D8B409
:1000E80002D0849A02D0848A00D03BEC15F09DECB3
:1000F80010F0000E026E4E0E016E8CEC16F000D061
:10010800A4AA1AD0AA0E0F011D19D8A403D00A0E4A
:10011800426E00D042064250010DBB0EF324D96E48
:10012800000EF420DA6E1DCFDFFF4250D8A404D0B1
:10013800010E476E426800D017C0F5FF16C0F8FFE1
:1001480015C0F7FF14C0F6FF13C0F4FF12C0F3FF89
:1001580011C0DAFF10C0D9FF0FC0E2FF0EC0E1FFE7
:100168000DC0EAFF0CC0E9FF0BC0FBFF0AC0FAFF95
:060178001100B8EF16F0C3
:10100000003F065B4F666D7D077F6F777C395E79A9
:101010007100803F72313FFE753E58633D951D3C27
:10102000C5AE3A79213994803793A73556153400E7
:10103000000000803FF0FFBEE2A93E8376BEAE2BEB
:101040003E3CC3BDD2133D78D3BB000062C034F038
:10105000356A366A00016135343601E33580345033
:101060000001686F65C034F0356A366A0001643586
:10107000343601E3358034500001676F0001685158
:101080000001D8B40FD0000167510001685DD8B0ED
:1010900010D000016851000800016725346E180E59
:1010A000346407D063C060F064C061F065C062F072
:1010B0001200000167510001D8B40FD0000168513F
:1010C0000001675DD8B010D0000167510008000131
:1010D0006825346E180E346407D060C060F061C0BB
:1010E00061F062C062F01200060E0001666F00013E
:1010F00062AF03D00001668F00D0000165AF02D05F
:101100000001668D0001618FFF0E00016017FF0E68
:1011100000016117000E000162170001648FFF0ECD
:1011200000016317FF0E00016417000E0001651730
:10113000000167510001685DD8B027D00001D89048
:1011400063376437653700016707000168510001A4
:101150006719D8B412D00001660766C034F0070ED4
:101160003416D8B40AD0EAD708D00001D890623338
:10117000613360330001682B00D00001675100012A
:101180006819D8B42FD0F1D72DD0000168510001D3
:10119000675DD8B027D00001D890603761376237DB
:1011A000000168070001685100016719D8B412D026
:1011B0000001660766C034F0070E3416D8B40AD0B2
:1011C000EAD708D00001D890653364336333000157
:1011D000672B00D00001675100016819D8B402D014
:1011E000F1D700D0000166AF12D0FF0E0001601BE6
:1011F000FF0E0001611BFF0E0001621B010E0001CA
:101200006027000E00016123000E0001622300012F
:1012100066AD13D0FF0E0001631BFF0E0001641BBF
:10122000FF0E0001651B010E00016327000E000187
:101230006423000E0001652300D0000E0001666FDC
:101240000001605100016327000161510001642326
:101250000001625100016523000165AF16D0FF0E49
:101260000001631BFF0E0001641BFF0E0001651BE4
:10127000010E00016327000E00016423000E00012F
:101280006523010E0001666F00D063C019F064C0D1
:101290001AF065C01BF068C01CF066C01DF0FAECC7
:1012A00011F019C060F01AC061F01BC062F01200AA
:1012B000120000018A5100018B1100018C11D8A489
:1012C0000AD0000E00018A6F800E00018B6F3F0E66
:1012D00000018C6F1200720E196E310E1A6E440EE0
:1012E0001B6E8AC01CF08BC01DF08CC01EF0AEECD3
:1012F00012F0D8B00FD0000E0001C66F220EC56FDD
:10130000FF0E00018A6F7F0E00018B6F7F0E0001C0
:101310008C6F12008AC019F08BC01AF08CC01BF0C1
:10132000490E1C6E3A0E1D6EC40E1E6EAEEC12F00F
:10133000D8B00FD0000E0001C66F220EC56F000E90
:1013400000018A6F000E00018B6F000E00018C6F90
:10135000120000018CAF02D0010E01D0000E00017E
:10136000926F000192510001D8B40ED08AC019F0DA
:101370008BC01AF08CC01BF016EC17F019C08AF065
:101380001AC08BF01BC08CF08AC025F08BC026F0F1
:101390008CC027F0AA0E286EB80E296E3F0E2A6E5A
:1013A000A0EC0FF025C08AF026C08BF027C08CF08F
:1013B0008AC082F08BC083F08CC084F021EC10F0E6
:1013C00082C08DF083C08EF084C08FF08DC069F034
:1013D0008EC06AF08FC06BF010EC0CF069C090F01A
:1013E0006AC091F08AC069F08BC06AF08CC06BF063
:1013F00090C021F091C022F0E7EC15F021C06CF014
:1014000022C06DF023C06EF0C6EC14F069C08AF003
:101410006AC08BF06BC08CF08AC069F08BC06AF038
:101420008CC06BF0110E00016C6F100E00016D6F1F
:10143000000E00016F6F090E6E6F89EC11F069C02C
:1014400075F06AC076F06BC077F090C078F091C00C
:1014500079F0FDEC0DF075C08AF076C08BF077C0A6
:101460008CF0000192510001D8B42ED000018A29DD
:1014700013E17F0E00018B190FE17F0E00018C1923
:10148000D8A40AD0000E00018A6F000E00018B6FF5
:10149000000E00018C6F1200000E0001606F800EC4
:1014A0000001616F3F0E0001626F8AC063F08BC064
:1014B00064F08CC065F0B9EC0CF060C08AF061C0DB
:1014C0008BF062C08CF012008AC08AF08BC08BF067
:1014D0008CC08CF01200000E00019F6F0001935130
:1014E0000001941100019511D8A41FD0000E196EAF
:1014F000000E1A6E000E1B6E96C01CF097C01DF0F9
:1015000098C01EF0AEEC12F0D8A005D0000E00017D
:10151000C66F210EC56F000E0001936F000E000113
:10152000946F000E0001956F1200000196510001AA
:10153000971100019811D8A40AD0000E0001936FF2
:10154000800E0001946F3F0E0001956F12000001A4
:1015500095AF4AD096C069F097C06AF098C06BF01A
:1015600010EC0CF069C0A0F06AC0A1F06BC0A2F052
:101570006CC0A3F0A0C021F0A1C022F0A2C023F053
:10158000A3C024F068EC14F000019651211809E181
:1015900000019751221805E1000198512318D8B491
:1015A0000FD0000E0001C66F210EC56F000E0001A6
:1015B000936F000E0001946F000E0001956F1200F2
:1015C0000001A051010B00019F6F93C019F094C05E
:1015D0001AF095C01BF016EC17F019C093F01AC062
:1015E00094F01BC095F000D093C075F094C076F0D5
:1015F00095C077F05CEC0DF075C099F076C09AF06C
:1016000077C09BF099C025F09AC026F09BC027F0C8
:1016100096C028F097C029F098C02AF0A0EC0FF0EF
:1016200025C09CF026C09DF027C09EF09CC08AF08B
:101630009DC08BF09EC08CF059EC09F08AC093F0ED
:101640008BC094F08CC095F000019F510001D8B47C
:101650000FD093C019F094C01AF095C01BF016EC8F
:1016600017F019C093F01AC094F01BC095F0120047
:1016700093C093F094C094F095C095F01200050EBD
:10168000066E72D00001C751D8A44AD00650020D90
:10169000CA0EF324D96E000EF420DA6E010EDB5070
:1016A00004E1060EDE5CD8A024D00650020DCA0E5E
:1016B000F324D96E000EF420DA6E010EDB5004E143
:1016C0003D0EDE5CD8A00AD00650010DE60EF324D4
:1016D000D96E000EF420DA6E050E14D00650010DFE
:1016E000E60EF324D96E000EF420DA6E010EDF6EE2
:1016F0000AD00650010DE60EF324D96E000EF42038
:10170000DA6E000EDF6E0650020DCA0EF324D96E9B
:10171000000EF420DA6E000EDE6E000EDD6E24D0B8
:101720000650020DCA0EF324D96E000EF420DA6EB4
:10173000010EDB5004E13D0EDE5CD8A00AD006505D
:10174000010DE60EF324D96E000EF420DA6E030EBE
:1017500009D00650010DE60EF324D96E000EF420D8
:10176000DA6E040EDF6E00D006060628D8A48AD7EB
:10177000000E066E030E066402D012001200062848
:10178000056E040E056401D045D00550010DE60E2E
:10179000F324D96E000EF420DA6E0650010DE60E29
:1017A000F324E16E000EF420E26EDE50E618D8A4B9
:1017B0002FD00650010DE60EF324D96E000EF42052
:1017C000DA6EDF50D8B424D005C001F0010E026EED
:1017D000012A02D0D8900236012EFCD706C003F0B1
:1017E000010E046E032A02D0D8900436032EFCD7D3
:1017F000045002100001DA6F0650010DE60EF324CA
:10180000D96E000EF420DA6EDF500001DB6F00D0DD
:10181000052AB7D7062A030E0664B1D712001200B4
:101820006BC06DF000016E6B6F6B00016A350001DB
:101830006D3701E36E8100016D510001776F00018A
:101840007751D8A40AD0000E0001696F000E6A6FAC
:10185000000E6B6F000E6C6F1200170E00016D6FA3
:1018600069C06EF06AC06FF06BC070F000016D2946
:101870000001716F05D00001D89070336F336E3363
:101880000001712FF8D700016E510001726F000145
:101890006A8FFF0E00016917FF0E00016A17000E24
:1018A00000016B17000169510001736F00016A515B
:1018B0000001746F00016B510001756F0001766BC0
:1018C0008E0E0001775F000177AF1BD000017751CA
:1018D000800A8F0FD8B00BD0000E0001696F000E88
:1018E0006A6F000E6B6F000E6C6F120000D000016B
:1018F000D89076337533743373330001773FF7D75D
:101900001FD0170E0001776514D0000E0001696F1B
:10191000000E6A6F000E6B6F000E6C6F120009D024
:101920000001D89073377437753776370001770721
:1019300000D0000177510001D8B402D0F1D700D017
:10194000000172510001D8B40AD00001761F751F42
:10195000741F736D000E74237523762300D073C03B
:1019600069F074C06AF075C06BF076C06CF012005C
:10197000120062C034F0356A366A000161353436CF
:1019800001E33580345000016A6F00016A51D8A428
:101990000AD0000E0001606F000E0001616F000EA2
:1019A0000001626F120065C034F0356A366A0001CA
:1019B0006435343601E33580345000016B6F00012B
:1019C0006B51D8A40AD0000E0001606F000E000118
:1019D000616F000E0001626F1200000E0001676F60
:1019E000000E0001686F000E0001696F00016B516D
:1019F000890F00016A5F62C06BF000016551000150
:101A00006B1B800E00016B170001618FFF0E000140
:101A10006017FF0E00016117000E00016217000140
:101A2000648FFF0E00016317FF0E00016417000EA4
:101A300000016517180E0001666F00D00001D890F4
:101A4000673768376937000163510001605D000145
:101A50006451000161590001655100016259D8A02B
:101A60000ED0000163510001605F0001645100016C
:101A7000615B000165510001625B0001678100014B
:101A8000D8906037613762370001662FD7D700D012
:101A900067C019F068C01AF069C01BF06AC01CF07A
:101AA0006BC01DF0FAEC11F019C060F01AC061F0C3
:101AB0001BC062F012001200000177AF0FD0000EC1
:101AC0000001C66F210EC56F000E0001756F000E7C
:101AD0000001766F000E0001776F12000001755152
:101AE0000001761100017711D8A40FD0000E00017B
:101AF000C66F220EC56F000E0001756F000E00014B
:101B0000766F000E0001776F1200000E286E000E37
:101B1000296E400E2A6E780E1C6E000E1D6E75C06A
:101B200019F076C01AF077C01BF0F9EC12F019C06A
:101B300025F01AC026F01BC027F0A0EC0FF025C03E
:101B400060F026C061F027C062F0000E0001636FF4
:101B5000800E0001646FBF0E0001656F26EC08F077
:101B600060C075F061C076F062C077F00001780760
:101B7000D8A0790775C069F076C06AF077C06BF0BD
:101B80002F0E00016C6F100E00016D6F000E000132
:101B90006F6F080E6E6F89EC11F069C075F06AC046
:101BA00076F06BC077F0720E286E310E296E3F0E04
:101BB0002A6E78C021F079C022F0E7EC15F021C040
:101BC00025F022C026F023C027F0A0EC0FF025C09E
:101BD00060F026C061F027C062F075C063F076C087
:101BE00064F077C065F026EC08F060C075F061C065
:101BF00076F062C077F0120012000001755100010A
:101C0000761100017711D8A40AD0000E0001756F7B
:101C1000000E0001766F000E0001776F12000001C8
:101C200077517F0B00017A6F7B6BD89000017A3778
:101C30007B3700017A510001782700017B510001B8
:101C40007923000176AF04D000017A6B7A2B02D0A1
:101C500000017A6B00017A5100017827000E792388
:101C6000000179AF10D0000E0001C66F220EC56FC3
:101C7000000E0001756F000E0001766F000E00016E
:101C8000776F120045D0000179BF20D0000179059F
:101C9000D8A01CD0000E0001C66F220EC56F000137
:101CA00077AF0AD0FF0E0001756F7F0E0001766FCF
:101CB000FF0EE5D712002CD0FF0E0001756F7F0ECE
:101CC0000001766F7F0EDBD7120022D0000179353C
:101CD000793100017B6F0001783100017A6F0001DA
:101CE000775100017A19800B7A190001776F78C05B
:101CF0007AF0010E00017A1700017A337A3300017D
:101D0000765100017A197F0B7A190001766F00D0A5
:101D100075C075F076C076F077C077F012001200CB
:101D2000090E0001B16F4FD00001B151CBEC16F09C
:101D300021C096F022C097F023C098F00001B15165
:101D4000010DF3500001A425D96EF4500001A52126
:101D5000DA6EDF50CBEC16F021C093F022C094F085
:101D600023C095F06BEC0AF093C0AAF094C0ABF0DE
:101D700095C0ACF0AAC063F0ABC064F0ACC065F035
:101D8000ADC021F0AEC022F0AFC023F0B0C024F04F
:101D900068EC14F021C060F022C061F023C062F052
:101DA00026EC08F060C069F061C06AF062C06BF0B8
:101DB00010EC0CF069C0ADF06AC0AEF06BC0AFF0D3
:101DC0006CC0B0F000D0FE0E0001A66FFF0E000147
:101DD000A76F0001B107B1290001A86FA96B00012D
:101DE000A6510001A8270001A7510001A923000165
:101DF000A8510001A911D8A497D7ADC019F0AEC061
:101E00001AF0AFC01BF0B0C01CF0FF0E1D6E000E2C
:101E10001E6E000E1F6E000E206EC2EC13F019C075
:101E2000ADF01AC0AEF01BC0AFF01CC0B0F0ADC03A
:101E3000A4F0AEC0A5F01200120020C019F021C01D
:101E40001AF0000E1C6E0A0E1B6E15EC15F0010E3A
:101E50001924F66E100E1A20F76E0800F5CF1EF04A
:101E6000030E4CEC17F020C019F021C01AF0000E40
:101E70001C6E0A0E1B6E98EC14F019C020F01AC0EC
:101E800021F020C019F021C01AF0000E1C6E0A0EBD
:101E90001B6E15EC15F0010E1924F66E100E1A20AB
:101EA000F76E0800F5CF1EF0020E4CEC17F020C0C4
:101EB00019F021C01AF0000E1C6E0A0E1B6E98EC71
:101EC00014F019C020F01AC021F020C019F021C070
:101ED0001AF0000E1C6E0A0E1B6E15EC15F0010EAA
:101EE0001924F66E100E1A20F76E0800F5CF1EF0BA
:101EF000010E4CEC17F020C019F021C01AF0000EB2
:101F00001C6E0A0E1B6E98EC14F019C020F01AC05B
:101F100021F020C019F021C01AF0000E1C6E0A0E2C
:101F20001B6E15EC15F0010E1924F66E100E1A201A
:101F3000F76E0800F5CF1EF0000E4CEC17F0120003
:101F400027C02BF02C6A2D6A26342B3601E32C8017
:101F50002B502E6E2E50D8A407D0000E256E000EEA
:101F6000266E000E276E12002AC02BF02C6A2D6AF6
:101F700029342B3601E32C802B50336E3350D8A4F8
:101F800007D0000E256E000E266E000E276E120082
:101F900033507B0F2E2627C033F02A50331A800E81
:101FA0003316268E298EFF0E2816FF0E2916000ED8
:101FB0002A16000E2F6E000E306E000E316E070EC8
:101FC000326E00D025A007D028502F26295030226D
:101FD0002A50312200D0D890273226322532D8908C
:101FE000283629362A36322EEDD700D0090E326E29
:101FF00000D025A007D028502F26295030222A5063
:10200000312200D0D890273226322532D890313272
:1020100030322F32322EEDD700D02FC019F030C021
:102020001AF031C01BF02EC01CF033C01DF0FAECCA
:1020300011F019C025F01AC026F01BC027F01200BD
:10204000120082C019F083C01AF084C01BF0880E01
:102050001C6E000E1D6EF9EC12F0000189AF17D056
:10206000000184AF0AD0000E0001826F800E0001D3
:10207000836FBF0E0001846F1200000E0001826F9B
:10208000000E0001836F000E0001846F120000013A
:10209000895105E1150E0001885DD8A007D082C0E6
:1020A00082F083C083F084C084F0120082C069F0A3
:1020B00083C06AF084C06BF010EC0CF069C078F05B
:1020C0006AC079F06BC07AF06CC07BF05DEC12F006
:1020D00078C085F079C086F07AC087F082C019F0A8
:1020E00083C01AF084C01BF085C01CF086C01DF0B0
:1020F00087C01EF0AEEC12F0D8B018D085C060F0EA
:1021000086C061F087C062F0000E0001636F800E30
:102110000001646FBF0E0001656F26EC08F060C01F
:1021200082F061C083F062C084F0120085C082F04A
:1021300086C083F087C084F012003FEC0BF00001F2
:10214000EA05D8A402D0460600D0030E0001EA1921
:10215000D8A402D0460600D00001E805D8A402D0D9
:10216000462A00D0030E0001E819D8A402D0462A5E
:1021700000D0FA0E466402D0090E05D00A0E016E98
:1021800046505BEC16F0466E00D00001E905D8A47D
:102190000AD04650010DEB0EF324D96E000EF42048
:1021A000DA6EDF2A00D0030E0001E919D8A40AD0A4
:1021B0004650010DEB0EF324D96E000EF420DA6EBA
:1021C000DF2A00D00001E705D8A40AD04650010D4F
:1021D000EB0EF324D96E000EF420DA6EDF0600D089
:1021E000030E0001E719D8A40AD04650010DEB0EEA
:1021F000F324D96E000EF420DA6EDF0600D0000161
:10220000E605D8A403D0010E396E00D00A0E0001F5
:10221000DA19D8A408D00001DB05D8A404D03A50BC
:10222000FF0A3A6E00D061EC15F0120000D00F01E9
:1022300021A3FDD78696AA0E0F011C6F0001B407DB
:1022400000D00F0121B316D0FCD714D00001B45137
:10225000010DF3500001B225D96EF4500001B321F5
:10226000DA6EDF500F011C6F00D00F0121B302D0D6
:10227000FCD700D0FE0E0001B56FFF0E0001B66F57
:102280000001B407B4290001B76FB86B0001B55164
:102290000001B7270001B6510001B8230001B75172
:1022A0000001B811D8A4D2D7000120EE09F0B25134
:1022B000D926B351DA22AA0EDF6EB2C0A4F0B3C0A1
:1022C000A5F090EC0EF0A4C0B9F0A5C0BAF0B9C06A
:1022D00019F0BAC01AF0000E1C6E1B6898EC14F0CE
:1022E00019500F011C6F00D00F0121A3FDD7B9C0F9
:1022F00019F0BAC01AF0000E1C6E1B6815EC15F030
:1023000019500F011C6F00D00F0121A3FDD7868645
:1023100012006EC019F06FC01AF0000E1C6E030E92
:102320001B6EA4EC16F06CC070F06DC071F019500B
:10233000000170271A500001712370C0F6FF71C0B0
:10234000F7FF0900F5CF72F00900F5CF73F00A002E
:10235000F5CF74F042D072C028F073C029F074C079
:102360002AF069C025F06AC026F06BC027F0A0EC07
:102370000FF025C060F026C061F027C062F0000EAB
:102380001C6E030E1B6E00016E07D8A06F076EC097
:1023900019F06FC01AF0A4EC16F06CC070F06DC0AC
:1023A00071F01950000170271A500001712370C09C
:1023B000F6FF71C0F7FF0900F5CF63F00900F5CF14
:1023C00064F00A00F5CF65F026EC08F060C072F00A
:1023D00061C073F062C074F000D000016E51000162
:1023E0006F11D8A4B8D772C069F073C06AF074C016
:1023F0006BF012001C50D8B405D019501A101B10E5
:10240000D8A40ED0000E196E000E1A6E000E1B6EB0
:10241000120006D01C2AD8901B321A32193200D072
:10242000000E19141E6E000E1A141F6EFE0E1B14E1
:10243000206E1E501F102010D8B40ED0EBD70CD039
:102440001C2A010E1926000E1A22000E1B22D890FB
:102450001B321A32193200D0000E19141E6E000EF3
:102460001A141F6EFF0E1B14206E1E501F1020101A
:10247000D8B408D0E5D706D01C06D89019361A363D
:102480001B3600D01ABE04D0020E1C60F5D700D057
:102490001CB002D01A9E00D0D8901C321C501B12C7
:1024A0001D50D8B402D01B8E00D019C019F01AC02C
:1024B0001AF01BC01BF012001200000E0001816F09
:1024C0008E0E0001806F00017BAF16D000017B1FD4
:1024D0007A1F791F786D000E79237A237B23010EF2
:1024E0000001816F09D00001D8907B337A337933B2
:1024F00078330001802B00D0000E00017815000118
:102500007C6F000E0001791500017D6F000E000147
:102510007A1500017E6FFF0E00017B1500017F6FB1
:1025200000017C5100017D1100017E1100017F112D
:10253000D8A4D9D778C019F079C01AF07AC01BF0A6
:1025400080C01CF081C01DF0FAEC11F019C078F0C9
:102550001AC079F01BC07AF0120012001BAE17D01F
:1025600019C01FF01AC020F01BC021F01F1E201E32
:10257000211E1F2A000E20222122000E1F24196E68
:10258000000E20201A6E800E21201B6E00D01EAE81
:1025900017D01CC01FF01DC020F01EC021F01F1E50
:1025A000201E211E1F2A000E20222122000E1F2481
:1025B0001C6E000E20201D6E800E21201E6E00D08D
:1025C000000E191A000E1A1A800E1B1A000E1C1A81
:1025D000000E1D1A800E1E1A1C50195C1D501A5830
:1025E0001E501B58D8B002D0D8901200D8801200CC
:1025F000120019501A101B10D8A40FD01CC0D9FFFC
:102600001DC0DAFF000EDE6E000EDD6E000E196ECC
:10261000000E1A6E000E1B6E12001B507F0B1E6EFA
:102620001F6AD8901E361F361CC0D9FF1DC0DAFFA6
:102630001EC0DEFF1FC0DDFF1AAE03D01E6A1E2AB9
:1026400001D01E6A1E501CC0D9FF1DC0DAFFDE1269
:10265000000EDD121CC0D9FF1DC0DAFF820EDE267F
:10266000FF0EDD221B801B821B841B861B881B8A9E
:102670001B9C1A9E19C019F01AC01AF01BC01BF03F
:10268000120012001B6E000E0F01216F000E0F01D1
:10269000226F1BA003D00F01218900D01BA205D0FF
:1026A0000F01218D0F01228D00D01BA403D00F013B
:1026B000218F00D01BA603D00F01228903D00F0168
:1026C000228B00D01BA803D00F01218503D00F015E
:1026D000219500D01BAA03D00F01228700D01BAC8C
:1026E00002D0A38A02D0A39A00D01BAE02D0A38846
:1026F00001D0A39819C01EFF1A500F011F6F0F01C0
:10270000218B0F01228F12003A50D8B41DD046C041
:1027100019F01A6A030E1C6EE80E1B6EA4EC16F07C
:102720004650010DEB0EF324D96E000EF420DA6E44
:10273000DF50226E22501924206E000E1A20216EC6
:102740001DEC0FF0849E120046C019F01A6A030EA9
:102750001C6EE80E1B6EA4EC16F04650010DF50E33
:10276000F324D96E000EF420DA6EDF50226E225070
:102770001924206E000E1A20216E1DEC0FF0848E9D
:10278000120012001D501E101F102010D8B429D0A6
:10279000010E216E07D0D8901D361E361F3620360A
:1027A000212A00D020BE02D0F6D700D01D50195CDF
:1027B0001E501A581F501B5820501C58D8A009D022
:1027C0001D50195E1E501A5A1F501B5A20501C5A79
:1027D00000D0D89020321F321E321D32212EE6D773
:1027E00000D019C019F01AC01AF01BC01BF01CC091
:1027F0001CF012000550061007100810D8B429D09C
:10280000010E096E07D0D890053606360736083611
:10281000092A00D008BE02D0F6D700D00550015CCE
:10282000065002580750035808500458D8A009D041
:102830000550015E0650025A0750035A0850045AC8
:1028400000D0D8900832073206320532092EE6D77A
:1028500000D001C001F002C002F003C003F004C0C8
:1028600004F012009CEC17F000D08AEC17F000097D
:10287000D8A4FBD7120E286E830E296E400E2A6E46
:1028800082EC17F019C021F01AC022F0DEEC16F02D
:1028900021C025F022C026F023C027F0A0EC0FF0C5
:1028A00025C060F026C061F027C062F0F00E000184
:1028B000636F7F0E0001646F450E0001656FB9EC18
:1028C0000CF060C03FF061C040F062C041F0120007
:1028D0008E0E296E07D0D890243223322232213234
:1028E000292A00D0000E2114256E000E2214266E17
:1028F000000E2314276EFF0E2414286E2550261078
:1029000027102810D8A4E7D721C019F022C01AF048
:1029100023C01BF029C01CF0000E1D6EFAEC11F054
:1029200019C021F01AC022F01BC023F012001200BF
:10293000000E1F6E000E1E6E1B501C10D8B421D04E
:10294000010E1D6E05D0D8901B361C361D2A00D0F6
:102950001CBE02D0F8D700D0D8901E361F361B50B0
:10296000195C1C501A58D8A006D01B50195E1C5078
:102970001A5A1E8000D0D8901C321B321D2EECD764
:1029800000D01EC019F01FC01AF0120000016C51D7
:1029900000016D1100016E11D8B40AD0000E0001C3
:1029A0006C1B000E00016D1B800E00016E1B00D021
:1029B00069C060F06AC061F06BC062F06CC063F027
:1029C0006DC064F06EC065F026EC08F060C069F080
:1029D00061C06AF062C06BF0120012001D6E000E42
:1029E000C26E000EC16E000EC06E19507C0BC26E1E
:1029F0001AC0C1FF1DC01BF0D8901B36D8901B36E3
:102A0000380E1B161DC01CF01C3A0F0E1C16070EAC
:102A10001C161D50800B1C101B10C06E19AE03D06D
:102A20009E9C9D8CF28CC28012001B501C10D8B44E
:102A30001DD0010E1D6E05D0D8901B361C361D2AE8
:102A400000D01CBE02D0F8D700D01B50195C1C501F
:102A50001A58D8A005D01B50195E1C501A5A00D025
:102A6000D8901C321B321D2EF0D700D019C019F09F
:102A70001AC01AF0120022EC16F00001C7A104D00F
:102A80000001CA4BCB2B00D00001C7A304D000012A
:102A9000CC4BCD2B00D00001C7A504D00001CE4BFC
:102AA000CF2B00D00001C7A704D00001D04BD12B01
:102AB00000D00001C7A912000001D24BD32B120095
:102AC0001200000E0001D96F000E0001DA6F040E33
:102AD000016E17D00150020DDC0EF324D96E000EEA
:102AE000F420DA6E000EDE6E000EDD6E0150010D78
:102AF000E60EF324D96E000EF420DA6E000EDF6EBF
:102B000000D001060128D8A4E5D71200000E1C6EE3
:102B1000090E1B6E4750D8B41200000E476E0FD03E
:102B2000BB0E1B24D96E000E1C20DA6E1B5019241C
:102B3000E16E1C501A20E26EDFCFE7FF00D01B06CB
:102B4000D8A01C061B28ECE11C28D8B41200E8D73A
:102B5000120012001B6E010E1C6E17D08296010E21
:102B60006CEC17F01C501B140009D8B402D08288FA
:102B700002D0829800D0010E6CEC17F08286010E14
:102B80006CEC17F0D8901C3600D01C50D8A4E6D7B7
:102B900012003850D8B403D032EC14F000D03950C1
:102BA000D8B40ED0000E396EEB0E0001B26F000EDD
:102BB0000001B36F0A0E0001B46F16EC11F000D0E3
:102BC000F50E196E000E1A6E86EC15F01200000E4E
:102BD000246E22AE07D0216C221ED8B0222A010E0C
:102BE000246E00D021C019F022C01AF01B6A8E0E8C
:102BF0001C6E24C01DF0FAEC11F019C021F01AC0AF
:102C000022F01BC023F012001200000E0101006F21
:102C1000000E0101016F000E0101026F91EC17F02F
:102C200097EC17F004EC17F0F1EC16F079EC17F0D4
:102C30005DEC17F000D0C9EC15F084EC13F0FBD775
:102C4000BDEF00F0000E0001C76F84B603D0000195
:102C5000C78100D084B403D00001C78300D083BCF7
:102C600003D00001C78500D084B803D00001C78716
:102C700000D083BE12000001C78912001200010EAD
:102C8000036E0350D8B4120001D01200200E026E61
:102C90000250D8B40DD001D00BD0020E016E0150FD
:102CA000D8B404D001D002D00106F9D70206F0D77B
:102CB0000306E7D71200026E080E036E000E046EC4
:102CC00000D0D89002340434046ED89002360150FB
:102CD000045CD8A003D00150045E00D0032EF1D7CD
:102CE00000D004501200120003D019681A6800D0F6
:102CF00019C01BF01AC01CF01B1E1C1E1B4A1C2AEC
:102D0000FF0E1B24196EFF0E1C201A6E1A50D76E70
:102D100019C0D6FFF294120003D00168026800D0F7
:102D200001C003F002C004F0031E041E034A042A7B
:102D3000FF0E0324016EFF0E0420026E0250D76EB8
:102D400001C0D6FFF294120019501B02F3CF1DF000
:102D5000F4CF1EF019501C02F3501E261A501B020D
:102D6000F3501E261DC019F01EC01AF012001200EA
:102D700000EEBBF0440EEE6AE806FDE100EE37F02F
:102D8000110EEE6AE806FDE1000EF86E100EF76E09
:102D9000000105EF16F0246E2450196E1A6A1B6AA2
:102DA0008E0E1C6E000E1D6EFAEC11F019C021F093
:102DB0001AC022F01BC023F01200120021C019F02B
:102DC00022C01AF01B6A8E0E1C6E000E1D6EFAECED
:102DD00011F019C021F01AC022F01BC023F012001C
:102DE00012009496949828EC17F03AEC17F0440EE1
:102DF000AAEC15F028EC17F03AEC17F08F0EAAECBD
:102E000015F028EC17F01200D59CD59AD598D596D8
:102E1000D584D582D580000E1A6E010E196E74EC21
:102E200016F0D58EF28AD09EF28E120019501A102A
:102E30001B10D8B406D0000E191A000E1A1A800EF4
:102E40001B1A19C019F01AC01AF01BC01BF012008F
:102E50008296010E6CEC17F08298010E6CEC17F064
:102E60008286010E6CEC17F08288010E6CEC17F074
:102E7000829612008296010E6CEC17F08288010E89
:102E80006CEC17F08286010E6CEC17F08298010E44
:102E90006CEC17F0829612001F6E040E1F60120079
:102EA0003AEC17F01F50C00FAAEC15F01E50AAEC18
:102EB00015F028EC17F012001200000E1A6E0C0E1E
:102EC000196E6C0E42EC13F0988298949896868650
:102ED000F10E0F0123171200196E000E1A6E02D0A8
:102EE00004D01A2A090E1A64FCD7192EF6D712003C
:102EF00012009B0E196E300E1A6E830EEEEC14F05B
:102F00009D9C1200C4501B6EC350196E1BC01AF05A
:102F100012001200C2A202D0010E1200000E120016
:102F200012001F0E9616848A848C848E12001E0E48
:0C2F30009612C00E95121200C282120010
:020000040020DA
:08000000FFFFFFFFFFFFFFFF00
:020000040030CA
:0E0000001D037F7F018991FFFFC0FFE0FF40DD
:00000001FF
