:04000000CFEF00F04E
:10000800FACF0AF0FBCF0BF0E9CF0CF0EACF0DF0F6
:10001800E1CF0EF0E2CF0FF0D9CF10F0DACF11F028
:10002800F3CF12F0F4CF13F0F6CF14F0F7CF15F0AA
:10003800F8CF16F0F5CF17F00A0E186EF2B4F2AA40
:1000480069D0010E00016E25016E000E00016F21BE
:10005800026E000E00017021036E000E0001712176
:10006800046E000E056EE10E066EF50E076E050EA7
:10007800086EAFEC0CF001C06EF002C06FF003C068
:1000880070F004C071F02F50D8A402D02E0600D012
:1000980000016A51D8A40DD012D00BD0301E3050B8
:1000A800D8B402D0848E02D0849E00D08FEC0EF09B
:1000B80000D018061828D8B402D0F0D700D06EC0E7
:1000C80001F06FC002F070C003F071C004F01E0EA2
:1000D800056E000E066E000E076E000E086EAFEC81
:1000E8000CF00150021003100410D8A408D0311EDF
:1000F8003150D8B402D0849A02D0848A00D0CFEC90
:100108000DF018EC0AF0000E026E4E0E016EDCECDB
:100118000EF000D0A4AA22D02E50D8A403D0000EEE
:100128002F6E00D02F50010D600EF324D96E000EF3
:10013800F420DA6E1DCFDFFFAA0E00016019D8A4E3
:1001480004D02F2A020E2E6E00D00A0E2F18D8A423
:1001580005D0010E346E000E2F6E00D017C0F5FFCB
:1001680016C0F8FF15C0F7FF14C0F6FF13C0F4FF60
:1001780012C0F3FF11C0DAFF10C0D9FF0FC0E2FFB1
:100188000EC0E1FF0DC0EAFF0CC0E9FF0BC0FBFF8A
:0A0198000AC0FAFF110008EF0FF093
:10100000003F065B4F666D7D077F6F777C395E79A9
:101010007100050E066E72D000017551D8A44AD039
:101020000650020D780EF324D96E000EF420DA6E0D
:10103000010EDB5004E1060EDE5CD8A024D0065081
:10104000020D780EF324D96E000EF420DA6E010E34
:10105000DB5004E13D0EDE5CD8A00AD00650010D45
:10106000430EF324D96E000EF420DA6E050E14D070
:101070000650010D430EF324D96E000EF420DA6EF3
:10108000010EDF6E0AD00650010D430EF324D96E17
:10109000000EF420DA6E000EDF6E0650020D780EA0
:1010A000F324D96E000EF420DA6E000EDE6E000E10
:1010B000DD6E24D00650020D780EF324D96E000E9A
:1010C000F420DA6E010EDB5004E13D0EDE5CD8A0A8
:1010D0000AD00650010D430EF324D96E000EF42001
:1010E000DA6E030E09D00650010D430EF324D96EBB
:1010F000000EF420DA6E040EDF6E00D0060606281D
:10110000D8A48AD7000E066E030E066402D0120021
:1011100012000628056E040E056401D043D0055068
:10112000010D430EF324D96E000EF420DA6E065042
:10113000010D430EF324E16E000EF420E26EDE504A
:10114000E618D8A42DD00650010D430EF324D96E15
:10115000000EF420DA6EDF50D8B422D005C001F0C2
:10116000010E026E012A02D0D8900236012EFCD761
:1011700006C003F0010E046E032A02D0D890043694
:10118000032EFCD704500210376E0650010D430E9B
:10119000F324D96E000EF420DA6EDF50386E00D0E2
:1011A000052AB9D7062A030E0664B3D71200120027
:1011B000A3C0A7F00001A86BA96B0001A235000134
:1011C000A73701E3A8810001A7510001AE6F00011C
:1011D000AE51D8A40AD0000E0001A16F000E00018C
:1011E000A26F000E0001A36F1200A6C0A7F00001BD
:1011F000A86BA96B0001A5350001A73701E3A88101
:101200000001A7510001AF6F0001AF51D8A40AD06F
:10121000000E0001A16F000E0001A26F000E000180
:10122000A36F1200000E0001AB6F000E0001AC6F47
:10123000000E0001AD6F0001AF51890F0001AE5FDC
:10124000A3C0AFF00001A6510001AF1B800E00014A
:10125000AF170001A28FFF0E0001A117FF0E0001C2
:10126000A217000E0001A3170001A58FFF0E0001B9
:10127000A417FF0E0001A517000E0001A617180EF7
:101280000001AA6F00D00001D890AB37AC37AD3762
:101290000001A4510001A15D0001A5510001A25966
:1012A0000001A6510001A359D8A00ED00001A451FD
:1012B0000001A15F0001A5510001A25B0001A65140
:1012C0000001A35B0001AB810001D890A137A237D8
:1012D000A3370001AA2FD7D700D0ABC019F0ACC0FC
:1012E0001AF0ADC01BF0AEC01CF0AFC01DF030EC6A
:1012F0000BF019C0A1F01AC0A2F01BC0A3F012009D
:10130000120026C02AF02B6A2C6A25342A3601E303
:101310002B802A5000019B6F00019B51D8A407D05D
:10132000000E246E000E256E000E266E120029C0DF
:101330002AF02B6A2C6A28342A3601E32B802A50A3
:101340000001A06F0001A051D8A407D0000E246EA8
:10135000000E256E000E266E12000001A0517B0FBC
:1013600000019B2726C0A0F029500001A01B800E81
:101370000001A017258E288EFF0E2716FF0E2816B7
:10138000000E2916000E00019C6F000E00019D6FDB
:10139000000E00019E6F070E00019F6F00D024A079
:1013A0000AD0275000019C27285000019D23295076
:1013B00000019E2300D0D890263225322432D890C6
:1013C00027362836293600019F2FE9D700D0090E8D
:1013D00000019F6F00D024A00AD0275000019C2755
:1013E000285000019D23295000019E2300D0D89051
:1013F0002632253224320001D8909E339D339C330F
:1014000000019F2FE8D700D09CC019F09DC01AF0B2
:101410009EC01BF09BC01CF0A0C01DF030EC0BF078
:1014200019C024F01AC025F01BC026F012001200CB
:1014300009EC08F00A0E3718D8A413D03804D8A441
:1014400010D0000E076E090E076401D002D0072AE3
:10145000FAD700016D51FF0A00016D6FF5EC0DF038
:1014600000D0090E3718D8A407D03804D8A404D067
:10147000352AF5EC0DF000D0030E3718D8A407D0AC
:101480003804D8A404D03506F5EC0DF000D047049C
:10149000D8A402D0330600D0030E4718D8A402D037
:1014A000330600D04504D8A402D0332A00D0030E5E
:1014B0004518D8A402D0332A00D0FA0E336402D0E3
:1014C000090E05D00A0E016E3350ABEC0EF0336EF0
:1014D00000D04604D8A40AD03350010D870EF3245F
:1014E000D96E000EF420DA6EDF2A00D0030E461803
:1014F000D8A40AD03350010D870EF324D96E000E04
:10150000F420DA6EDF2A00D04404D8A40AD0335085
:10151000010D870EF324D96E000EF420DA6EDF067B
:1015200000D0030E4418D8A40AD03350010D870E02
:10153000F324D96E000EF420DA6EDF0600D04304E7
:10154000D8A404D0010E00016C6F00D03550030BFD
:10155000040F356EF5EC0DF0120020C019F021C01B
:101560001AF0000E1C6E0A0E1B6EA9EC0DF0010E97
:101570001924F66E100E1A20F76E0800F5CF1EF033
:10158000030E77EC0FF020C019F021C01AF0000E06
:101590001C6E0A0E1B6E54EC0DF019C020F01AC020
:1015A00021F020C019F021C01AF0000E1C6E0A0EA6
:1015B0001B6EA9EC0DF0010E1924F66E100E1A2008
:1015C000F76E0800F5CF1EF0020E77EC0FF020C08A
:1015D00019F021C01AF0000E1C6E0A0E1B6E54EC9E
:1015E0000DF019C020F01AC021F020C019F021C060
:1015F0001AF0000E1C6E0A0E1B6EA9EC0DF0010E07
:101600001924F66E100E1A20F76E0800F5CF1EF0A2
:10161000010E77EC0FF020C019F021C01AF0000E77
:101620001C6E0A0E1B6E54EC0DF019C020F01AC08F
:1016300021F020C019F021C01AF0000E1C6E0A0E15
:101640001B6EA9EC0DF0010E1924F66E100E1A2077
:10165000F76E0800F5CF1EF0000E77EC0FF01200C9
:101660001C50D8B405D019501A101B10D8A40ED095
:10167000000E196E000E1A6E000E1B6E120006D0C0
:101680001C2AD8901B321A32193200D0000E1914BD
:101690001E6E000E1A141F6EFE0E1B14206E1E50BE
:1016A0001F102010D8B40ED0EBD70CD01C2A010E7E
:1016B0001926000E1A22000E1B22D8901B321A3255
:1016C000193200D0000E19141E6E000E1A141F6E6F
:1016D000FF0E1B14206E1E501F102010D8B408D00F
:1016E000E5D706D01C06D89019361A361B3600D01E
:1016F0001ABE04D0020E1C60F5D700D01CB002D078
:101700001A9E00D0D8901C321C501B121D50D8B409
:1017100002D01B8E00D019C019F01AC01AF01BC0DD
:101720001BF01200120000D00F0121A3FDD78696F6
:10173000AA0E0001876F000E00019C6F000E9B6FC8
:1017400000019C511BE1080E00019B5DD8B016D032
:1017500001D014D02C50010DF3502A24D96EF4502E
:101760002B20DA6EDF500F011C6F00D00F0121A378
:10177000FDD700019B4B9C2BE3D700D020EE09F056
:101780002A50D9262B50DA22AA0EDF6E2AC01FF06B
:101790002BC020F0080E216E8F0E226E000E236EDD
:1017A000900E246E000E256EE7EC0CF08FC01CFF2F
:1017B00000D00F0121A3FDD790C01CFF00D00F0166
:1017C00021A3FDD78686120000016D51D8B41DD02B
:1017D00033C019F01A6A030E1C6EE80E1B6EF4EC8F
:1017E0000EF03350010D870EF324D96E000EF42055
:1017F000DA6EDF50226E22501924206E000E1A205D
:10180000216EADEC0AF0849E120035500001921951
:10181000D8A412002D50D8B403D0849C000E02D05E
:10182000848C010E2D6E00D033C019F01A6A030E9D
:101830001C6EE80E1B6EF4EC0EF03350010D910E91
:10184000F324D96E000EF420DA6EDF50226E22509F
:101850001924206E000E1A20216EADEC0AF0848E41
:10186000120012001B6E000E0F01216F000E0F01FF
:10187000226F1BA003D00F01218900D01BA205D02D
:101880000F01218D0F01228D00D01BA403D00F0169
:10189000218F00D01BA603D00F01228903D00F0196
:1018A000228B00D01BA803D00F01218503D00F018C
:1018B000219500D01BAA03D00F01228700D01BACBA
:1018C00002D0A38A02D0A39A00D01BAE02D0A38874
:1018D00001D0A39819C01EFF1A500F011F6F0F01EE
:1018E000218B0F01228F1200000E00019E6F090E46
:1018F0009D6F3450D8B41200000E346E13D0600EB9
:1019000000019D25D96E000E00019E21DA6E0001B6
:101910009D512A24E16E00019E512B20E26EDFCF03
:10192000E7FF00D000019D07D8A09E0700019D2978
:10193000E6E100019E29D8A4E2D72AC01FF02BC0FF
:1019400020F0080E216E9B0E226E000E236E9C0E60
:10195000246E000E256EE7EC0CF01200120005500C
:10196000061007100810D8B429D0010E096E07D050
:10197000D8900536063607360836092A00D008BE44
:1019800002D0F6D700D00550015C0650025807502F
:10199000035808500458D8A009D00550015E0650DD
:1019A000025A0750035A0850045A00D0D8900832FF
:1019B000073206320532092EE6D700D001C001F009
:1019C00002C002F003C003F004C004F01200000ED5
:1019D000296E000E286E000E276E000E296E1DD097
:1019E000010E2924196E1A6A000E1A222950010DBF
:1019F000F3501F24D96EF4502020DA6EDF50266E8B
:101A000026501B6E1C6AF4EC0EF027501924276E2A
:101A100028501A20286E292A00D02150295CD8A0ED
:101A2000DFD7285022C0D9FF23C0DAFFDF6E24C0E1
:101A3000D9FF25C0DAFF27C0DFFF1200C7EC0FF087
:101A400000D0B5EC0FF00009D8A4FBD7120E276E1A
:101A5000830E286E400E296EADEC0FF019C021F0F8
:101A60001AC022F01BEC0FF021C024F022C025F098
:101A700023C026F081EC09F024C0A1F025C0A2F01B
:101A800026C0A3F0F00E0001A46F7F0E0001A56F29
:101A9000450E0001A66FD8EC08F0A1C072F0A2C0FC
:101AA00073F0A3C074F01200000E1F6E000E1E6EC5
:101AB0001B501C10D8B421D0010E1D6E05D0D8903B
:101AC0001B361C361D2A00D01CBE02D0F8D700D011
:101AD000D8901E361F361B50195C1C501A58D8A0BF
:101AE00006D01B50195E1C501A5A1E8000D0D89088
:101AF0001C321B321D2EECD700D01EC019F01FC0A7
:101B00001AF012001D6E000EC26E000EC16E000EA5
:101B1000C06E19507C0BC26E1AC0C1FF1DC01BF0F5
:101B2000D8901B36D8901B36380E1B161DC01CF0E3
:101B30001C3A0F0E1C16070E1C161D50800B1C1095
:101B40001B10C06E19AE03D09E9C9D8CF28CC2807F
:101B500012001B501C10D8B41DD0010E1D6E05D0F4
:101B6000D8901B361C361D2A00D01CBE02D0F8D7D8
:101B700000D01B50195C1C501A58D8A005D01B501F
:101B8000195E1C501A5A00D0D8901C321B321D2EE0
:101B9000F0D700D019C019F01AC01AF0120072EC78
:101BA0000EF0000175A104D00001784B792B00D014
:101BB000000175A304D000017A4B7B2B00D00001FB
:101BC00075A504D000017C4B7D2B00D0000175A7CA
:101BD00004D000017E4B7F2B00D0000175A91200BC
:101BE0000001804B812B12001200000E366E000E99
:101BF000376E040E016E17D00150020D390EF3241A
:101C0000D96E000EF420DA6E000EDE6E000EDD6E70
:101C10000150010D430EF324D96E000EF420DA6E4C
:101C2000000EDF6E00D001060128D8A4E5D712000F
:101C30001B6E010E1C6E17D08296010E97EC0FF0F2
:101C40001C501B140009D8B402D0828802D082989C
:101C500000D0010E97EC0FF08286010E97EC0FF08A
:101C6000D8901C3600D01C50D8A4E6D71200000132
:101C70006B51D8B403D01EEC0DF000D000016C51B4
:101C8000D8B40CD0000E00016C6F870E2A6E000EC7
:101C90002B6E0A0E2C6E93EC0BF000D0910E2A6E78
:101CA000000E2B6E74EC0CF01200000E0001B06FF1
:101CB000000E0001B16F000E0001B26FBCEC0FF01E
:101CC000C2EC0FF041EC0FF02EEC0FF0A4EC0FF093
:101CD00088EC0FF000D037EC0EF0E4EC0BF0FBD703
:101CE000CFEF00F0000E0001756F84B603D0000145
:101CF000758100D084B403D00001758300D083BC0B
:101D000003D00001758500D084B803D00001758729
:101D100000D083BE12000001758912001200010E6E
:101D2000036E0350D8B4120001D01200200E026ED0
:101D30000250D8B40DD001D00BD0020E016E01506C
:101D4000D8B404D001D002D00106F9D70206F0D7EA
:101D50000306E7D71200026E080E036E000E046E33
:101D600000D0D89002340434046ED890023601506A
:101D7000045CD8A003D00150045E00D0032EF1D73C
:101D800000D004501200120003D019681A6800D065
:101D900019C01BF01AC01CF01B1E1C1E1B4A1C2A5B
:101DA000FF0E1B24196EFF0E1C201A6E1A50D76EE0
:101DB00019C0D6FFF294120003D00168026800D067
:101DC00001C003F002C004F0031E041E034A042AEB
:101DD000FF0E0324016EFF0E0420026E0250D76E28
:101DE00001C0D6FFF294120019501B02F3CF1DF070
:101DF000F4CF1EF019501C02F3501E261A501B027D
:101E0000F3501E261DC019F01EC01AF01200120059
:101E100000EE60F03B0EEE6AE806FDE100EE2DF00C
:101E20001B0EEE6AE806FDE1000EF86E100EF76E6E
:101E3000000155EF0EF021C019F022C01AF01B6A04
:101E40008E0E1C6E000E1D6E30EC0BF019C021F0D2
:101E50001AC022F01BC023F012001200949694982E
:101E600053EC0FF065EC0FF0440E18EC0EF053EC51
:101E70000FF065EC0FF08F0E18EC0EF053EC0FF036
:101E80001200D59CD59AD598D596D584D582D58083
:101E9000000E1A6E010E196EC4EC0EF0D58EF28A89
:101EA000D09EF28E12008296010E97EC0FF082986F
:101EB000010E97EC0FF08286010E97EC0FF08288EE
:101EC000010E97EC0FF0829612008296010E97ECAD
:101ED0000FF08288010E97EC0FF08286010E97ECCE
:101EE0000FF08298010E97EC0FF0829612001F6E91
:101EF000040E1F60120065EC0FF01F50C00F18ECAD
:101F00000EF01E5018EC0EF053EC0FF01200120001
:101F1000000E1A6E0C0E196E6C0E32EC0CF09882DC
:101F2000989498968686F10E0F0123171200196E69
:101F3000000E1A6E02D004D01A2A090E1A64FCD7B9
:101F4000192EF6D7120012009B0E196E300E1A6E63
:101F5000830E82EC0DF09D9C1200C4501B6EC3508A
:101F6000196E1BC01AF012001200C2A202D0010E9C
:101F70001200000E120012001F0E9616848A848C26
:101F8000848E12001E0E9612C00E95121200C2828E
:021F900012003D
:020000040020DA
:08000000FFFFFFFFFFFFFFFF00
:020000040030CA
:0E0000001D037F7F018991FFFFC0FFE0FF40DD
:00000001FF
